:020000040800F2
:1000000068090020CD010008C11A0008BD180008C9
:10001000A11A0008D5020008952000080000000081
:10002000000000000000000000000000411B00086C
:100030006503000800000000F11A0008751B0008A5
:10004000E7010008E7010008E7010008E7010008F0
:10005000E7010008E7010008E7010008E7010008E0
:10006000E7010008E7010008E7010008E7010008D0
:10007000E7010008E7010008D9020008E9020008CA
:10008000F902000809030008E7010008E701000879
:10009000E7010008E7010008E7010008E7010008A0
:1000A000E7010008E7010008E7010008E701000890
:1000B000E7010008E7010008E7010008E701000880
:1000C000E7010008E7010008E7010008E701000870
:1000D000E70100087520000885200008E7010008F6
:1000E000E7010008E7010008E7010008E701000850
:1000F000E7010008E7010008E7010008E701000840
:10010000E7010008E7010008E7010008E70100082F
:10011000E11B0008E7010008E7010008E70100080B
:10012000E7010008E7010008190300082903000897
:1001300000F002F800F03AF80AA090E8000C8244BF
:100140008344AAF10107DA4501D100F02FF8AFF29C
:10015000090EBAE80F0013F0010F18BFFB1A43F0A5
:1001600001031847C0220000E0220000103A24BF1B
:1001700078C878C1FAD8520724BF30C830C144BF0C
:1001800004680C607047000000230024002500264E
:10019000103A28BF78C1FBD8520728BF30C148BFEA
:1001A0000B6070471FB51FBD10B510BD00F05CF8A7
:1001B0001146FFF7F7FF02F001F800F07AF803B4F8
:1001C000FFF7F2FF03BC00F07DF80000094880470C
:1001D00009480047FEE7FEE7FEE7FEE7FEE7FEE729
:1001E000FEE7FEE7FEE7FEE704480549054A064B41
:1001F00070470000DD1B0008310100086803002083
:100200006809002068050020680500204FF0000202
:1002100000B5134694469646203922BFA0E80C50FC
:10022000A0E80C50B1F12001BFF4F7AF090728BFD7
:10023000A0E80C5048BF0CC05DF804EB890028BF53
:1002400040F8042B08BF704748BF20F8022B11F07C
:10025000804F18BF00F8012B7047704770477047F8
:1002600000487047180000207546FFF7F9FFAE46BA
:1002700005006946534620F00700854618B020B5B2
:10028000FFF7B2FFBDE820404FF000064FF0000737
:100290004FF000084FF0000BAC46ACE8C009ACE8EA
:1002A000C009ACE8C009ACE8C00921F007018D46DF
:1002B000704710B50446AFF300802046BDE81040FB
:1002C000FFF77DBF01491820ABBEFEE72600020004
:1002D00070470000FEE7000080B540F25C10C2F2FB
:1002E000000000F02DF980BD80B540F21810C2F278
:1002F000000000F025F980BD80B540F2A010C2F2E8
:10030000000000F01DF980BD80B540F2E410C2F29B
:10031000000000F015F980BD80B540F29000C2F2F7
:10032000000000F00DF980BD80B540F2D400C2F2AB
:10033000000000F005F980BDB0B5D0E900CED0E9ED
:100340000F40012505FA00F060600846CCF8043043
:10035000BEF1100F04BF10460A46CCF80800CCF8D6
:100360000C20B0BD70470000EFF3108072B600BFE4
:10037000FEE7000080B50279006882F0800340F259
:100380000602C2F2000213705170114603220A23C2
:1003900001F038FA80BD0000014690F821000228E3
:1003A00013D10868D1E90FC3026822F00E0202607F
:1003B000026822F001020260012000FA03F2CCF888
:1003C000042081F82100002002E00420886301203D
:1003D000002281F82020704780B590F82110022972
:1003E00027D1026840F2444C1368C4F2020C23F097
:1003F0000E0313601368ACF571718A4223F001019A
:1004000011601BD940F20841C4F202018A424ED069
:1004100040F21C41C4F202018A424CD040F2304109
:10042000C4F202018A424AD14FF480734CF8403C36
:1004300079E0042181630121084680BD6B21C4F26B
:1004400002018A424FF0010316DC2F21C4F202019F
:100450008A423DDD3021C4F202018A4224D0442187
:10046000C4F202018A424CD05821C4F202018A42ED
:100470004DD14FF4803350E040F20741C4F2020105
:100480008A4231DD40F20841C4F202018A4244D07E
:1004900040F21C41C4F202018A4223D040F23041B2
:1004A000C4F202018A4232D14FF4807335E0012355
:1004B0004CF8403C37E010234CF8403C33E04FF41C
:1004C0008033624508BF4FF480534CF8403C2AE02B
:1004D0000821C4F202018A421FD01C21C4F2020189
:1004E0008A4214D1102318E06C21C4F202018A421E
:1004F0000AD08021C4F202018A4208D14FF08073F1
:100500000BE04FF4805308E04FF4801305E04FF404
:100510008033624508BF4FF480534FF6C031CFF6A9
:10052000FF714CF80130012180F82110426B00214D
:1005300080F820100AB190470021084680BD0000D5
:1005400010B50168D0E90FCEDCF800200B685C071D
:100550002ED5042404FA0EF4144029D00A68920619
:1005600003D40A6822F004020A6040F24441C4F253
:1005700002010268A1F571739A424DD940F2084315
:10058000C4F202039A4200F0C18040F21C43C4F25C
:1005900002039A4200F0BE8040F23043C4F20203EC
:1005A0009A4240F0BB804FF4806341F8403C2DE11B
:1005B0009C0752D5022404FA0EF414404DD00A6868
:1005C000920606D40A6822F00A020A60012180F825
:1005D000211040F24441C4F202010268A1F5717396
:1005E0009A4256D940F20843C4F202039A4200F0FC
:1005F000D28040F21C43C4F202039A4200F0CF8042
:1006000040F23043C4F202039A4240F0CC804FF4EF
:10061000007341F8403C10E16B23C4F202039A429C
:100620004FF0040356DC2F24C4F20204A24240F32C
:1006300099803023C4F202039A4264D04423C4F266
:1006400002039A4200F0D1805823C4F202039A4276
:1006500040F0D1804FF48023D3E01B0758BF10BD7A
:10066000082303FA0EF31A4012D00A6822F00E0291
:100670000A60012101FA0EF2CCF80420816380F8AF
:100680002110016B0022002980F8202018BF884724
:1006900010BD6B23C4F202039A424FF0020346DC02
:1006A0002F24C4F20204A24240F386803023C4F215
:1006B00002039A4253D04423C4F202039A4200F048
:1006C000AB805823C4F202039A4240F0AB804FF44F
:1006D0000033ADE040F20744C4F20204A2424DDD13
:1006E00040F20844C4F20204A24200F08A8040F2C0
:1006F0001C43C4F202039A423ED040F23043C4F29B
:1007000002039A4277D14FF480637AE0042341F8E0
:10071000403C7BE0402341F8403C77E04FF48023AD
:100720008A4208BF4FF4804341F8403C6EE040F2FB
:100730000744C4F20204A2424ADD40F20844C4F273
:100740000204A24274D040F21C43C4F202039A4253
:100750003CD040F23043C4F202039A4262D14FF4DB
:10076000007365E00824C4F20204A24249D01C23AD
:10077000C4F202039A423ED1402342E06C23C4F209
:1007800002039A4234D08023C4F202039A4232D147
:100790004FF0806335E0022341F8403C4DE02023D8
:1007A00041F8403C49E04FF400338A4208BF4FF41F
:1007B000005341F8403C40E00824C4F20204A24245
:1007C00036D01C23C4F202039A422BD120232FE0FF
:1007D0006C23C4F202039A4221D08023C4F20203A4
:1007E0009A421FD14FF0007322E04FF4804308E09B
:1007F0004FF4800305E04FF480238A4208BF4FF492
:1008000080434FF6C032CFF6FF728B50C16A002989
:100810003FF43EAF884710BD4FF4005308E04FF45B
:10082000001305E04FF400338A4208BF4FF4005331
:100830004FF6C032CFF6FF728B50816A002200293A
:1008400080F820203FF424AF884710BD01460028DF
:100850004FF0010008BF70472DE9F04740F2000C4F
:10086000C4F2020C0A684FF6F8330CF5816ECBF631
:10087000FD73724538BF03F5806302EB030E4CF63F
:10088000CD43CCF6CC43AEFB033E6FF003060CF534
:10089000806506EA9E06D1E901A9D1F80C803CBF2B
:1008A0000025C4F20205C1E90F56022681F8216035
:1008B000166843F6F075AE4346EA0A06D1E90457D6
:1008C00046EA090646EA0806D1E906432E433743BD
:1008D00027433B43136000228A6381F8210081F89B
:1008E00020200020BDE8F0477047000010B5044606
:1008F00090F82000012820D0012084F8200094F8EE
:100900002100012816D1022084F821000020A063D4
:10091000D4F800C0DCF8000020F00100CCF80000A2
:100920002046FFF709FD2068E26A01683AB141F00C
:100930000E010AE0002084F82000022010BD21F002
:1009400004010160016841F00A010160016841F0A1
:1009500001010160002010BD2DE9F04F83B00C684B
:10096000002C00F0EA80A0F18042A2F5843240F22F
:10097000004E4FEAB22241F60047C4F2010E009247
:10098000C4F20107062200254FF001094FF0000BC9
:100990004FF0000AB84208BF0522019209E000BFEB
:1009A0000C680BF1010B34FA0BF205F1040500F0B1
:1009B000C48009FA0BF814EA080CF1D04C684FF621
:1009C000FF72C1F21002944210DC122C50D8DFE802
:1009D00004F0330A41454F4F4F4F4F4F4F4F4F4F4A
:1009E0004F4F4F484C00D1F80CA041E04FF6FF723A
:1009F000C1F2210294420FDC0022C1F211029442A2
:100A00001AD00022C1F21202944215D00022C1F283
:100A10002102944210D02BE00022C1F22202944223
:100A20000AD00022C1F23102944205D00022C1F264
:100A3000320294421CD100BF8C6844B1012C14BF17
:100A4000C0F81480C0F810804FF0080A10E04FF092
:100A5000040A0DE0CC6804F1080A09E04FF0000A2E
:100A600006E0CC6804F1040A02E0CC6804F10C0A48
:100A70002C460746BCF5807F24BF203C04373A68EB
:100A80000F2303FA04F6B2430AFA04F422433A604D
:100A9000CA79D2067FF584AF41F21804C4F2020489
:100AA00022684FF6084842F0010222602268CFF621
:100AB000FF7802F001020292029A2BF003027244C4
:100AC00052F8084005F00C0603FA06F7009BBC43F9
:100AD000019F052B38BF1F4607FA06F6344342F83C
:100AE00008404C6840F20C46E202DEF8082054BF91
:100AF00022EA0C0742EA0C07C4F20106A202CEF871
:100B00000870326854BF22EA0C0742EA0C07A203BD
:100B10003760DEF8042054BF22EA0C0742EA0C07D3
:100B2000E203CEF80470DEF8002054BF22EA0C0283
:100B300042EA0C02CEF8002032E703B0BDE8F08FA5
:100B40008068084018BF012070470000002A08BFD5
:100B5000090401617047000040F26430C2F20000F5
:100B60000068704740F2120040F26431C2F20000A7
:100B7000C2F2000100780A68104408607047000063
:100B800080B542F20000C4F20200016841F0100199
:100B90000160032000F066F80F2000F005F800F077
:100BA0002BF8002080BD0000B0B540F21202C2F266
:100BB000000240F200011278C2F200014FF47A7391
:100BC0000968B3FBF2F20446B1FBF2F1084600F00B
:100BD000E9FA0F2C4FF001050CD858B94FF0FF304F
:100BE00021460022002500F02DF840F21400C2F248
:100BF000000004602846B0BD82B041F21800C4F283
:100C000002000168022241F001010160016801F067
:100C1000010101910199416841F0805141604068B2
:100C200000F08050009000980420C4F20100016898
:100C300062F31A61016002B07047000080B501F0F4
:100C40002BFA80BD70B514460D46064601F034FA05
:100C50002946224600F036FF0146304601F034FABC
:100C600070BD000080B501F041FA80BD2DE9F04370
:100C700081B0002800F0878042F20008C4F2020828
:100C80000446D8F800000D4600F0070088420CD258
:100C9000D8F8000020F007002843C8F80000D8F872
:100CA000000000F00700A8426DD1206841F204095D
:100CB0008107C4F2020917D5410705D5D9F80010FC
:100CC00041F4E061C9F80010010705D5D9F800101A
:100CD00041F46051C9F80010D9F80010A26821F061
:100CE000F0011143C9F80010C00745D1D8F8000041
:100CF00000F00700A8420CD9D8F8000020F0070047
:100D00002843C8F80000D8F8000000F00700A84207
:100D100039D12068410707D5D9F80010E26821F4DD
:100D2000E0611143C9F80010000708D5D9F80000A8
:100D3000216920F4605040EAC100C9F8000000F0C9
:100D400077F8D9F8001042F20A42C1F30311C0F655
:100D50000002515C40F2000220FA01F140F214005E
:100D6000C2F200000068C2F200021160FFF71CFF2F
:100D7000002001B0BDE8F0836068012807D159F870
:100D8000041C89030CD4012001B0BDE8F08359F89C
:100D9000041C022802D18901F5D501E08907F2D5AA
:100DA000D9F8001021F003010843C9F80000FFF74B
:100DB000D3FE064641F28837D9F80000616800F09A
:100DC0000C00B0EB810F91D0FFF7C6FE801BB8423C
:100DD000F2D9032001B0BDE8F083000040F200002A
:100DE000C2F200000068704780B5FFF7F7FF41F2DC
:100DF0000401C4F20201096842F21A42C1F302215D
:100E0000C0F60002515CC84080BD000080B5FFF70D
:100E1000E5FF41F20401C4F20201096842F21A42FC
:100E2000C1F3C221C0F60002515CC84080BD000081
:100E300041F2040CC4F2020CDCF8003003F00C00A8
:100E4000082841F20020C0F27A0018BF7047C3F3AF
:100E500083420AA18A5CD90305D440F60010C0F28F
:100E60003D0050437047DCF8001008A3C1F3404137
:100E7000595C5043B0FBF1F0704700BF020304051A
:100E8000060708090A0B0C0D0E0F101001020000D6
:100E90002DE9F04182B0002800F0C48004460078BB
:100EA00041F20006C007C4F2020643D0706800F0A9
:100EB0000C00042817D0706800F00C00082802D13C
:100EC0007068C0030FD465689DB1B5F5803F06D04A
:100ED0003068B5F5A02F0DD140F480203060306827
:100EE00040F480300CE03068800323D5606808BB94
:100EF00098E0306820F480303060306820F4802042
:100F00003060FFF729FE002D054610D030688003C1
:100F100010D4FFF721FE401B6428F7D908E100BF79
:100F2000FFF71AFE401B64284FF0030077D83068A3
:100F30008003F5D42078800718D5706810F00C0F66
:100F400007D0706800F00C00082826D17068C00334
:100F500023D43068800702D52069012862D1306827
:100F6000616920F0F80040EAC10030602078000795
:100F70003DD5A06938B30020C4F242200121C0F859
:100F80008014FFF7E9FD0546706A80072DD4FFF74E
:100F9000E3FD401B0228F7D9CAE02069002840F28F
:100FA0000000C4F2422000F09A8001210160FFF7A6
:100FB000D3FD054630688007D1D4FFF7CDFD401B37
:100FC0000228F7D9B4E00020C4F242200021C0F882
:100FD0008014FFF7C1FD0546706A800707D5FFF74B
:100FE000BBFD401B0228F7D9A2E000F083FD20786A
:100FF00040071BD4E5698DB1706800F00C0008282B
:101000004CD1012D0ED07068216A00F480328A42E2
:1010100008D1616A00F47010884203D1002002B048
:10102000BDE8F081012002B0BDE8F081F069C000A8
:101030000BD4F0694FF0010840F08050F061F06986
:1010400000F080500190019801E04FF0000847F255
:101050000007C4F200073868C00510D4386840F4AF
:1010600080703860FFF778FD054600BF3868C0051E
:1010700005D4FFF771FD401B6428F7D958E0E568F7
:10108000002D3DD0012D05D0306A052D39D140F01D
:1010900004003062306A40F0010038E00027C4F2FA
:1010A000422700203866FFF757FD022D05460BD179
:1010B0003068800154D5FFF74FFD401B02284FF0E8
:1010C0000300F5D9ABE700BF30688001A6D5FFF774
:1010D00043FD401B02284FF00300F5D99FE7002194
:1010E0000160FFF739FD0546306880077FF53EAFA8
:1010F000FFF732FD401B02284FF00300F4D98EE7C2
:10110000306A20F001003062306A20F00400306262
:10111000FFF722FD002D054641F2883714D000BFAD
:10112000306A800713D4FFF717FD401BB842F7D988
:10113000032002B0BDE8F081FFF70EFD401BB8426E
:101140004FF003003FF66BAF306A8007F4D4B8F17C
:10115000000F3FF44FAFF06920F08050F06149E795
:10116000206AB0F5803F05D17168A26821F4003192
:10117000114371607168626A21F47411104308436D
:10118000706001203866FFF7E7FC04463068800194
:101190003FF544AFFFF7E0FC001B02284FF00300CF
:1011A000F4D93CE780B500F0CDFC80BD704700006D
:1011B0007047000070B582B0036804461868D968AB
:1011C0005D6900F02F02202A01F0200205D122B132
:1011D000204600F0CFFD02B070BD5FEA007C08D071
:1011E00005F0010E11F4907F8EF001054FD1002D16
:1011F0004DD0226B0840C1063FD5012A3DD10020C9
:10120000019018680190586801900198586940064B
:1012100000F19C80A08DE18DE28D002A1CBF401A58
:101220005FEA004102D102B070BD00BF216851E801
:10123000031F226821F4907142E80313002BF5D1BB
:10124000216851E8051F226821F0010142E80513D9
:10125000002BF5D1202184F842100021216300BF2A
:10126000216851E8031F226821F0100142E80313AE
:10127000002BF5D102216163AEE0010600F1B280DE
:101280004006D0D5204600F05BFD02B070BDC3071C
:1012900018BF11F4807303D0636C43F001036364DF
:1012A00000F00406012383EA96062E4303D1666C00
:1012B00046F00206666400F0020683EA56032B43FA
:1012C00003D1636C43F00403636452EA0E0218BF57
:1012D0000122BCF1000F04D51AB1626C42F0080281
:1012E0006264626C002A9ED00840800602D52046C7
:1012F00000F040FD20684069616C00F0400001F0A2
:101300000801401878D0204600F0F2FC20684069BF
:1013100040066CD5206850E8050F216820F0400099
:1013200041E80502002AF5D1E06B00285FD041F6C4
:10133000F131C0F600014163FFF74EF800283FF499
:1013400072AFE06B416B884702B070BDE06B016823
:1013500049688AB2002A3FF466AFA38D9A42BFF46F
:1013600062AFE1858069202831D000BF206850E855
:10137000030F216820F4807041E80302002AF5D1B0
:10138000206850E8050F216820F0010041E80502BF
:10139000002AF5D1206850E8050F216820F04000B0
:1013A00041E80502002AF5D1202084F842000020FF
:1013B000206300BF206850E8030F216820F0100070
:1013C00041E80302002AF5D1E06BFEF7E5FF0220B9
:1013D0006063A08DE18D401A81B22046FFF7E6FEE2
:1013E00002B070BD204600F0D7FD02B070BD2046AF
:1013F000FFF7DEFE02B070BD2046FFF7D9FE0020E9
:10140000606402B070BD0000002804BF0120704776
:1014100010B5044690F8410028B9002084F8400037
:10142000204600F021F8242084F841002068C1689B
:1014300021F40051C160204600F000FD20680169E0
:1014400021F490410161416921F02A014161C168A3
:1014500041F40051C16000202021606484F84110F3
:1014600084F84210606310BD2DE9F04186B000277A
:101470000597CDE903770446006844F20041C4F2C1
:101480000001884202977DD043F60001C4F20101B9
:10149000884200F0DF8044F60041C4F20001884237
:1014A00040F04C8141F21C00C4F20200016841F29C
:1014B000180841F4002101600068C4F2020800F439
:1014C000002001900198D8F8000002AE40F0100012
:1014D000C8F80000D8F80000314600F01000019074
:1014E00001984FF480600290022003900320059041
:1014F00040F60000C4F2010000F500652846FFF741
:101500002BFA4FF400600290002728463146CDE9BF
:101510000377FFF721FA4420C4F2020040F290055D
:1015200000F57B70C2F200058026C5E90007284659
:10153000C5E90276C5E90477C5E90677FFF786F9BC
:10154000002818BFFEF710FFE5636C6240F2D40577
:10155000A8F53C60C2F20005102185E8830028460A
:10156000C5E90367C5E90577EF61FFF76FF9002863
:1015700000F0D580FEF7F8FE40F2D4053426C2F222
:101580000005D1E041F21C00C4F20200016840F6FF
:10159000000541F4003101600068C4F2010500F467
:1015A00000300190019841F21800C4F20200016875
:1015B00002AE41F004010160006840F2440800F00E
:1015C000040001900198042002900220039003205F
:1015D000059028463146C4F20208FFF7BDF90820FD
:1015E000CDE90207284631460497FFF7B5F940F2E6
:1015F000A01508F12800C2F200058026C5E9000701
:101600002846C5E90276C5E90477C5E90677FFF7FC
:101610001DF9002818BFFEF7A7FEE5636C6240F2D3
:10162000E41508F13C00C2F200051021002285E813
:1016300047002846C5E90422C5E90622FFF706F956
:1016400000286ED0FEF790FE40F2E4152626C2F286
:10165000000569E041F21800C4F20200016840F69A
:10166000000541F4804101600168C4F2010501F404
:10167000804101910199016802AE41F004010160CD
:10168000006840F2440800F00400019001984FF413
:1016900000700290022003900320059028463146F6
:1016A000C4F20208FFF758F94FF480600290002757
:1016B00028463146CDE90377FFF74EF940F2181579
:1016C00008F11400C2F200058026C5E9000728468B
:1016D000C5E90276C5E90477C5E90677FFF7B6F8EC
:1016E000002818BFFEF740FEE5636C6240F25C150F
:1016F000C2F200051020C5E900802846C5E902763F
:10170000C5E90477C5E90677FFF7A0F858B1FEF7F9
:101710002BFE40F25C152526C2F2000504E03426BB
:1017200002E0262600E02526304600210022A5639F
:101730006C62FFF787FA3046FFF780FA06B0BDE823
:10174000F081000010B590F84230202B1CBF022021
:1017500010BD00294FF0010418BF002A01D1204616
:1017600010BD0024046300F0B1FB204610BD000052
:1017700010B590F84230202B1CBF022010BD00296C
:101780004FF0010418BF002A01D1204610BD0024EB
:10179000046300F0E7FB204610BD000080B540F276
:1017A000B821C2F2000100680968884205D140F200
:1017B0001101C2F2000101220A7040F22821C2F296
:1017C00000010968884218BF80BD40F28201C2F260
:1017D000000140F204000B88C2F2000001220270F6
:1017E00018BA40F28002000CC2F20002108040F2EF
:1017F0002820C2F200000222FFF7BAFF80BD0000DD
:10180000704700002DE9F041044690F8410020287F
:101810001CBF0220BDE8F0810E4600294FF00100F8
:1018200042D01746002A08BFBDE8F0814FF00008FB
:1018300021201D46C4F8448084F84100FFF78CF94C
:10184000A784E784A1680746B1F5805F0DD12069C0
:10185000002814BF3046B046064606E016F8010BD5
:1018600021684860E08C0138E084E08C80B120463B
:1018700080213A462B4600F0B9FBB8B9002EEDD1D5
:1018800038F8020B21686FF35F2048600026E9E713
:10189000204640213A462B4600F0A8FB202184F840
:1018A0004110002818BF0320BDE8F081202084F8F3
:1018B00041000320BDE8F08170470000FEE7000012
:1018C00080B582B041F21400C4F202000168002227
:1018D00041F002010160016801F0020101910199EA
:1018E000016841F0010101600068002100F0010081
:1018F000009000980E20FFF7A5F90E20FFF79EF943
:101900000F2000210022FFF79DF90F20FFF796F925
:10191000102000210022FFF795F91020FFF78EF923
:10192000112000210022FFF78DF91120FFF786F921
:101930003A2000210022FFF785F93A20FFF77EF9CF
:101940003B2000210022FFF77DF93B20FFF776F9CD
:1019500002B080BD70B586B0002641F21800CDE916
:101960000466CDE90266C4F20200016841F2000497
:1019700041F0200101600168C4F2010401F020017E
:10198000019101990168002241F010010160016894
:101990004FF4C77501F0100101910199016841F000
:1019A00004010160016801F00401019101990168DD
:1019B00041F00801016000684FF4C77100F00800B1
:1019C000019001982046FFF7C1F801200295CDE96A
:1019D0000306022002AD059020462946FEF7BCFF13
:1019E0004FF48040CDE90206A4F5806029460496B4
:1019F000FEF7B2FF06B070BD80B540F2B82044F6E5
:101A00000041C2F20000C4F2000100234FF00C0CB0
:101A10004FF4E13280E80E00C0E90333C0E905C3AA
:101A2000C361FFF7F1FC002808BF80BDFEF79CFCF6
:101A300080B540F2282043F60001C2F20000C4F253
:101A4000010100234FF00C0C4FF4E13280E80E004E
:101A5000C0E90333C0E905C3C361FFF7D5FC002823
:101A600008BF80BDFEF780FC80B540F2702044F2D4
:101A70000041C2F20000C4F2000100234FF00C0C40
:101A80004FF4E13280E80E00C0E90333C0E905C33A
:101A9000C361FFF7B9FC002808BF80BDFEF764FCF6
:101AA000FEE700000160828040F2753141F621328C
:101AB000C0F60001C0F60002C0E902127047000043
:101AC000FEE7000000F0070080F00703042B28BFAA
:101AD00004234FF0FF3C03380CFA03F338BF002017
:101AE000994381400CFA00F022EA00000843704755
:101AF0007047000081B040F20000C2F200000068B0
:101B000044F6D351C1F26201A0FB0101480A0090E2
:101B100000BF0098411E00280091F9D101B0704724
:101B200080B5037940F20602C2F200020068137029
:101B30005170114603220A23FFF764FE80BD0000A6
:101B400070470000B0B501380024B4EB106F1CBF23
:101B50000120B0BD4EF21005CEF2000568604FF0D6
:101B6000FF300F2100F0B0FA0720AC60286020465B
:101B7000B0BD000080B5FEF7F5FF80BD70B590B038
:101B800006AC20462821FEF741FB002501204FF43A
:101B900080310690CDE907150A9002264FF4E01037
:101BA000CDE90D610F9020460595CDE90355CDE9AE
:101BB0000155FFF76DF978B90F20CDE901064FF413
:101BC00080600395CDE9040501A80221FFF74EF8D6
:101BD000002804BF10B070BDFEF7C6FB70470000C0
:101BE00080B540F2B820C2F20000FFF7E3FA80BDF2
:101BF00080B5406A0021C185C184FFF7D9FA80BD54
:101C000010B5446A2068406994F84110212907D131
:101C100010F0800004D00020E084204600F09CF802
:101C20002068406994F84210222907D110F0400042
:101C300004D00020E085204600F05AF8606C40F0A7
:101C4000100060642046FFF7B3FA10BD80B501684C
:101C5000406A096889062FD40021C185016851E8CE
:101C6000031F026821F4807142E80313002BF5D1B1
:101C7000016851E8051F026821F0010142E80513DF
:101C8000002BF5D1016851E8051F026821F04001E1
:101C900042E80513002BF5D1202180F84210016B9A
:101CA000012909D1016851E8031F026821F01001E0
:101CB00042E80313002BF5D100214163016B012998
:101CC00003D1818DFFF772FA80BDFFF767FD80BDFC
:101CD00080B5406A01214163016B012904D1818DE6
:101CE0004908FFF763FA80BDFFF78AFD80BD000059
:101CF000016851E8031F026821F4907142E8031360
:101D0000002BF5D1016851E8051F026821F001019F
:101D100042E80513002BF5D1016B01290AD100BF60
:101D2000016851E8031F026821F0100142E8031323
:101D3000002BF5D1202180F842100021016370476B
:101D400080B50168CA6822F04002CA60202180F88C
:101D50004110FFF7B1FD80BD016851E8031F026823
:101D600021F0C00142E80313002BF5D1202180F8B7
:101D70004110704780B582B090F8421022291ED1E0
:101D80008268B2F5805F02D1016900294AD0816A78
:101D9000B2F5805F07D00AB9026922B102685268C1
:101DA00002F07F0201E0026852680A700121826A33
:101DB00011448162C18D01390A04C18501D002B08C
:101DC00080BD0168CA6822F02002CA60CA6822F495
:101DD0008072CA604A6922F001024A61202180F8BB
:101DE000421000214163026B012A23D1016300BF2D
:101DF000016851E8031F026821F0100142E8031353
:101E0000002BF5D101680A68D20606D5002201929E
:101E10000A680192496801910199818DFFF7C6F91D
:101E200002B080BD0168826A49686FF35F2111804A
:101E30000221BCE7FFF7B2FC02B080BD10B504463A
:101E40000068D4E902C22369016921F440511143B9
:101E50000161616943EA0C021143C26841F20C63FB
:101E60009A431143C1604169A26921F44071114351
:101E700043F60002C4F201029042416102D0FEF733
:101E8000B3FF01E0FEF7C2FF6268192148439100E9
:101E9000B0FBF1F048F21F51C5F2EB11A0FB01239A
:101EA0005A096FF0630302FB0300322303EB0010B7
:101EB000A0FB0101F02303EA5113206803EB021297
:101EC000C1F343111144816010BD000070B582B0B0
:101ED000134600250446816283854564222084F8E8
:101EE00042000A462168E06B41F64D4C41F6D14E66
:101EF00041F60146C0F6000CC0F6000EC0F6000622
:101F00000431C0E90ACEC0E90C65FEF7EFFC01958B
:101F1000206801680191406801900198206948B1EA
:101F2000206850E8030F216840F4807041E8030204
:101F3000002AF5D1206850E8050F216840F0010023
:101F400041E80502002AF5D1206850E8050F216814
:101F500040F0400041E80502002AF5D1002002B01F
:101F600070BD0000816200218285C285416422210A
:101F700080F84210016921B10168CA6842F4807298
:101F8000CA600168486940F001004861C86840F0D3
:101F900020020020CA60704790F84110212923D107
:101FA0008168B1F5805F01D1016931B1016A0268D0
:101FB0004B1C03620978516007E0016A036831F83D
:101FC000022B6FF35F225A600162C18C01390A044F
:101FD000C18418BF70470068C16821F08001C160EA
:101FE000C16841F04001C160704700002DE9F04137
:101FF00082B00446006800680840884203D100208F
:1020000002B0BDE8F0811D460E4690465F1C04E01C
:10201000206800683040B04228D0002FF8D0FEF78A
:102020009BFD01464FF003000DB3A1EB0801A9424F
:102030001DD82068C1684907EAD5402EE8D0802E17
:10204000E6D001680907E3D50025019501680191F3
:102050004068019001982046FFF74AFE082060641E
:1020600084F84050012002B0BDE8F081002002B0A9
:10207000BDE8F08180B540F22820C2F20000FFF7F1
:1020800099F880BD80B540F27020C2F20000FFF7E1
:1020900091F880BDFEE70000002848BF704700F0BF
:1020A0001F01012202FA01F14EF200124009CEF2A4
:1020B000000242F8201070474EF60C50CEF200009D
:1020C0000068C0F3022070474EF6145300F00F0270
:1020D000CEF2000309011A4400F16043B0F1FF3F62
:1020E000C8BF03F564421170704700004EF60C51F2
:1020F000CEF200010A684FF6FF031A4060F30A228D
:1021000042F0806040F0FD7008607047B0B540F26A
:102110001105C2F200052878A8B140F2B82040F2BB
:102120000501C2F20000C2F2000101220A23FFF7FA
:1021300069FBFEF711FD40F28C01C2F2000108605C
:1021400000202870B0BD40F2503440F2B820C2F2F6
:102150000004C2F2000021460A22FFF7F3FA2088A9
:1021600040F28401C2F200010880608840F27801E8
:10217000C2F200010880A08840F27A01C2F2000198
:102180000880E08840F27C01C2F2000108802089CA
:1021900040F27E01C2F200010880FEF7DDFC40F251
:1021A0008C04C2F200042168401A052838BFB0BD73
:1021B00001202870FEF7D0FC2060B0BDFEF7E0FCE7
:1021C000FFF7DCFCFFF7C6FBFFF77AFBFFF714FC19
:1021D000FFF72EFCFFF748FC40F2B82040F25031E8
:1021E000C2F20000C2F200010A22FFF7ABFA40F28D
:1021F000282040F28201C2F20000C2F20001022255
:10220000FFF7B6FA40F2003440F27025C2F2000443
:10221000C2F20005204629460122FFF743FC04F1E3
:102220001008404629460222FFF73CFC04F1200931
:10223000484629460322FFF735FC04F130073846AB
:1022400029460422FFF72EFC04F1400630462946B9
:102250000622FFF727FCA268204602219047A269C8
:10226000404602219047A26A484602219047A26B4D
:10227000384602219047A26C30460221904741F235
:102280000004C4F20104204680210022FEF75EFC17
:1022900020464FF480710022FEF758FCFFF736FF0E
:1022A00000F002F8FAE70000B0B541F20004C4F211
:1022B0000104A4F580604FF48041FEF741FC40F238
:1022C0008401C2F2000109880028024601F410438B
:1022D00018BF0122B3F5104F40F20903C2F2000308
:1022E0001A700BD1204680210022FEF72FFC2046D9
:1022F0004FF480710022FEF729FCB0BD40F20112BC
:1023000001EA0203934225D140F20A04C2F200041A
:1023100050B9FEF721FC40F26031C2F200010860C2
:102320000020A071012020702078002845D0FEF701
:1023300013FC40F26035C2F200052968401AC82833
:1023400035D840F20030C2F20000826C4030962155
:10235000904732E042F62000014081421FD140F216
:102360008800C2F200000221016020468021012283
:10237000FEF7ECFBFEF7F0FB40F25C35C2F2000525
:102380002968401A642838BFB0BD20464FF48071D8
:102390000122FEF7DBFBFEF7DFFB2860B0BDFEF796
:1023A000DBFB40F25C31C2F200010860B0BDFEF719
:1023B000D3FB28604FF4807020806078C8B1FEF7AE
:1023C000CBFB40F26035C2F200052968401A46286E
:1023D00008D840F20030C2F20000C26C40309621B2
:1023E000904706E0FEF7B8FB28604FF48070A4F831
:1023F0000100A0790028D9D040F20030C2F20000DC
:10240000826C403096219047B0BD00000000000073
:102410000000010203040607080900000000010291
:1024200003040000482400080000002018000000F9
:102430006C0100086024000818000020500900000A
:10244000880100080000000000127A00016400000A
:10245000FF01000000000000010101001000000069
:0400000508000131BD
:00000001FF
