:020000040800F2
:1000000000C0002091360008153400081D34000897
:10001000253400082D3400083534000800000000A5
:100020000000000000000000000000003D34000857
:10003000493400080000000055340008613400080D
:10004000D9360008D9360008D9360008D936000854
:10005000D9360008D9360008D9360008D936000844
:10006000D9360008D93600086D340008D9360008A2
:10007000D9360008D9360008D9360008D936000824
:10008000D9360008D9360008D9360008D936000814
:10009000D9360008D9360008D93600087B34000864
:1000A000D9360008D9360008D9360008D9360008F4
:1000B000D9360008D9360008D9360008D9360008E4
:1000C000D9360008D9360008D9360008D9360008D4
:1000D000D9360008D9360008893400089D34000854
:1000E000D9360008D9360008D9360008D9360008B4
:1000F000D9360008D9360008D9360008D9360008A4
:10010000D9360008D9360008D9360008D936000893
:10011000B1340008C5340008D9340008ED340008B3
:10012000D9360008D9360008D9360008D936000873
:1001300000000000000000000000000000000000BF
:1001400000000000000000000000000000000000AF
:10015000000000000000000000000000000000009F
:10016000000000000000000000000000000000008F
:10017000000000000000000000000000000000007F
:10018000000000000000000000000000000000006F
:10019000000000000000000000000000000000005F
:1001A000000000000000000000000000000000004F
:1001B000000000000000000000000000000000003F
:1001C000000000000000000000000000000000002F
:1001D000000000000000000000000000000000001F
:0401E0005FF8E0F1F3
:1001E80010B5054C237833B9044B13B10448AFF369
:1001F80000800123237010BDD801002000000000FA
:10020800808C000808B5034B1BB103490348AFF3C2
:10021800008008BD00000000DC010020808C000880
:10022800034613F8012B002AFBD1181A013870472E
:1002380081F0004102E000BF83F0004330B54FEA8F
:1002480041044FEA430594EA050F08BF90EA020FFC
:100258001FBF54EA000C55EA020C7FEA645C7FEA8F
:10026800655C00F0E2804FEA5454D4EB5555B8BFB2
:100278006D420CDD2C4480EA020281EA030382EA23
:10028800000083EA010180EA020281EA0303362DB5
:1002980088BF30BD11F0004F4FEA01314FF4801C88
:1002A8004CEA113102D0404261EB410113F0004F9A
:1002B8004FEA03334CEA133302D0524263EB430351
:1002C80094EA050F00F0A780A4F10104D5F1200EEF
:1002D8000DDB02FA0EFC22FA05F2801841F100014A
:1002E80003FA0EF2801843FA05F359410EE0A5F11E
:1002F80020050EF1200E012A03FA0EFC28BF4CF04F
:10030800020C43FA05F3C01851EBE37101F0004504
:1003180007D54FF0000EDCF1000C7EEB00006EEB11
:100328000101B1F5801F1BD3B1F5001F0CD349089B
:100338005FEA30004FEA3C0C04F101044FEA4452F2
:1003480012F5800F80F09A80BCF1004F08BF5FEA79
:10035800500C50F1000041EB045141EA050130BD59
:100368005FEA4C0C404141EB0101013C28BFB1F56B
:10037800801FE9D291F0000F04BF01460020B1FAB6
:1003880081F308BF2033A3F10B03B3F120020CDA89
:100398000C3208DD02F1140CC2F10C0201FA0CF067
:1003A80021FA02F10CE002F11402D8BFC2F1200CCC
:1003B80001FA02F120FA0CFCDCBF41EA0C01904082
:1003C800E41AA2BF01EB0451294330BD6FEA0404CB
:1003D8001F3C1CDA0C340EDC04F11404C4F12002B6
:1003E80020FA04F001FA02F340EA030021FA04F3C8
:1003F80045EA030130BDC4F10C04C4F1200220FA1F
:1004080002F001FA04F340EA0300294630BD21FA5C
:1004180004F0294630BD94F0000F83F4801306BF22
:1004280081F480110134013D4EE77FEA645C18BF16
:100438007FEA655C29D094EA050F08BF90EA020FAD
:1004480005D054EA000C04BF1946104630BD91EAA5
:10045800030F1EBF0021002030BD5FEA545C05D1A8
:100468004000494128BF41F0004130BD14F58004E7
:100478003CBF01F5801130BD01F0004545F0FE415B
:1004880041F470014FF0000030BD7FEA645C1ABF90
:10049800194610467FEA655C1CBF0B46024650EAC7
:1004A800013406BF52EA033591EA030F41F40021F3
:1004B80030BD00BF90F0000F04BF0021704730B579
:1004C8004FF4806404F132044FF000054FF000014E
:1004D80050E700BF90F0000F04BF0021704730B50F
:1004E8004FF4806404F1320410F0004548BF4042E4
:1004F8004FF000013EE700BF42004FEAE2014FEA39
:1005080031014FEA02701FBF12F07F4393F07F4F13
:1005180081F06051704732F07F4208BF704793F016
:100528007F4F04BF41F40021704730B54FF4607429
:1005380001F0004521F000411CE700BF50EA01022C
:1005480008BF704730B54FF000050AE050EA0102D5
:1005580008BF704730B511F0004502D5404261EB45
:1005680041014FF4806404F132045FEA915C3FF486
:10057800D8AE4FF003025FEADC0C18BF03325FEA23
:10058800DC0C18BF033202EBDC02C2F1200300FAD4
:1005980003FC20FA02F001FA03FE40EA0E0021FAF9
:1005A80002F11444BDE600BF70B54FF0FF0C4CF4E7
:1005B800E06C1CEA11541DBF1CEA135594EA0C0F99
:1005C80095EA0C0F00F0DEF82C4481EA030621EAD4
:1005D8004C5123EA4C5350EA013518BF52EA03350F
:1005E80041F4801143F4801338D0A0FB02CE4FF0C1
:1005F8000005E1FB02E506F00042E0FB03E54FF0F1
:100608000006E1FB03569CF0000F18BF4EF0010EE8
:10061800A4F1FF04B6F5007F64F5407404D25FEAE4
:100628004E0E6D4146EB060642EAC62141EA555197
:100638004FEAC52040EA5E504FEACE2EB4F1FD0CD9
:1006480088BFBCF5E06F1ED8BEF1004F08BF5FEA57
:10065800500E50F1000041EB045170BD06F0004609
:1006680046EA010140EA020081EA0301B4EB5C04B6
:10067800C2BFD4EB0C0541EA045170BD41F48011AE
:100688004FF0000E013C00F3AB8014F1360FDEBFD3
:10069800002001F0004170BDC4F10004203C35DAAF
:1006A8000C341BDC04F11404C4F1200500FA05F332
:1006B80020FA04F001FA05F240EA020001F00042D3
:1006C80021F0004110EBD37021FA04F642EB060149
:1006D8005EEA430E08BF20EAD37070BDC4F10C0473
:1006E800C4F1200500FA04F320FA05F001FA04F237
:1006F80040EA020001F0004110EBD37041F1000123
:100708005EEA430E08BF20EAD37070BDC4F120052D
:1007180000FA05F24EEA020E20FA04F301FA05F295
:1007280043EA020321FA04F001F0004121FA04F23D
:1007380020EA020000EBD3705EEA430E08BF20EA0D
:10074800D37070BD94F0000F0FD101F00046400047
:1007580041EB010111F4801F08BF013CF7D041EAC9
:10076800060195F0000F18BF704703F000465200CD
:1007780043EB030313F4801F08BF013DF7D043EA9E
:100788000603704794EA0C0F0CEA135518BF95EA54
:100798000C0F0CD050EA410618BF52EA4306D1D1DB
:1007A80081EA030101F000414FF0000070BD50EAFA
:1007B800410606BF1046194652EA430619D094EA84
:1007C8000C0F02D150EA013613D195EA0C0F05D16E
:1007D80052EA03361CBF104619460AD181EA0301C2
:1007E80001F0004141F0FE4141F470014FF000007A
:1007F80070BD41F0FE4141F4780170BD70B54FF015
:10080800FF0C4CF4E06C1CEA11541DBF1CEA135594
:1008180094EA0C0F95EA0C0F00F0A7F8A4EB050476
:1008280081EA030E52EA03354FEA013100F088806D
:100838004FEA03334FF0805545EA131343EA126336
:100848004FEA022245EA111545EA10654FEA0026EB
:100858000EF000419D4208BF964244F1FD0404F5A4
:10086800407402D25B084FEA3202B61A65EB030500
:100878005B084FEA32024FF480104FF4002CB6EBBD
:10088800020E75EB030E22BFB61A754640EA0C003D
:100898005B084FEA3202B6EB020E75EB030E22BF7D
:1008A800B61A754640EA5C005B084FEA3202B6EBBE
:1008B800020E75EB030E22BFB61A754640EA9C007D
:1008C8005B084FEA3202B6EB020E75EB030E22BF4D
:1008D800B61A754640EADC0055EA060E18D04FEA0B
:1008E800051545EA16754FEA06164FEAC30343EAAB
:1008F80052734FEAC2025FEA1C1CC0D111F4801F78
:100908000BD141EA00014FF000004FF0004CB6E770
:1009180011F4801F04BF01430020B4F1FD0C88BF0F
:10092800BCF5E06F3FF6AFAEB5EB030C04BFB6EB1A
:10093800020C5FEA500C50F1000041EB045170BD0D
:100948000EF0004E4EEA113114EB5C04C2BFD4EB3A
:100958000C0541EA045170BD41F480114FF0000EBE
:10096800013C90E645EA060E8DE60CEA135594EA3A
:100978000C0F08BF95EA0C0F3FF43BAF94EA0C0F3D
:100988000AD150EA01347FF434AF95EA0C0F7FF4B2
:1009980025AF104619462CE795EA0C0F06D152EA06
:1009A80003353FF4FDAE1046194622E750EA4106EA
:1009B80018BF52EA43067FF4C5AE50EA41047FF4FB
:1009C8000DAF52EA43057FF4EBAE12E74FF0FF3C60
:1009D80006E000BF4FF0010C02E000BF4FF0010C31
:1009E8004DF804CD4FEA410C7FEA6C5C4FEA430CAA
:1009F80018BF7FEA6C5C1BD001B050EA410C0CBFF9
:100A080052EA430C91EA030F02BF90EA020F00205A
:100A1800704710F1000F91EA030F58BF994208BFC1
:100A280090422CBFD8176FEAE37040F0010070477E
:100A38004FEA410C7FEA6C5C02D150EA013C07D1D5
:100A48004FEA430C7FEA6C5CD6D152EA033CD3D020
:100A58005DF8040B704700BF8446104662468C461A
:100A68001946634600E000BF01B5FFF7B7FF00284D
:100A780048BF10F1000F01BD4DF808EDFFF7F4FF76
:100A88000CBF012000205DF808FB00BF4DF808ED01
:100A9800FFF7EAFF34BF012000205DF808FB00BF24
:100AA8004DF808EDFFF7E0FF94BF012000205DF846
:100AB80008FB00BF4DF808EDFFF7CEFF94BF0120FB
:100AC80000205DF808FB00BF4DF808EDFFF7C4FFF4
:100AD80034BF012000205DF808FB00BF4FEA410C3D
:100AE8007FEA6C5C02D150EA013C0AD14FEA430C20
:100AF8007FEA6C5C02D152EA033C02D14FF000005D
:100B080070474FF0010070474FEA410212F500129A
:100B180015D211D56FF47873B3EB625212D94FEA3C
:100B2800C12343F0004343EA505311F0004F23FA26
:100B380002F018BF404270474FF00000704750EA7B
:100B4800013005D111F0004008BF6FF00040704738
:100B58004FF00000704700BF4A0011D212F5001292
:100B680011D20DD56FF47873B3EB62520ED44FEAFD
:100B7800C12343F0004343EA505323FA02F070477D
:100B88004FF00000704750EA013002D14FF0FF30BB
:100B980070474FF00000704780B487B000AF7860AE
:100BA8007B68234A93420CD1224B9B69214A43F02C
:100BB800040393611F4B9B6903F004037B617B690A
:100BC80031E07B681C4A93420CD11A4B9B69194A45
:100BD80043F008039361174B9B6903F008033B61DB
:100BE8003B6920E07B68154A93420CD1114B9B6905
:100BF800104A43F0100393610E4B9B6903F01003F6
:100C0800FB60FB680FE07B680D4A93420BD1094BF0
:100C18009B69084A43F020039361064B9B6903F0E4
:100C28002003BB60BB6800BF1C37BD4680BC704753
:100C38000008014000100240000C01400010014073
:100C48000014014080B588B000AFF860B9607A60E0
:100C5800F868FFF7A1FF07F1100300221A605A6035
:100C68009A60DA60BB683B6101237B610023BB614A
:100C78007B68FB6107F110031946F86803F000F878
:100C8800BB689BB200221946F86803F08DF900BFD3
:100C98002037BD4680BD80B483B000AF786039602E
:100CA8003B6818460C37BD4680BC704780B483B09B
:100CB80000AF78600B46FB70FB7818460C37BD46D2
:100CC80080BC704780B483B000AF78600B467B80EF
:100CD8007B8818460C37BD4680BC704780B483B00B
:100CE80000AF78607B6800221A607B6818460C3772
:100CF800BD4680BC704780B485B000AFF860B9606D
:100D08007A60BB687A68B3FBF2F2796801FB02F299
:100D18009B1A18461437BD4680BC704780B483B010
:100D280000AF786039607B683A681A607B68002297
:100D38005A607B6818460C37BD4680BC704780B443
:100D480083B000AF78607B685B6818460C37BD4697
:100D580080BC704780B485B000AFF860B9607A6035
:100D68003B60FB68BA681A60FB687A685A60FB687F
:100D78003A689A60FB68BA69DA60FB683A7F83F878
:100D88005820FB6818461437BD4680BC704780B4AD
:100D980083B000AF786039607B681A683B681B686D
:100DA8009A4207D17B685A683B685B689A4201D1CE
:100DB800012300E0002318460C37BD4680BC70476D
:100DC80090B585B000AF786039603B681B681C46F9
:100DD8003B685B689AB207F1080311461846FFF7AB
:100DE80071FF03465C403B6893F8582007F10C03F9
:100DF80011461846FFF75AFF034663401846143752
:100E0800BD4690BD80B582B000AF7860786800F0CC
:100E1800D9F97B6818460837BD4680BD80B582B0D1
:100E280000AF78607868FFF7EDFF786800F0D4F9D4
:100E38007B6818460837BD4680BD80B582B000AFD4
:100E48007860786800F0DEF97B6818460837BD4698
:100E580080BD80B582B000AF7860786800F0C6F9D0
:100E68007B6818460837BD4680BD80B582B000AFA4
:100E780078607868FFF7E1FF7B6818460837BD4659
:100E880080BD80B582B000AF78607868FFF7C6FF94
:100E98007868FFF7DEFF7B6803F118027B681A6049
:100EA8007B6801225A607B6808331846FFF716FFF3
:100EB8007B680022DA607B6810334FF07E51184659
:100EC800FFF72CFF7B6800229A617B681846083779
:100ED800BD4680BD80B582B000AF78607B6818469B
:100EE800FFF7CFFF7B6818460837BD4680BD000076
:100EF80080B5B4B002AFF8607A603B600B467B8186
:100F08007A8907F1100097F8D03001933B68009375
:100F18007B68F968FFF71EFF7A8907F16C0097F87C
:100F2800D03001933B6800937B68F968FFF712FFA4
:100F380007F16C0207F110031946034800F080F925
:100F480000BFC837BD4680BDF401002080B582B01F
:100F580002AF0023009300234FF080420121914803
:100F6800FFF7C6FF0023009300238F4A01218D4815
:100F7800FFF7BEFF0023009304234FF080420221B5
:100F88008848FFF7B5FF002300930423864A02210F
:100F98008448FFF7ADFF0023009308234FF08042F9
:100FA80004218048FFF7A4FF0023009308237E4A0A
:100FB80004217C48FFF79CFF002300930C234FF08B
:100FC800804208217748FFF793FF002300930C2302
:100FD800754A08217348FFF78BFF0023009300230D
:100FE800724A40216F48FFF783FF002300930423D0
:100FF8006E4A80216B48FFF77BFF00230093002394
:101008006B4A4FF480716748FFF772FF0023009323
:101018000423674A4FF400716248FFF769FF002311
:1010280000930823624A4FF480615E48FFF760FF2F
:10103800002300930C235E4A4FF400615948FFF7E0
:1010480057FF0023009300234FF080424FF40041E4
:101058005448FFF74DFF002300930823534A01210A
:101068005448FFF745FF002300930C234F4A022101
:101078005048FFF73DFF0023009304234FF08042C0
:1010880008214C48FFF734FF002300930023474A08
:1010980010214848FFF72CFF002300930423434AFC
:1010A80020214448FFF724FF002300930023424AED
:1010B80040214048FFF71CFF0023009304233E4AC9
:1010C80080213C48FFF714FF0023009308233A4A85
:1010D8004FF480713748FFF70BFF002300930C2370
:1010E800354A4FF400713348FFF702FF002300939D
:1010F80008234FF080424FF480612E48FFF7F8FE36
:10110800002300930C234FF080424FF400612948DC
:10111800FFF7EEFE002300930023244A40212748CE
:10112800FFF7E6FE002300930023254A40212348C9
:10113800FFF7DEFE0023009304231C4A80211F488A
:10114800FFF7D6FE0023009304231D4A80211B4885
:10115800FFF7CEFE002300930823144A4FF4807152
:101168001648FFF7C5FE002300930823144A4FF4DE
:1011780080711248FFF7BCFE002300930C230B4A32
:101188004FF400710D48FFF7B3FE002300930C23C2
:101198000B4A4FF400710948FFF7AAFE00BFBD468D
:1011A80080BD00BF00080140000C00400004004062
:1011B800002C0140000C01400008004000100140D4
:1011C8000034014080B483B000AF78607B68184673
:1011D8000C37BD4680BC704780B483B000AF7860E0
:1011E8007B6818460C37BD4680BC704780B582B016
:1011F80000AF7860786800F059F87B6818460837BF
:10120800BD4680BD80B582B000AF7860786800F0D8
:1012180059F87B6818460837BD4680BD80B582B04E
:1012280000AF7860786800F057F8786800F074F8D4
:101238007868FFF71AFE7B6818460837BD4680BDF8
:10124800B0B584B000AFF860B9607A60FC68B8687F
:1012580000F072F80546786800F06EF803461A4602
:101268002946204600F072F8034618461037BD4656
:10127800B0BD80B483B000AF786039607B681A680D
:101288003B681B689A4214BF01230023DBB218464F
:101298000C37BD4680BC704780B483B000AF78601F
:1012A8007B6818460C37BD4680BC704780B582B055
:1012B80000AF7860786800F07EF87B6818460837D9
:1012C800BD4680BD80B483B000AF78607B681846A7
:1012D8000C37BD4680BC704780B582B000AF7860DF
:1012E800786800F072F803461946786800F078F8D4
:1012F8007B681A687B685B689B0010461A46002169
:1013080005F0A6FC7B680022DA607B6800229A6000
:1013180000BF0837BD4680BD80B582B000AF786099
:101328007B6819687B685B681A46786800F070F813
:1013380000BF0837BD4680BD80B483B000AF786079
:101348007B6818460C37BD4680BC7047B0B584B082
:1013580000AFF860B9607A60B868FFF7EDFF04463F
:101368007868FFF7E9FF034622462946F86800F047
:1013780066F8034618461037BD46B0BD80B582B042
:1013880000AF78607B681B68184600F077F8024663
:101398007B681A6000BF0837BD4680BD80B582B043
:1013A80000AF78607B68184600F073F8034618466B
:1013B8000837BD4680BD80B483B000AF78607B68D5
:1013C80018460C37BD4680BC704780B483B000AF68
:1013D80078607B689B6818460C37BD4680BC7047B0
:1013E80080B584B000AF7860396009E03B68FB6085
:1013F800386800F043F83860F968786800F055F804
:101408003B68002BF2D100BF00BF1037BD4680BD3E
:1014180080B584B000AFF860B9607A60B968F868E0
:1014280000F05EF80346002B05D17A68B968F868C1
:1014380000F06DF800E000BF1037BD4680BDF0B584
:1014480087B002AFF86039727A603B60F86800F0E4
:1014580081F804467868FFF76FFF05463868FFF79C
:101468006BFF034600932B4632462146F86800F08E
:1014780080F8034618461437BD46F0BD80B483B0E3
:1014880000AF78607B681B6818460C37BD4680BC87
:10149800704780B582B000AF7860786800F024F9B2
:1014A800034618460837BD4680BD90B583B000AFE7
:1014B80078603960786800F040F904463B68043386
:1014C8001846FFF76BFF03461946204600F041F91E
:1014D8003968786800F04AF900BF0C37BD4690BDFE
:1014E80080B483B000AF786039607B6818333A689D
:1014F8009A420CBF01230023DBB2002B14BF012347
:101508000023DBB218460C37BD4680BC704780B557
:1015180086B000AFF860B9607A60B86800F03CF94E
:101528007861F86800F009F9024607F110031146DE
:10153800184600F03DF907F110037A6879691846F2
:1015480000F04FF907F11003184600F03EF918377C
:10155800BD4680BD80B584B000AF786007F10C034C
:101568000021184600F04CF9FB6818461037BD46B4
:1015780080BD90B58DB000AFF860B9603A713B603E
:101588003868FFF7D9FE0446386CFFF7D5FE0346E6
:1015980007F120002246F96800F041F97B6A04331C
:1015A800184600F071F9024607F12803114618465B
:1015B80000F076F9F86207F11800FB6ABA68F96872
:1015C80000F07BF9B969FA697B6AF86800F00DFAEE
:1015D80003467B6100237B627C6907F12003184680
:1015E80000F03DF9234618463437BD4690BD80B417
:1015F80083B000AF78607B68DB6818460C37BD465F
:1016080080BC704780B500AF00F0A5FA03461846C5
:1016180080BD90B587B000AFF860B9607A60F868AF
:1016280000F0A0FA04467B68184600F044F8024629
:1016380007F114031146184600F049F803461A4604
:10164800B968204600F09AFA034618461C37BD468A
:1016580090BD80B582B000AF78603960786800F0DE
:101668009CFA034639681846FFF7AAFB0346184652
:101678000837BD4680BD80B582B000AF786039605C
:101688007B685B681A463968786800F092FA034606
:1016980018460837BD4680BD80B582B000AF786077
:1016A80039607B683968184600F028F87B68184666
:1016B8000837BD4680BD80B582B000AF78607868D5
:1016C80000F0CEFA034618460837BD4680BD80B5FF
:1016D80082B000AF78603960386800F0CEFA03460F
:1016E80018460837BD4680BD80B483B000AF786027
:1016F8007B6818460C37BD4680BC704780B483B001
:1017080000AF786039607B683A681A607B68184671
:101718000C37BD4680BC704780B582B000AF78609A
:1017280039607B685B681A463968786800F0AFFAF8
:10173800034618460837BD4680BD80B582B000AF65
:101748007860786800F0B7FA034618460837BD464F
:1017580080BD80B582B000AF78603960396878683C
:1017680000F0B3FA00BF0837BD4680BD80B584B02D
:1017780000AF78603960386800F0B1FAF8607868CE
:10178800FFF7DBFF03460122F968184600F0B3FAB9
:1017980000BF1037BD4680BD80B582B000AF78600D
:1017A800786800F0B7FA034618460837BD4680BD8A
:1017B80080B582B000AF78603960786800F0B6FA1A
:1017C8007B6818460837BD4680BD80B582B000AF3B
:1017D8007860786800F0B4FA7B6818460837BD4628
:1017E80080BD80B584B000AFF860B9607A607A686F
:1017F800B968F86800F0AEFA00BF1037BD4680BD82
:1018080080B582B000AF786039607B683968184667
:10181800FFF774FF7B6818460837BD4680BDB0B532
:1018280084B000AFF860B9607A603B60FB68BA6862
:101838001A60BC687868FFF77FFD05463868FFF7CF
:101848007BFD03461A462946204600F0A0FA0246C8
:10185800FB685A60FB6818461037BD46B0BD80B5B6
:1018680082B000AF78607B685B68002B07D07B682C
:101878001A687B685B6819461046FFF716FE7B6896
:1018880018460837BD4680BD80B582B000AF786085
:101898007868FFF783FD034618460837BD4680BDC4
:1018A80080B582B000AF78603960386800F0A7FA78
:1018B800034618460837BD4680BD90B58DB000AFC9
:1018C800F860B9607A603B60B868FFF790FE04463C
:1018D800FFF798FE03469C4294BF01230023DBB226
:1018E800002B71D0B868FFF735FE0346FB6107F19E
:1018F8001C023B1D11461846FFF7BBFC0346002B94
:1019080032D07B68BB611FE0BB6904331A46396873
:10191800B868FFF77EFE0346002B10D0BB6904337E
:101928001946B86800F082FA03463B6207F12002C4
:1019380007F118031946F86800F085FA51E007F135
:101948001803184600F065FAB868FFF703FE034667
:101958007B6207F1240207F1180311461846FFF7C6
:1019680088FC0346002BCFD1B86800F085FA0346FF
:101978007B611FE07B6904331A463968B868FFF752
:1019880048FE0346002B10D07B6904331946B8681B
:1019980000F04CFA0346BB6207F1280207F1140372
:1019A8001946F86800F04FFA1BE007F114031846CF
:1019B80000F02FFA3A1D07F1140311461846FFF7F5
:1019C80058FC0346002BD5D13968B868FFF741FEAB
:1019D8000346FB6207F12C023B1D1946F86800F02C
:1019E80032FAF8683437BD4690BD90B591B002AF71
:1019F800F860B9607A603B60FB6810331846FFF7FF
:101A08009EF90346BB6107F118037B63FB6803F18A
:101A18001001FB685A68FB68DB6807F110000124B5
:101A2800009404F0D3F93B7C002B05D07B697A6BDA
:101A38001946F86800F033FA3B68BC337A681946EF
:101A4800F86800F03BFA3B6804331846FFF71CFFC0
:101A5800024607F11C0311461846FFF721FF3863B9
:101A68007968F868FFF707FEF862BB68002B14BFB7
:101A780001230023DBB2002B0CD0BB6804337A6847
:101A8800396BF86800F028FA034683F00103DBB2EB
:101A9800002B07D07B683A6BF96AF86800F09BF86E
:101AA800034600E0BB68BB62BB6A002B3ED0BB6A42
:101AB8001A683B681A60BB6A3A681A60BA6ABB68F7
:101AC8009A420CBF01230023DBB2002B33D03B68C2
:101AD8001B68002B11D03868FFF7D0FC034604338D
:101AE8007A68396BF86800F0F7F9034683F0010368
:101AF800DBB2002B01D0012300E00023002B1AD019
:101B08003868FFF7BBFC034604331946F868FFF74B
:101B180003FE78627A6AFB6A9A420CD0FB681A68FC
:101B28007B6A9B0013443A681A6004E03A68F96AD1
:101B3800F86800F0F0F9FB68DB685A1CFB68DA60AB
:101B480007F1200339681846FFF7A6FD3B6A1846D7
:101B58003C37BD4690BD80B400AF00231846BD4653
:101B680080BC704780B582B000AF7860786800F0BC
:101B780019FA034618460837BD4680BD80B584B0BB
:101B880000AFF860B9607A607968B868FFF7FFF865
:101B9800034618461037BD4680BD80B582B000AFF9
:101BA8007860786800F008FA034618460837BD469A
:101BB80080BD80B586B000AFF860B9607A6007F183
:101BC80014037A68B9681846FFF795F8034618466B
:101BD8001837BD4680BD80B586B000AFF860B960E3
:101BE8007A603B60FB681A68BB689B0013441B68FB
:101BF8007B617B69002B01D100232DE07B691B6889
:101C08003B613B6904333A687968F86800F064F925
:101C18000346002B01D07B691EE03B691B68002B43
:101C28000CD03869FFF72AFC034604331946F868D4
:101C3800FFF772FD0246BB68934201D0012300E022
:101C48000023002B06D13B697B613869FFF716FC3E
:101C58003861D6E700BF002318461837BD4680BD57
:101C680080B582B000AF78607B68184600F0AEF9A6
:101C7800034618460837BD4680BD80B483B000AF20
:101C880078607B6818460C37BD4680BC704780B5C5
:101C980086B000AFF860B9607A60BB68D3F8B81056
:101CA80007F114037A681846FFF725F80346184623
:101CB8001837BD4680BD80B483B000AF78607B68BC
:101CC80018460C37BD4680BC704780B483B000AF5F
:101CD8007860396000BF0C37BD4680BC704780B55E
:101CE80082B000AF7860786800F07CF90346184647
:101CF8000837BD4680BD80B584B000AFF860B960D4
:101D08007A607A68B968F86800F078F900BF103727
:101D1800BD4680BD80B582B000AF7860786800F0BD
:101D280080F9034618460837BD4680BD80B483B0A5
:101D380000AF78607B6818460C37BD4680BC70479A
:101D480080B483B000AF78607B6818460C37BD4616
:101D580080BC704780B584B000AFF860B9607A6025
:101D68007B689B001946B86803F0D6FF00BF1037A0
:101D7800BD4680BD80B582B000AF78607B681846EC
:101D8800FEF7ACFF7B6818460837BD4680BDF0B546
:101D980087B000AFF860B9607A60F868FFF7CDFCEB
:101DA80003460121184600F046F97861786900F089
:101DB80051F938613B691946C020FEF76CFF0346AC
:101DC8001846FFF7D7FFF868FFF7B7FC04463B69EA
:101DD80004331846FFF7E2FA0546B868FFF7ACFA8D
:101DE80006467868FFF7A8FA034632462946204691
:101DF80000F03AF93B6918461C37BD46F0BD80B47F
:101E080083B000AF78607B6818460C37BD4680BC4D
:101E1800704780B582B000AF78607B681846FFF7DE
:101E2800ADFA7B6818460837BD4680BD80B483B0DC
:101E380000AF786039603B68D3F8B83018460C3783
:101E4800BD4680BC704780B584B000AFF860B9600B
:101E58007A60B86800F020F90246FB6812681A60D8
:101E68007868FFF719FA03461A68FB685A60FB6836
:101E780018461037BD4680BD80B584B000AF786085
:101E88007868FFF7A2FA024607F10C0311461846D4
:101E9800FFF7B6FCFB6818461037BD4680BD80B515
:101EA80084B000AFF860B9607A601A46B968F8681B
:101EB80000F0FCF800BF1037BD4680BD80B485B087
:101EC80000AFF860B9607A60BB687A681A6000BFD2
:101ED8001437BD4680BC704780B584B000AFF86049
:101EE800B9607A603B603B68B8331946786800F09F
:101EF8009BF90346002B09D03A68B968F868FFF7E0
:101F080088FB0346002B01D0012300E0002318467C
:101F18001037BD4680BD90B585B000AFF860B96098
:101F28007A60FB681A68BB689B0013441B68002B27
:101F380011D0FB681A68BB689B0013441B681A68B9
:101F48007B681A60FB681A68BB689B0013441B68AF
:101F58007A681A6022E0FB689A687B681A60FB68F6
:101F68007A689A607B681B68002B0FD0FB681C6836
:101F78007868FFF783FA034604331946F868FFF7D1
:101F8800CBFB03469B0023447A681A60FB681A68F7
:101F9800BB689B001344FA6808321A6000BF143704
:101FA800BD4690BD80B483B000AF78607B681846AA
:101FB8000C37BD4680BC704780B483B000AF7860F2
:101FC8007B6818460C37BD4680BC704780B582B028
:101FD80000AF7860786800F039F90346184608378A
:101FE800BD4680BD80B582B000AF7860786800F0EB
:101FF80037F9034618460837BD4680BD80B584B01A
:1020080000AFF860B9607A607A6813465B001344E1
:102018009B011946B86803F07FFE00BF1037BD4624
:1020280080BD80B483B000AF78607B6818460C37F9
:10203800BD4680BC704780B582B000AF786039601B
:1020480000223968786800F015F903461846083701
:10205800BD4680BD80B483B000AF78607B68184609
:102068000C37BD4680BC704790B585B000AFF860AE
:10207800B9607A603B607868FFF75EF904463868B3
:10208800FFF75AF903462246B968F86800F020F9C4
:1020980000BF1437BD4690BD80B483B000AF7860F0
:1020A8007B6818460C37BD4680BC704780B58EB03B
:1020B80000AFF860B9603A71B968F86800F026F9BD
:1020C8003862F868FFF781F97863FB6800229A6044
:1020D80000233B630023FB620023BB62002387F8D5
:1020E800273074E0786BFFF7C9F9B8617B6B04336C
:1020F800BA681946F868FFF7CAFD7861BB6A002B11
:102108000ED0FA6A7B699A420AD1BB6A1A687B6B5D
:102118001A60BB6A7A6B1A60012387F8273050E08F
:1021280097F82730002B1BD0BB6A1B68002B14D0F4
:10213800B86AFFF7A3F903460433BA681946F86882
:10214800FFF7A5FD38613A69FB6A9A4205D03B69F9
:102158009B003A6A1344BA6A1A60002387F827304A
:102168007B699B003A6A13441B68002B1AD1FB68F1
:102178009A687B6B1A60FB687A6B9A607B699B0034
:102188003A6A1344FA6808321A607B6B1B68002BA2
:1021980005D03B6B9B003A6A13447A6B1A607B69E3
:1021A8003B630EE07B699B003A6A13441B681A681C
:1021B8007B6B1A607B699B003A6A13441B687A6BD5
:1021C8001A607B6BBB627B69FB62BB697B637B6B61
:1021D800002B87D197F82730002B18D0BB6A1B68D3
:1021E800002B14D0B86AFFF749F903460433BA68DC
:1021F8001946F868FFF74BFDF861FA69FB6A9A42DD
:1022080005D0FB699B003A6A1344BA6A1A60F868F9
:10221800FFF782F8FB68BA685A60FB683A6A1A6086
:1022280000BF3837BD4680BD80B483B000AF78604A
:1022380039603B681B687A689A420CBF0123002307
:10224800DBB218460C37BD4680BC704780B483B0FB
:1022580000AF78607B6818460C37BD4680BC704775
:1022680080B483B000AF78607B6818460C37BD46F1
:1022780080BC704780B584B000AFF860B9607A6000
:10228800F86800F061F80246BB6893428CBF0123EE
:102298000023DBB2002B14BF01230023DBB2002B89
:1022A80007D0BB68094A934201D903F04BFD03F0FC
:1022B80046FDBA6813465B0013449B01184603F0B9
:1022C8002DFD034618461037BD4680BD55555501AE
:1022D800B0B584B000AFF860B9607A603B60BB68A5
:1022E8001946B820FEF7D7FC04467868FFF724F8AB
:1022F80005463868FFF720F803461A46294620465F
:1023080000F02EF800BF1037BD46B0BD80B582B0D2
:1023180000AF786039603B68012B0CBF01230023B4
:10232800DBB2002B05D07B6800229A617B681833EA
:1023380005E03968786800F034F8034600BF1846AD
:102348000837BD4680BD000080B483B000AF786018
:10235800024B18460C37BD4680BC7047AAAAAA0093
:1023680080B584B000AFF860B9607A60B868FEF7ED
:10237800E3FF0246FB68184611465C231A4604F040
:1023880048FD7868FEF7D8FF0246FB685C331146C3
:102398005C22184604F03DFDFB6818461037BD4620
:1023A80080BD90B587B000AF786039607868FFF776
:1023B800C4F9024607F10C0311461846FFF7F8F96D
:1023C80007F10C033968184600F018F87861786945
:1023D80000F023F838613B689B003A6910461A46BA
:1023E800002104F035FC3C6907F10C031846FFF79F
:1023F800ECF9234618461C37BD4690BD80B582B01F
:1024080000AF7860396000223968786800F00FF80A
:10241800034618460837BD4680BD80B483B000AF78
:1024280078607B6818460C37BD4680BC704780B51D
:1024380084B000AFF860B9607A60F86800F020F8FE
:102448000246BB6893428CBF01230023DBB2002BFA
:1024580014BF01230023DBB2002B07D0BB68B3F104
:10246800804F01D303F06EFC03F069FCBB689B004E
:10247800184603F053FC034618461037BD4680BD86
:1024880080B483B000AF78606FF0604318460C37B3
:10249800BD4680BC704780B582B000AF78607B686D
:1024A8001846FEF7BBFE7B6818460837BD4680BD58
:1024B80080B582B000AF786039607B68012B07D1A6
:1024C8003B684FF6FF72934202D10948FEF702FDBE
:1024D8007B68002B07D13B684FF6FF72934202D10D
:1024E8000348FFF7D8FF00BF0837BD4680BD00BFCF
:1024F800F401002080B500AF4FF6FF710120FFF70F
:10250800D7FF80BD80B500AF4FF6FF710020FFF701
:10251800CFFF80BD80B483B000AF78607B681B6854
:10252800064A934204D1064B1B680133044A1360E0
:1025380000BF0C37BD4680BC704700BF001000408C
:102548001002002080B485B000AFF860B9607A60EE
:102558007B80FB68BA681A60FB687A685A60FB6817
:102568007A881A81FB683A7E9A72FB681846143793
:10257800BD4680BC704700000FB480B582B000AF84
:10258800144B1B78002B1ED1134B1B7883F00103CF
:10259800DBB2002B17D0114B1B78002B13D007F19F
:1025A80014037B607B683A69FA210D4804F042FB0A
:1025B80001220C490C4802F0F2FD084B00221A7067
:1025C800044B02221A7000BF0837BD46BDE88040A0
:1025D80004B070472C0200202A03002002000020CB
:1025E80030020020000000204405002080B584B09F
:1025F80000AF224B1B78002B21D0214B1B78002BDE
:102608001DD021233B703B4601330C221D4918463F
:1026180004F0FFFB394664230D221B4802F034FD09
:102628000346002B14BF01230023DBB2002B01D08B
:1026380000F08CFC114B00221A7000BF1AE001F068
:10264800A1F80246114B1B68D31A40F22B12934291
:102658008CBF01230023DBB2002B0BD010210C48C8
:1026680001F0BAFC054B01221A7001F08BF8034601
:10267800064A136000BF1037BD4680BD2A030020FC
:102688000200002014020020440500202C03002032
:10269800000C014080B582B000AF154B1B78002BB1
:1026A80010D16423FB71124B01221A7001F06AF8F1
:1026B8000346104A1360FB1D012219460E4802F01A
:1026C8006EFD11E001F05EF802460A4B1B68D31A52
:1026D80040F2DB5293428CBF01230023DBB2002B74
:1026E80002D0034B00221A7000BF0837BD4680BDD8
:1026F800300300203C0300206C04002080B582B029
:1027080000AF78607B681A68384B1B689A4245D1DD
:10271800374B1B78032B41D801A252F823F000BF96
:102728008527000839270008512700086D27000869
:10273800304B00221A702E4B00221A700C222E49A0
:102748002A4802F02CFD29E0294B03221A702B4855
:10275800FDF766FD03469BB21A462849234802F056
:102768001EFD1BE0234B01221A70214B00221A7018
:10277800012223491D4802F012FD0FE01D4B1B7872
:10278800002B05D001221F49184802F03DFD04E046
:102798000C221D49154802F037FD00BF7B681A68F6
:1027A8001A4B1B689A4204D102221949786802F030
:1027B8002BFD7B681A68174B1B689A4212D1164B7F
:1027C8001B78012B07D101221449124802F01CFD85
:1027D800114B02221A70104B1B78042B02D10E4B9E
:1027E80000221A7000BF0837BD4680BD440500208E
:1027F8002C02002048030020140200203002002090
:102808000100002002000020200200206C040020AB
:1028180032030020B40400204003002044030020B9
:1028280080B582B000AF78607B681A68394B1B6846
:102838009A4202D1384B01221A707B681A68374BCA
:102848001B689A423ED1364B1B78052B3AD801A219
:1028580052F823F0C52800087528000887280008C2
:1028680099280008AB280008BD2800082C4B022234
:102878001A7002222B49786802F0C6FC22E0284B25
:1028880003221A7002222849786802F0BDFC19E078
:10289800234B04221A7002222449786802F0B4FCFF
:1028A80010E01F4B05221A7002222149786802F0B5
:1028B800ABFC07E01A4B00221A7003E0164B01220A
:1028C8001A7000BF7B681A681A4B1B689A421DD1A0
:1028D800194B1B78022B07D101221849154802F021
:1028E80093FC154B03221A70134B1B78032B0DD145
:1028F800134B1B781B021AB2114B5B781BB21343A4
:102908001AB2104B1A800C4B00221A7000BF0837FD
:10291800BD4680BD44050020020000206C04002054
:102928003003002034030020360300203803002041
:102938003A030020B404002040030020450300208F
:10294800440300204603002080B584B002AF7860BD
:1029580039607B68012B16D13B684FF6FF729342B2
:1029680011D1002300930023094A0A490A48FFF7B6
:10297800E9FD0023009300234FF000024FF000010F
:102988000648FFF7DFFD00BF0837BD4680BD00BF22
:102998000000A04000002041140200202002002076
:1029A80080B500AF4FF6FF710120FFF7CDFF80BD66
:1029B80080B582B000AF00F08DFE00F033F800F073
:1029C80075FA00F045FA00F0B9F900F0E5F900F001
:1029D80079F800F0D5F800F00DFA00F02FF900F0C2
:1029E8006DF9FEF7B3FA032210210B48FEF72AF916
:1029F8003C210A4802F02DF8FFF7F8FDFFF74AFEE0
:102A0800064B1B685B6AFB80FB8819460448FFF786
:102A1800B3FD00BFF0E700BF000C014094030020A5
:102A2800988C000880B590B000AF07F118032822F1
:102A38000021184604F00CF93B1D00221A605A6068
:102A48009A60DA601A610123BB614FF48033FB613D
:102A580000233B620123BB6202237B634FF4803374
:102A6800BB634FF4E013FB6307F11803184601F04A
:102A7800EFFA0346002B14BF01230023DBB2002B1F
:102A880001D000F063FA0F237B600223BB600023B0
:102A9800FB604FF480633B6100237B613B1D022197
:102AA800184601F057FD0346002B14BF01230023ED
:102AB800DBB2002B01D000F049FA00BF4037BD4619
:102AC80080BD000080B58CB000AF07F10C03242254
:102AD8000021184604F0BCF83B1D00221A605A6019
:102AE800264B4FF080421A60244B00225A60234B39
:102AF80000229A60214B4FF6FF72DA601F4B0022CA
:102B08001A611E4B00229A610323FB6000233B617C
:102B180001237B610023BB610023FB6100233B622F
:102B280001237B620023BB620023FB6207F10C03D5
:102B38001946124801F0EBFE0346002B14BF01238F
:102B48000023DBB2002B01D000F000FA00237B60E9
:102B58000023BB603B1D1946084802F0C7F903462D
:102B6800002B14BF01230023DBB2002B01D000F09F
:102B7800EDF900BF3037BD4680BD00BF4C030020D3
:102B880080B58CB000AF07F10C0324220021184651
:102B980004F05EF83B1D00221A605A60254B264A55
:102BA8001A60244B00225A60224B00229A60214B63
:102BB8004FF6FF72DA601F4B00221A611D4B00228C
:102BC8009A610323FB6000233B6101237B6100239F
:102BD800BB610023FB6100233B6201237B6200236E
:102BE800BB620023FB6207F10C031946114801F090
:102BF8008EFE0346002B14BF01230023DBB2002BFB
:102C080001D000F0A3F900237B600023BB603B1DCB
:102C18001946084802F06AF90346002B14BF01233D
:102C28000023DBB2002B01D000F090F900BF303751
:102C3800BD4680BD94030020000C004080B582B0E2
:102C480000AF3B4600221A605A601A4B1A4A1A60B3
:102C5800184B41F61F425A60164B00229A60154BDA
:102C68000922DA60134B00229A61124801F000FE33
:102C78000346002B14BF01230023DBB2002B01D035
:102C880000F064F900233B6000237B603B46194653
:102C9800084802F02BF90346002B14BF0123002338
:102CA800DBB2002B01D000F051F900BF0837BD4658
:102CB80080BD00BFDC0300200010004080B582B05A
:102CC80000AF3B4600221A605A601A4B1A4A1A6033
:102CD800184B41F61F425A60164B00229A60154B5A
:102CE8006322DA60134B00229A61124801F0C0FD9A
:102CF8000346002B14BF01230023DBB2002B01D0B5
:102D080000F024F900233B6000237B603B46194612
:102D1800084802F0EBF80346002B14BF01230023F8
:102D2800DBB2002B01D000F011F900BF0837BD4617
:102D380080BD00BF240400200014004080B500AF0F
:102D4800134B144A1A60124B4FF4E1325A60104B7D
:102D580000229A600E4B0022DA600D4B00221A61A5
:102D68000B4B0C225A610A4B00229A61084B002235
:102D7800DA61074802F038F90346002B14BF012333
:102D88000023DBB2002B01D000F0E0F800BF80BDCB
:102D98006C040020004C004080B500AF134B144A6F
:102DA8001A60124B4FF4E1325A60104B00229A60BD
:102DB8000E4B0022DA600D4B00221A610B4B0C22DD
:102DC8005A610A4B00229A61084B0022DA610748CF
:102DD80002F00AF90346002B14BF01230023DBB2DB
:102DE800002B01D000F0B2F800BF80BDB404002071
:102DF8000050004080B500AF134B144A1A60124BC4
:102E08004FF4E1325A60104B00229A600E4B0022B8
:102E1800DA600D4B00221A610B4B0C225A610A4BE7
:102E280000229A61084B0022DA61074802F0DCF8B8
:102E38000346002B14BF01230023DBB2002B01D073
:102E480000F084F800BF80BDFC040020004400406E
:102E580080B500AF134B144A1A60124B4FF4E1329D
:102E68005A60104B00229A600E4B0022DA600D4B1C
:102E780000221A610B4B0C225A610A4B00229A61FC
:102E8800084B0022DA61074802F0AEF80346002B2F
:102E980014BF01230023DBB2002B01D000F056F849
:102EA80000BF80BD440500200048004080B588B0C0
:102EB80000AF07F1100300221A605A609A60DA60C6
:102EC8001F4B9B691E4A43F0200393611C4B9B696F
:102ED80003F02003FB60FB68194B9B69184A43F019
:102EE80004039361164B9B6903F00403BB60BB6842
:102EF800134B9B69124A43F008039361104B9B697B
:102F080003F008037B607B680D4B9B690C4A43F018
:102F1800100393610A4B9B6903F010033B603B6805
:102F280030233B61074B7B610023BB6107F1100332
:102F38001946054800F0A4FE00BF2037BD4680BDF5
:102F480000100240000011100008014080B584B054
:102F580000AF3B4600221A605A609A60DA6020236C
:102F68003B6001237B600023BB600323FB603B467F
:102F780019460A4800F084FE01222021074801F082
:102F880013F8642000F008FC00222021034801F017
:102F98000BF8642000F000FC00BFEDE700100140D2
:102FA80080B485B000AF154B9B69144A43F0010308
:102FB8009361124B9B6903F00103BB60BB680F4B25
:102FC800DB690E4A43F08053D3610C4BDB6903F095
:102FD80080537B607B680A4B5B68FB60FB6823F06F
:102FE800E063FB60FB6843F00073FB60044AFB6826
:102FF800536000BF1437BD4680BC704700100240C4
:103008000000014080B58CB000AF786007F11C0368
:1030180000221A605A609A60DA607B681B68B3F114
:10302800804F4FD13E4BDB693D4A43F00103D361EA
:103038003B4BDB6903F00103BB61BB69384B9B6900
:10304800374A43F004039361354B9B6903F004034B
:103058007B617B69324B9B69314A43F0080393617A
:103068002F4B9B6903F008033B613B694FF4004316
:10307800FB6100233B6201237B6207F11C031946B5
:10308800284800F0FDFD0823FB6100233B62012373
:103098007B6207F11C031946234800F0F1FD234B1E
:1030A8005B68FB62FB6A23F44073FB62FB6A43F0D4
:1030B800E063FB62FB6A43F48073FB621B4AFB6AB2
:1030C800536028E07B681B68194A934223D1144B4C
:1030D800DB69134A43F00803D361114BDB6903F042
:1030E8000803FB60FB680E4B9B690D4A43F0040321
:1030F80093610B4B9B6903F00403BB60BB6803231C
:10310800FB6100233B6201237B6207F11C03194624
:10311800044800F0B5FD00BF3037BD4680BD00BF94
:103128000010024000080140000C0140000001406E
:10313800000C004080B584B000AF78607B681B68E5
:103148001A4A934214D11A4BDB69194A43F0100307
:10315800D361174BDB6903F01003FB60FB680022A7
:103168000021362000F013FC362000F02CFC18E07B
:103178007B681B680F4A934213D10D4BDB690C4ADD
:1031880043F02003D3610A4BDB6903F02003BB60E3
:10319800BB6800220021372000F0F9FB372000F03F
:1031A80012FC00BF1037BD4680BD00BF00100040B4
:1031B800001002400014004080B590B000AF786065
:1031C80007F1300300221A605A609A60DA607B685F
:1031D8001B68854A93423AD1844BDB69834A43F49E
:1031E8000023D361814BDB6903F40023FB62FB6A94
:1031F8007E4B9B697D4A43F0100393617B4B9B692F
:1032080003F01003BB62BB6A4FF480633B63022385
:103218007B630323FB6307F130031946744800F00E
:103228002FFD4FF400633B6300237B630123BB63E3
:1032380007F1300319466E4800F022FD00220021F4
:10324800342000F0A4FB342000F0BDFBC7E07B680D
:103258001B68684A934245D1644BDB69634A43F46F
:103268008013D361614BDB6903F480137B627B6A53
:103278005E4B9B695D4A43F0100393615B4B9B690E
:1032880003F010033B623B6A584B9B69574A43F073
:1032980020039361554B9B6903F02003FB61FB6995
:1032A8004FF480533B6302237B630323FB6307F1E3
:1032B800300319464E4800F0E3FC04233B63002327
:1032C8007B630123BB6307F1300319464A4800F0CA
:1032D800D7FC00220021352000F059FB352000F0F2
:1032E80072FB7CE07B681B68444A934238D13F4BB1
:1032F800DB693E4A43F40033D3613C4BDB6903F49A
:103308000033BB61BB69394B9B69384A43F00403FE
:103318009361364B9B6903F004037B617B6904234B
:103328003B6302237B630323FB6307F130031946E6
:10333800334800F0A5FC08233B6300237B6300238C
:10334800BB6307F1300319462D4800F099FC0022B1
:103358000021262000F01BFB262000F034FB3EE075
:103368007B681B68274A934239D1204BDB691F4A87
:1033780043F48023D3611D4BDB6903F480233B6155
:103388003B691A4B9B69194A43F008039361174B31
:103398009B6903F00803FB60FB684FF480633B63A1
:1033A80002237B630323FB6307F1300319461648A6
:1033B80000F066FC4FF400633B6300237B6300234B
:1033C800BB6307F1300319460F4800F059FC00228F
:1033D8000021272000F0DBFA272000F0F4FA00BFD4
:1033E8004037BD4680BD00BF004C00400010024081
:1033F800001001400050004000140140004400400B
:103408000008014000480040000C014080B400AFB3
:1034180000BFFDE780B400AF00BFFDE780B400AF98
:1034280000BFFDE780B400AF00BFFDE780B400AF88
:1034380000BFFDE780B400AF00BFBD4680BC704749
:1034480080B400AF00BFBD4680BC704780B400AFF9
:1034580000BFBD4680BC704780B500AF00F080F962
:1034680000BF80BD80B500AF102000F0CFFD00BFC9
:1034780080BD80B500AF202000F0C8FD00BF80BD32
:1034880080B500AF024801F0E5FE00BF80BD00BF77
:10349800FC04002080B500AF024801F0DBFE00BF4D
:1034A80080BD00BF4405002080B500AF024801F090
:1034B800D1FE00BF80BD00BF6C04002080B500AF06
:1034C800024801F0C7FE00BF80BD00BFB404002061
:1034D80080B500AF024801F04AFB00BF80BD00BFC5
:1034E800DC03002080B500AF024801F040FB00BFBC
:1034F80080BD00BF2404002080B400AF012318461B
:10350800BD4680BC704780B582B000AF7860396036
:1035180003F044FC034616221A604FF0FF331846A6
:103528000837BD4680BD80B582B000AF78604FF0E7
:10353800FF317868FFF7E7FF00BFFDE780B586B089
:1035480000AFF860B9607A6000237B610AE0AFF3EE
:1035580000800146BB685A1CBA60CAB21A707B69FF
:1035680001337B617A697B689A42F0DB7B68184695
:103578001837BD4680BD80B586B000AFF860B96029
:103588007A6000237B6109E0BB685A1CBA601B782B
:103598001846AFF300807B6901337B617A697B68E9
:1035A8009A42F1DB7B6818461837BD4680BD80B467
:1035B80083B000AF78604FF0FF3318460C37BD4634
:1035C80080BC704780B483B000AF786039603B68D6
:1035D8004FF400525A60002318460C37BD4680BC91
:1035E800704780B483B000AF7860012318460C3769
:1035F800BD4680BC704780B485B000AFF860B96044
:103608007A60002318461437BD4680BC7047000016
:1036180080B586B000AF7860144A154BD31A7B6129
:103628007B693B61134B1B68002B02D1114B124A7B
:103638001A60104B1A687B6813443A699A4207D299
:1036480003F0ACFB03460C221A604FF0FF3309E08D
:10365800084B1B68FB60074B1A687B681344054AD4
:103668001360FB6818461837BD4680BD00C00020AF
:10367800000400008C050020E806002080B400AF9C
:1036880000BFBD4680BC7047FFF7F8FF0B480C49E8
:103698000C4A002302E0D458C4500433C4188C42A6
:1036A800F9D3094A094C002301E013600432A2420D
:1036B800FBD303F079FBFFF77BF97047000000208C
:1036C800D801002074940008D8010020E4060020E6
:1036D800FEE7000080B500AF084B1B68074A43F0BF
:1036E80010031360032000F047F9022000F008F8E7
:1036F800FFF756FC0023184680BD00BF002002409B
:1037080080B582B000AF7860124B1A68124B1B78F4
:1037180019464FF47A73B3FBF1F3B2FBF3F318468F
:1037280000F05FF90346002B01D001230EE07B680F
:103738000F2B0AD8002279684FF0FF3000F027F9E4
:10374800064A7B681360002300E001231846083707
:10375800BD4680BD040000200C00002008000020A9
:1037680080B400AF054B1B781A46054B1B68134401
:10377800034A136000BFBD4680BC70470C000020A0
:103788009005002080B400AF024B1B681846BD4668
:1037980080BC70479005002080B584B000AF786089
:1037A800FFF7F0FFB8607B68FB60FB68B3F1FF3F91
:1037B80005D00A4B1B781A46FB681344FB6000BF10
:1037C800FFF7E0FF0246BB68D31AFA689A42F7D8B7
:1037D80000BF00BF1037BD4680BD00BF0C000020F1
:1037E80080B485B000AF78607B6803F00703FB60A6
:1037F8000C4BDB68BB60BA684FF6FF031340BB6035
:10380800FB681A02BB68134343F0BF6343F40033F9
:10381800BB60044ABB68D36000BF1437BD4680BC98
:10382800704700BF00ED00E080B400AF044BDB68D8
:103838001B0A03F007031846BD4680BC704700BF4B
:1038480000ED00E080B483B000AF0346FB7197F948
:103858000730002B0BDBFB7903F01F02064997F9B1
:1038680007305B09012000FA02F241F8232000BF6B
:103878000C37BD4680BC704700E100E080B483B0DF
:1038880000AF03463960FB7197F90730002B0ADB5C
:103898003B68DAB20C4997F907301201D2B20B44EF
:1038A80083F800230AE03B68DAB20849FB7903F0A1
:1038B8000F03043B1201D2B20B441A7600BF0C3737
:1038C800BD4680BC704700BF00E100E000ED00E0AD
:1038D80080B489B000AFF860B9607A60FB6803F023
:1038E8000703FB61FB69C3F10703042B28BF04230B
:1038F800BB61FB690433062B02D9FB69033B00E07B
:1039080000237B614FF0FF32BB6902FA03F3DA430D
:10391800BB681A407B699A404FF0FF317B6901FA16
:1039280003F3D9437B680B40134318462437BD463D
:1039380080BC704780B582B000AF78607B68013B7F
:10394800B3F1807F01D301230FE00A4A7B68013B72
:1039580053600F214FF0FF30FFF790FF054B002217
:103968009A60044B07221A60002318460837BD46A0
:1039780080BD00BF10E000E080B582B000AF786085
:103988007868FFF72DFF00BF0837BD4680BD80B5BA
:1039980086B000AF0346B9607A60FB7300237B6191
:1039A800FFF742FF78617A68B9687869FFF790FF96
:1039B800024697F90F3011461846FFF75FFF00BF20
:1039C8001837BD4680BD80B582B000AF0346FB7195
:1039D80097F907301846FFF735FF00BF0837BD468F
:1039E80080BD80B582B000AF78607868FFF7A2FF2D
:1039F800034618460837BD4680BD80B485B000AF81
:103A080078600023FB737B6893F82130DBB2022BCC
:103A180008D07B6804229A637B68002283F8202000
:103A2800012320E07B681B681A687B681B6822F00A
:103A38000E021A607B681B681A687B681B6822F094
:103A480001021A607B681A6C7B68DB6B012101FA42
:103A580002F25A607B68012283F821207B680022E9
:103A680083F82020FB7B18461437BD4680BC70477E
:103A780080B584B000AF78600023FB737B6893F84F
:103A88002130DBB2022B05D07B6804229A63012324
:103A9800FB73D6E07B681B681A687B681B6822F09A
:103AA8000E021A607B681B681A687B681B6822F024
:103AB80001021A607B681B681A46644B9A4258D9FF
:103AC8007B681B68624A93424FD07B681B68614AD7
:103AD800934248D07B681B685F4A934240D07B681A
:103AE8001B685E4A934238D07B681B685C4A9342E5
:103AF80030D07B681B685B4A934228D07B681B6880
:103B0800524A934220D07B681B68574A934219D087
:103B18007B681B68554A934212D07B681B68544ADD
:103B280093420AD07B681B68524A934202D14FF4F1
:103B380080531BE04FF4803318E04FF4807315E096
:103B4800102313E0012311E04FF080730EE04FF4CF
:103B580080130BE04FF4803308E04FF4805305E006
:103B68004FF4807302E0102300E00123424A5360BF
:103B780057E07B681B68364A93424FD07B681B68C6
:103B8800344A934248D07B681B68334A934240D0FA
:103B98007B681B68314A934238D07B681B68304A7F
:103BA800934230D07B681B682E4A934228D07B68AA
:103BB8001B68264A934220D07B681B682A4A934296
:103BC80019D07B681B68294A934212D07B681B680E
:103BD800274A93420AD07B681B68264A934202D13F
:103BE8004FF480531BE04FF4803318E04FF4807398
:103BF80015E0102313E0012311E04FF080730EE06D
:103C08004FF480130BE04FF4803308E04FF48053F7
:103C180005E04FF4807302E0102300E00123174A07
:103C280053607B68012283F821207B68002283F897
:103C380020207B685B6B002B03D07B685B6B78680C
:103C48009847FB7B18461037BD4680BD8000024070
:103C5800080002401C0002403000024044000240BC
:103C6800580002406C000240080402401C04024054
:103C780030040240440402400004024000000240B4
:103C880080B48BB000AF7860396000237B6200237A
:103C98003B6279E101227B6A02FA03F3FB613B682C
:103CA8001B68FA691340BB61BA69FB699A4240F024
:103CB80068813B685B68964A93425ED0944A934217
:103CC80075D8944A934258D0924A93426FD8924AF0
:103CD800934252D0904A934269D8904A93424CD02A
:103CE8008E4A934263D88E4A934246D08C4A934276
:103CF8005DD8122B2AD8122B59D801A252F823F0DA
:103D0800833D00085D3D00086F3D0008B13D000897
:103D1800B73D0008B73D0008B73D0008B73D0008AB
:103D2800B73D0008B73D0008B73D0008B73D00089B
:103D3800B73D0008B73D0008B73D0008B73D00088B
:103D4800B73D0008653D0008793D0008754A934273
:103D580013D02CE03B68DB683B6229E03B68DB68FA
:103D680004333B6224E03B68DB6808333B621FE0B6
:103D78003B68DB680C333B621AE03B689B68002BAE
:103D880002D104233B6213E03B689B68012B05D1F9
:103D980008233B627B68FA691A6109E008233B62E1
:103DA8007B68FA695A6103E000233B6200E000BFC8
:103DB800BB69FF2B01D87B6801E07B6804337B611A
:103DC800BB69FF2B02D87B6A9B0002E07B6A083B39
:103DD8009B003B617B691A680F213B6901FA03F379
:103DE800DB431A40396A3B6901FA03F31A437B69DA
:103DF8001A603B685B6803F08053002B00F0C180B9
:103E0800494B9B69484A43F001039361464B9B69C0
:103E180003F00103BB60BB68444A7B6A9B0802331A
:103E280052F82330FB607B6A03F003039B000F22E8
:103E380002FA03F3DB43FA681340FB607B683C4AF1
:103E480093421FD07B683B4A934219D07B683A4A19
:103E5800934213D07B68394A93420DD07B68384A25
:103E6800934207D07B68374A934201D105230AE081
:103E7800062308E0042306E0032304E0022302E00B
:103E8800012300E000237A6A02F0030292009340C3
:103E9800FA681343FB6025497B6A9B080233FA687A
:103EA80041F823203B685B6803F48013002B06D09D
:103EB800254B9A682449BB6913438B6006E0224B63
:103EC8009A68BB69DB43204913408B603B685B6899
:103ED80003F40013002B06D01B4BDA681A49BB69A0
:103EE8001343CB6006E0184BDA68BB69DB4316491D
:103EF8001340CB603B685B6803F40033002B25D08C
:103F0800114B5A681049BB6913434B6025E000BF49
:103F180000003210000031100000221000002110B3
:103F280000001210000011100010024000000140B3
:103F380000080140000C014000100140001401403D
:103F480000180140001C014000040140154B5A684C
:103F5800BB69DB43134913404B603B685B6803F460
:103F68008033002B06D00F4B1A680E49BB691343E8
:103F78000B6006E00B4B1A68BB69DB430949134029
:103F88000B607B6A01337B623B681A687B6A22FAA2
:103F980003F3002B7FF47EAE00BF00BF2C37BD4675
:103FA80080BC70470004014080B483B000AF7860E3
:103FB8000B467B8013467B707B78002B03D07A8876
:103FC8007B681A6103E07B881A047B681A6100BF6A
:103FD8000C37BD4680BC704780B485B000AF7860B0
:103FE8000B467B807B68DB68FB607A88FB68134044
:103FF8001A04FB68D9437B880B401A437B681A6113
:1040080000BF1437BD4680BC7047000080B582B041
:1040180000AF0346FB80084B5A69FB881340002B0E
:1040280006D0054AFB885361FB88184600F006F85D
:1040380000BF0837BD4680BD0004014080B483B08E
:1040480000AF0346FB8000BF0C37BD4680BC7047FD
:1040580080B586B000AF78607B68002B01D1012362
:1040680072E27B681B6803F00103002B00F0878075
:10407800924B5B6803F00C03042B0CD08F4B5B68EE
:1040880003F00C03082B12D18C4B5B6803F48033CC
:10409800B3F5803F0BD1894B1B6803F40033002B29
:1040A8006CD07B685B68002B68D101234CE27B688D
:1040B8005B68B3F5803F06D1804B1B687F4A43F4A9
:1040C800803313602EE07B685B68002B0CD17B4B40
:1040D8001B687A4A23F480331360784B1B68774A4D
:1040E80023F4802313601DE07B685B68B3F5A02F81
:1040F8000CD1724B1B68714A43F4802313606F4BD9
:104108001B686E4A43F4803313600BE06B4B1B68EB
:104118006A4A23F480331360684B1B68674A23F4A8
:10412800802313607B685B68002B13D0FFF72AFBA2
:10413800386108E0FFF726FB02463B69D31A642B77
:1041480001D9032300E25D4B1B6803F40033002B05
:10415800F0D014E0FFF716FB386108E0FFF712FB18
:1041680002463B69D31A642B01D90323ECE1534B74
:104178001B6803F40033002BF0D100E000BF7B681C
:104188001B6803F00203002B63D04C4B5B6803F001
:104198000C03002B0BD0494B5B6803F00C03082B76
:1041A8001CD1464B5B6803F48033002B16D1434B7C
:1041B8001B6803F00203002B05D07B681B69012BE9
:1041C80001D00123C0E13D4B1B6823F0F8027B6856
:1041D8005B69DB00394913430B603AE07B681B6974
:1041E800002B20D0364B01221A60FFF7CBFA38613A
:1041F80008E0FFF7C7FA02463B69D31A022B01D938
:104208000323A1E12D4B1B6803F00203002BF0D020
:104218002A4B1B6823F0F8027B685B69DB0027499F
:1042280013430B6015E0264B00221A60FFF7AAFA29
:10423800386108E0FFF7A6FA02463B69D31A022B59
:1042480001D9032380E11D4B1B6803F00203002BF7
:10425800F0D17B681B6803F00803002B3AD07B6819
:104268009B69002B19D0174B01221A60FFF78AFAB5
:10427800386108E0FFF786FA02463B69D31A022B39
:1042880001D9032360E10D4B5B6A03F00203002BA5
:10429800F0D0012000F0CEFA1CE00A4B00221A6090
:1042A800FFF770FA38610FE0FFF76CFA02463B69D6
:1042B800D31A022B08D9032346E100BF001002409D
:1042C8000000424280044242924B5B6A03F00203C0
:1042D800002BE9D17B681B6803F00403002B00F076
:1042E800A6800023FB758B4BDB6903F08053002B02
:1042F8000DD1884BDB69874A43F08053D361854BE6
:10430800DB6903F08053BB60BB680123FB75824BFC
:104318001B6803F48073002B18D17F4B1B687E4AFF
:1043280043F480731360FFF72DFA386108E0FFF754
:1043380029FA02463B69D31A642B01D9032303E106
:10434800754B1B6803F48073002BF0D07B68DB6827
:10435800012B06D16F4B1B6A6E4A43F001031362AF
:104368002DE07B68DB68002B0CD16A4B1B6A694A1D
:1043780023F001031362674B1B6A664A23F00403A8
:1043880013621CE07B68DB68052B0CD1614B1B6A50
:10439800604A43F0040313625E4B1B6A5D4A43F0B4
:1043A800010313620BE05B4B1B6A5A4A23F00103BB
:1043B8001362584B1B6A574A23F0040313627B6845
:1043C800DB68002B15D0FFF7DDF938610AE0FFF74D
:1043D800D9F902463B69D31A41F28832934201D98E
:1043E8000323B1E04B4B1B6A03F00203002BEED012
:1043F80014E0FFF7C7F938610AE0FFF7C3F902468E
:104408003B69D31A41F28832934201D903239BE0D6
:10441800404B1B6A03F00203002BEED1FB7D012BFE
:1044280005D13C4BDB693B4A23F08053D3617B6861
:10443800DB69002B00F08780364B5B6803F00C03C8
:10444800082B61D07B68DB69022B46D1334B0022F5
:104458001A60FFF797F9386108E0FFF793F9024609
:104468003B69D31A022B01D903236DE0294B1B6842
:1044780003F00073002BF0D17B681B6AB3F5803F13
:1044880008D1244B5B6823F400327B689B68214980
:1044980013434B601F4B5B6823F474127B68196AE3
:1044A8007B685B6A0B431B4913434B601B4B012220
:1044B8001A60FFF767F9386108E0FFF763F9024609
:1044C8003B69D31A022B01D903233DE0114B1B682A
:1044D80003F00073002BF0D035E0104B00221A6077
:1044E800FFF750F9386108E0FFF74CF902463B69DD
:1044F800D31A022B01D9032326E0064B1B6803F0CD
:104508000073002BF0D11EE07B68DB69012B07D11B
:10451800012319E000100240007000406000424290
:104528000B4B5B68FB60FB6803F480327B681B6A9B
:104538009A4206D1FB6803F470127B685B6A9A4260
:1045480001D0012300E0002318461837BD4680BD7E
:104558000010024080B584B000AF786039607B6895
:10456800002B01D10123D0E06A4B1B6803F007033D
:104578003A689A4210D9674B1B6823F007026549CD
:104588003B6813430B60634B1B6803F007033A68EF
:104598009A4201D00123B8E07B681B6803F002034C
:1045A800002B20D07B681B6803F00403002B05D088
:1045B800594B5B68584A43F4E06353607B681B6857
:1045C80003F00803002B05D0534B5B68524A43F4B1
:1045D80060535360504B5B6823F0F0027B689B6824
:1045E8004D4913434B607B681B6803F00103002BA4
:1045F80040D07B685B68012B07D1474B1B6803F4ED
:104608000033002B15D101237FE07B685B68022B08
:1046180007D1414B1B6803F00073002B09D101231C
:1046280073E03D4B1B6803F00203002B01D101230B
:104638006BE0394B5B6823F003027B685B683649A3
:1046480013434B60FFF79EF8F8600AE0FFF79AF80B
:104658000246FB68D31A41F28832934201D90323F8
:1046680053E02D4B5B6803F00C027B685B689B0092
:104678009A42EBD1274B1B6803F007033A689A422A
:1046880010D2244B1B6823F0070222493B681343CE
:104698000B60204B1B6803F007033A689A4201D06D
:1046A800012332E07B681B6803F00403002B08D069
:1046B800194B5B6823F4E0627B68DB681649134397
:1046C8004B607B681B6803F00803002B09D0124B72
:1046D8005B6823F460527B681B69DB000E49134357
:1046E8004B6000F021F802460B4B5B681B0903F096
:1046F8000F030A49CB5C22FA03F3094A1360094BFA
:104708001B681846FEF7FCFF002318461037BD4605
:1047180080BD00BF0020024000100240A88C0008A5
:10472800040000200800002080B487B000AF0023F8
:10473800FB600023BB6000237B6100237B600023B8
:104748003B611E4B5B68FB60FB6803F00C03042BAA
:1047580002D0082B03D027E0194B3B6127E0FB6808
:104768009B0C03F00F03174AD35C7B60FB6803F4D0
:104778008033002B10D0114B5B685B0C03F00103F6
:10478800114AD35CBB607B680D4A03FB02F2BB682D
:10479800B2FBF3F37B6104E07B680C4A02FB03F392
:1047A8007B617B693B6102E0054B3B6100BF3B6974
:1047B80018461C37BD4680BC704700BF0010024039
:1047C80000127A00C08C0008D08C000800093D0057
:1047D80080B400AF024B1B681846BD4680BC7047CA
:1047E8000400002080B500AFFFF7F2FF0246054B3A
:1047F8005B681B0A03F007030349CB5C22FA03F347
:10480800184680BD00100240B88C000880B500AF83
:10481800FFF7DEFF0246054B5B68DB0A03F0070380
:104828000349CB5C22FA03F3184680BD001002400E
:10483800B88C000880B485B000AF78600A4B1B685C
:104848000A4AA2FB03235B0A7A6802FB03F3FB60B4
:1048580000BFFB685A1EFA60002BF9D100BF00BFE9
:104868001437BD4680BC704704000020D34D621049
:1048780080B582B000AF78607B68002B01D101233E
:1048880041E07B6893F83D30DBB2002B06D17B68B2
:10489800002283F83C207868FEF74CFC7B680222F3
:1048A80083F83D207B681A687B68043319461046F4
:1048B80000F072FA7B68012283F846207B680122A7
:1048C80083F83E207B68012283F83F207B68012221
:1048D80083F840207B68012283F841207B6801220D
:1048E80083F842207B68012283F843207B680122F9
:1048F80083F844207B68012283F845207B680122E5
:1049080083F83D20002318460837BD4680BD80B592
:1049180086B000AF786039607B68002B01D1012335
:1049280093E07B6893F83D30DBB2002B06D17B68BF
:10493800002283F83C207868FEF764FB7B6802223B
:1049480083F83D207B681B689B687A68126823F4AB
:10495800804323F0070393607B681A687B680433FD
:104968001946104600F018FA7B681B689B687B6143
:104978007B681B689B693B617B681B681B6AFB60E3
:104988003B681B687A6913437B613B6923F4407376
:1049980023F003033B613B689A683B689B691B02F1
:1049A80013433A6913433B613B6923F4406323F0A3
:1049B8000C033B613B6923F4704323F0F0033B6134
:1049C8003B68DA683B68DB691B0213433A691343A7
:1049D8003B613B681B691A013B681B6A1B03134355
:1049E8003A6913433B61FB6823F02203FB603B6891
:1049F8005A683B685B691B011343FA681343FB6001
:104A08007B681B687A699A607B681B683A699A6157
:104A18007B681B68FA681A627B68012283F8462063
:104A28007B68012283F83E207B68012283F83F20BF
:104A38007B68012283F842207B68012283F84320A7
:104A48007B68012283F83D20002318461837BD46AD
:104A580080BD80B584B000AF786039607B6893F81A
:104A68003E30FB737B6893F83F30BB737B6893F8E9
:104A780042307B737B6893F843303B733B68002B71
:104A880010D1FB7B012B02D17B7B012B01D00123B1
:104A980069E07B68022283F83E207B68022283F863
:104AA800422031E03B68042B10D1BB7B012B02D1A3
:104AB8003B7B012B01D0012355E07B68022283F860
:104AC8003F207B68022283F843201DE0FB7B012BFB
:104AD80008D1BB7B012B05D17B7B012B02D13B7B12
:104AE800012B01D001233EE07B68022283F83E209F
:104AF8007B68022283F83F207B68022283F84220E9
:104B08007B68022283F843203B68002B03D03B6874
:104B1800042B08D00FE07B681B680122002118468F
:104B280000F0C0F916E07B681B68012204211846D2
:104B380000F0B8F90EE07B681B68012200211846D6
:104B480000F0B0F97B681B6801220421184600F0C8
:104B5800A9F900BF7B681B681A687B681B6842F06C
:104B680001021A60002318461037BD4680BD80B583
:104B780084B000AF78607B681B68DB68FB607B688B
:104B88001B681B69BB60BB6803F00203002B20D0C5
:104B9800FB6803F00203002B1BD07B681B686FF0D7
:104BA80002021A617B6801221A777B681B689B697D
:104BB80003F00303002B03D0786800F0D1F805E078
:104BC800786800F0C4F8786800F0D3F87B680022B1
:104BD8001A77BB6803F00403002B20D0FB6803F0AE
:104BE8000403002B1BD07B681B686FF004021A615A
:104BF8007B6802221A777B681B689B6903F4407301
:104C0800002B03D0786800F0ABF805E0786800F076
:104C18009EF8786800F0ADF87B6800221A77BB68C8
:104C280003F00803002B20D0FB6803F00803002BD7
:104C38001BD07B681B686FF008021A617B6804222E
:104C48001A777B681B68DB6903F00303002B03D02A
:104C5800786800F085F805E0786800F078F87868FA
:104C680000F087F87B6800221A77BB6803F010030E
:104C7800002B20D0FB6803F01003002B1BD07B68AF
:104C88001B686FF010021A617B6808221A777B682C
:104C98001B68DB6903F44073002B03D0786800F0CD
:104CA8005FF805E0786800F052F8786800F061F87D
:104CB8007B6800221A77BB6803F00103002B0CD035
:104CC800FB6803F00103002B07D07B681B686FF0BB
:104CD80001021A617868FDF71DFCBB6803F08003C8
:104CE800002B0CD0FB6803F08003002B07D07B68F7
:104CF8001B686FF080021A61786800F06CF9BB6875
:104D080003F04003002B0CD0FB6803F04003002B9A
:104D180007D07B681B686FF040021A61786800F062
:104D280031F8BB6803F02003002B0CD0FB6803F0BC
:104D38002003002B07D07B681B686FF020021A61E4
:104D4800786800F03FF900BF1037BD4680BD80B4D9
:104D580083B000AF786000BF0C37BD4680BC704799
:104D680080B483B000AF786000BF0C37BD4680BC0C
:104D7800704780B483B000AF786000BF0C37BD4681
:104D880080BC704780B483B000AF786000BF0C3738
:104D9800BD4680BC7047000080B485B000AF786025
:104DA80039607B681B68FB607B68394A934213D083
:104DB8007B68384A93420FD07B68B3F1804F0BD0A1
:104DC8007B68354A934207D07B68344A934203D0C4
:104DD8007B68334A934208D1FB6823F07003FB6079
:104DE8003B685B68FA681343FB607B68284A934218
:104DF80013D07B68274A93420FD07B68B3F1804F6A
:104E08000BD07B68244A934207D07B68234A93429D
:104E180003D07B68224A934208D1FB6823F440738D
:104E2800FB603B68DB68FA681343FB60FB6823F0B0
:104E380080023B685B691343FB607B68FA681A6011
:104E48003B689A687B68DA623B681A687B689A6292
:104E58007B680F4A934203D07B680E4A934203D182
:104E68003B681A697B681A637B6801225A617B6810
:104E78001B6903F00103002B05D07B681B6923F035
:104E880001027B681A6100BF1437BD4680BC7047B9
:104E9800002C01400034014000040040000800409C
:104EA800000C004080B487B000AFF860B9607A6049
:104EB800BB6803F01F03012202FA03F37B61FB685E
:104EC8001A6A7B69DB431A40FB681A62FB681A6A34
:104ED800BB6803F01F03796801FA03F31A43FB6800
:104EE8001A6200BF1C37BD4680BC704780B485B0CD
:104EF80000AF786039607B6893F83C30012B01D1B2
:104F0800022350E07B68012283F83C207B68022260
:104F180083F83D207B681B685B68FB607B681B68C7
:104F28009B68BB60FB6823F07003FB603B681B68F1
:104F3800FA681343FB607B681B68FA685A607B68F1
:104F48001B681B4A934218D07B681B68194A934216
:104F580013D07B681B68B3F1804F0ED07B681B6849
:104F6800154A934209D07B681B68144A934204D0BF
:104F78007B681B68124A93420CD1BB6823F08003FC
:104F8800BB603B685B68BA681343BB607B681B689F
:104F9800BA689A607B68012283F83D207B6800220A
:104FA80083F83C20002318461437BD4680BC704760
:104FB800002C01400034014000040040000800407B
:104FC800000C004080B483B000AF786000BF0C379D
:104FD800BD4680BC704780B483B000AF786000BF26
:104FE8000C37BD4680BC704780B582B000AF786092
:104FF8007B68002B01D1012342E07B6893F84130A4
:10500800DBB2002B06D17B68002283F84020786849
:10501800FEF7D2F87B68242283F841207B681B685E
:10502800DA687B681B6822F40052DA60786800F05E
:10503800E5FD7B681B681A697B681B6822F490424F
:105048001A617B681B685A697B681B6822F02A0210
:105058005A617B681B68DA687B681B6842F40052F7
:10506800DA607B6800225A647B68202283F841203A
:105078007B68202283F842207B6800225A63002341
:1050880018460837BD4680BD80B58AB002AFF860C3
:10509800B9603B601346FB8000237B61FB6893F893
:1050A8004130DBB2202B75D1BB68002B02D0FB88C6
:1050B800002B01D101236EE0FB6800225A64FB68D3
:1050C800212283F84120FEF75DFB7861FB68FA88AE
:1050D8009A84FB68FA88DA84FB689B68B3F5805F7A
:1050E80008D1FB681B69002B04D10023FB61BB6856
:1050F800BB6103E0BB68FB610023BB612EE03B683A
:1051080000937B6900228021F86800F049FB034680
:10511800002B05D0FB68202283F8412003233AE0C6
:10512800FB69002B0BD1BB691B881A46FB681B68FF
:10513800C2F308025A60BB690233BB6107E0FB692E
:105148001A78FB681B685A60FB690133FB61FB68CE
:10515800DB8C9BB2013B9AB2FB68DA84FB68DB8C80
:105168009BB2002BCBD13B6800937B690022402186
:10517800F86800F015FB0346002B05D0FB682022D9
:1051880083F84120032306E0FB68202283F84120AE
:10519800002300E0022318462037BD4680BD80B4B6
:1051A80085B000AFF860B9601346FB80FB6893F8E0
:1051B8004130DBB2202B21D1BB68002B02D0FB8809
:1051C800002B01D101231AE0FB68BA681A62FB6858
:1051D800FA889A84FB68FA88DA84FB6800225A64A1
:1051E800FB68212283F84120FB681B68DA68FB68AA
:1051F8001B6842F08002DA60002300E002231846B0
:105208001437BD4680BC704780B584B000AFF860E5
:10521800B9601346FB80FB6893F84230DBB2202B61
:1052280012D1BB68002B02D0FB88002B01D10123CF
:105238000BE0FB6800221A63FB881A46B968F86815
:1052480000F007FB034600E0022318461037BD466E
:1052580080BD000080B5BAB000AF78607B681B687D
:105268001B68C7F8E4307B681B68DB68C7F8E03068
:105278007B681B685B69C7F8DC300023C7F8D83047
:105288000023C7F8D430D7F8E43003F00F03C7F889
:10529800D830D7F8D830002B0FD1D7F8E43003F046
:1052A8002003002B09D0D7F8E03003F02003002BAF
:1052B80003D0786800F0E3FB5BE2D7F8D830002B26
:1052C80000F0DE80D7F8DC3003F00103002B06D1B4
:1052D800D7F8E03003F49073002B00F0D180D7F8B2
:1052E800E43003F00103002B0BD0D7F8E03003F4CF
:1052F8008073002B05D07B685B6C43F001027B68F0
:105308005A64D7F8E43003F00403002B0BD0D7F825
:10531800DC3003F00103002B05D07B685B6C43F0A5
:1053280002027B685A64D7F8E43003F00203002BCA
:105338000BD0D7F8DC3003F00103002B05D07B68D5
:105348005B6C43F004027B685A64D7F8E43003F0DE
:105358000803002B11D0D7F8E03003F02003002B0E
:1053680005D1D7F8DC3003F00103002B05D07B68AA
:105378005B6C43F008027B685A647B685B6C002BAB
:1053880000F0F281D7F8E43003F02003002B08D0B6
:10539800D7F8E03003F02003002B02D0786800F043
:1053A8006EFB7B681B685B6903F04003002B14BF2E
:1053B80001230023DBB2C7F8D4307B685B6C03F0B1
:1053C8000803002B03D1D7F8D430002B4FD07868CE
:1053D80000F078FA7B681B685B6903F04003002BD8
:1053E80041D07B681B681433C7F89C30D7F89C30D1
:1053F80053E8003FC7F89830D7F8983023F04003B7
:10540800C7F8D0307B681B681433D7F8D020C7F8AA
:10541800A820C7F8A430D7F8A410D7F8A82041E8E6
:105428000023C7F8A030D7F8A030002BD9D17B686B
:10543800DB6B002B13D07B68DB6B7E4A5A637B687F
:10544800DB6B1846FEF714FB0346002B16D07B686F
:10545800DB6B5B6B7A68D26B104698470EE0786816
:1054680000F08AF90AE0786800F086F906E07868C2
:1054780000F082F97B6800225A6475E100BF73E18D
:105488007B681B6B012B40F04F81D7F8E43003F0A9
:105498001003002B00F04881D7F8E03003F0100328
:1054A800002B00F041810023BB607B681B681B68F0
:1054B800BB607B681B685B68BB60BB687B681B68FC
:1054C8005B6903F04003002B00F0B6807B68DB6B60
:1054D8001B685B68A7F8BE30B7F8BE30002B00F039
:1054E80045817B689B8DB7F8BE209A4280F03E814B
:1054F8007B68B7F8BE20DA857B68DB6B9B69202B5D
:1055080000F088807B681B680C33C7F88830D7F8B0
:10551800883053E8003FC7F88430D7F8843023F444
:105528008073C7F8B8307B681B680C33D7F8B8208D
:10553800C7F89420C7F89030D7F89010D7F894207F
:1055480041E80023C7F88C30D7F88C30002BD9D12C
:105558007B681B6814337B677B6F53E8003F3B67AE
:105568003B6F23F00103C7F8B4307B681B68143322
:10557800D7F8B420C7F88020FB67F96FD7F88020E8
:1055880041E80023BB67BB6F002BE1D17B681B6838
:1055980014333B663B6E53E8003FFB65FB6D23F01D
:1055A8004003C7F8B0307B681B681433D7F8B020C5
:1055B800FA66BB66B96EFA6E41E800237B667B6EBD
:1055C800002BE3D17B68202283F842207B680022ED
:1055D8001A637B681B680C33FB64FB6C53E8003F61
:1055E800BB64BB6C23F01003C7F8AC307B681B6846
:1055F8000C33D7F8AC20BA657B65796DBA6D41E894
:1056080000233B653B6D002BE3D17B68DB6B1846C1
:10561800FEF7F3F97B6802225A637B689A8D7B68F0
:10562800DB8D9BB2D31A9BB21946786800F0ADF8AF
:105638009CE000BF915900087B689A8D7B68DB8DE0
:105648009BB2D31AA7F8CE307B68DB8D9BB2002BB8
:1056580000F08E80B7F8CE30002B00F089807B6890
:105668001B680C33BB63BB6B53E8003F7B637B6BEE
:1056780023F49073C7F8C8307B681B680C33D7F8DD
:10568800C8207A643B64396C7A6C41E80023FB6378
:10569800FB6B002BE3D17B681B6814337B627B6A4E
:1056A80053E8003F3B623B6A23F00103C7F8C4306C
:1056B8007B681B681433D7F8C4203A63FB62F96A25
:1056C8003A6B41E80023BB62BB6A002BE3D17B68DD
:1056D800202283F842207B6800221A637B681B68BB
:1056E8000C333B613B6953E8003FFB60FB6823F0E8
:1056F8001003C7F8C0307B681B680C33D7F8C0208C
:10570800FA61BB61B969FA6941E800237B617B6989
:10571800002BE3D17B6802225A63B7F8CE301946D2
:10572800786800F032F823E0D7F8E43003F080031B
:10573800002B09D0D7F8E03003F08003002B03D00A
:10574800786800F035F914E0D7F8E43003F0400346
:10575800002B0ED0D7F8E03003F04003002B08D020
:10576800786800F074F904E000BF02E000BF00E0D0
:1057780000BFE837BD4680BD80B483B000AF786015
:1057880000BF0C37BD4680BC704780B483B000AF03
:1057980078600B467B8000BF0C37BD4680BC7047E5
:1057A80080B586B000AFF860B9603B601346FB7106
:1057B8003BE03B6AB3F1FF3F37D0FDF7E3FF02461A
:1057C8003B68D31A3A6A9A4202D33B6A002B01D14A
:1057D80003233AE0FB681B68DB6803F00403002B33
:1057E80023D0BB68802B20D0BB68402B1DD0FB6822
:1057F8001B681B6803F00803082B16D100237B6184
:10580800FB681B681B687B61FB681B685B687B61C6
:105818007B69F86800F056F8FB6808225A64FB6850
:10582800002283F8402001230FE0FB681B681A68F8
:10583800BB681340BA689A420CBF01230023DBB24D
:105848001A46FB799A42B4D0002318461837BD4649
:1058580080BD80B485B000AFF860B9601346FB80A6
:10586800FB68BA689A62FB68FA889A85FB68FA88C6
:10587800DA85FB6800225A64FB68222283F84220FA
:10588800FB681B69002B07D0FB681B68DA68FB689C
:105898001B6842F48072DA60FB681B685A69FB680F
:1058A8001B6842F001025A61FB681B68DA68FB68F2
:1058B8001B6842F02002DA60002318461437BD4600
:1058C80080BC704780B495B000AF78607B681B6877
:1058D8000C337B637B6B53E8003F3B633B6B23F4E8
:1058E8009073FB647B681B680C33FA6C3A64FB6347
:1058F800F96B3A6C41E80023BB63BB6B002BE5D125
:105908007B681B6814333B623B6A53E8003FFB61CA
:10591800FB6923F00103BB647B681B681433BA6C12
:10592800FA62BB62B96AFA6A41E800237B627B6A61
:10593800002BE5D17B681B6B012B19D17B681B6899
:105948000C33FB60FB6853E8003FBB60BB6823F087
:1059580010037B647B681B680C337A6CBA617B61CB
:105968007969BA6941E800233B613B69002BE5D1BD
:105978007B68202283F842207B6800221A6300BFDC
:105988005437BD4680BC704780B584B000AF78609E
:105998007B685B6AFB60FB680022DA85FB68002293
:1059A800DA84F868FFF7E8FE00BF1037BD4680BD0F
:1059B80080B485B000AF78607B6893F84130DBB283
:1059C800212B3ED17B689B68B3F5805F14D17B683F
:1059D8001B69002B10D17B681B6AFB60FB681B8866
:1059E8001A467B681B68C2F308025A607B681B6A08
:1059F8009A1C7B681A6208E07B681B6A591C7A68E3
:105A080011621A787B681B685A607B68DB8C9BB2D2
:105A1800013B9BB27A681946D184002B0FD17B6871
:105A28001B68DA687B681B6822F08002DA607B6892
:105A38001B68DA687B681B6842F04002DA60002362
:105A480000E0022318461437BD4680BC704780B575
:105A580082B000AF78607B681B68DA687B681B6877
:105A680022F04002DA607B68202283F841207868BF
:105A7800FCF744FE002318460837BD4680BD80B5B4
:105A88008CB000AF78607B6893F84230DBB2222B91
:105A980040F0AE807B689B68B3F5805F17D17B6868
:105AA8001B69002B13D10023FB627B689B6ABB62D6
:105AB8007B681B685B689BB2C3F308039AB2BB6A36
:105AC8001A807B689B6A9A1C7B689A6226E07B68CE
