:020000040800F2
:1000000000C0002039670008896400089164000876
:1000100099640008A1640008A964000800000000B9
:10002000000000000000000000000000B1640008B3
:10003000BD64000800000000C9640008D564000821
:1000400081670008816700088167000881670008F0
:1000500081670008816700088167000881670008E0
:1000600081670008816700088167000881670008D0
:1000700081670008816700088167000881670008C0
:1000800081670008816700088167000881670008B0
:1000900081670008816700088167000881670008A0
:1000A0008167000881670008816700088167000890
:1000B000E164000881670008F564000881670008B2
:1000C0008167000881670008816700088167000870
:1000D00081670008096500081D6500083165000892
:1000E0008167000881670008816700088167000850
:1000F0008167000881670008816700088167000840
:10010000816700088167000845650008816700086D
:10011000596500086D65000881650008956500084F
:10012000816700088167000881670008816700080F
:1001300000000000000000000000000000000000BF
:1001400000000000000000000000000000000000AF
:10015000000000000000000000000000000000009F
:10016000000000000000000000000000000000008F
:10017000000000000000000000000000000000007F
:10018000000000000000000000000000000000006F
:10019000000000000000000000000000000000005F
:1001A000000000000000000000000000000000004F
:1001B000000000000000000000000000000000003F
:1001C000000000000000000000000000000000002F
:1001D000000000000000000000000000000000001F
:0401E0005FF8E0F1F3
:1001E80010B5054C237833B9044B13B10448AFF369
:1001F80000800123237010BDE801002000000000EA
:1002080000D6000808B5034B1BB103490348AFF3F8
:10021800008008BD00000000EC01002000D60008A6
:10022800034613F8012B002AFBD1181A013870472E
:100238004FF0FF0C1CEAD0521EBF1CEAD15392EAC1
:100248000C0F93EA0C0F6FD01A4480EA010C40029D
:1002580018BF5FEA41211ED04FF0006343EA5010F7
:1002680043EA5111A0FB01310CF00040B1F5000F39
:100278003EBF490041EAD3715B0040EA010062F1E8
:100288007F02FD2A1DD8B3F1004F40EBC25008BFD2
:1002980020F00100704790F0000F0CF0004C08BFF0
:1002A80049024CEA502040EA51207F3AC2BFD2F1BD
:1002B800FF0340EAC250704740F400004FF00003CB
:1002C800013A5DDC12F1190FDCBF00F00040704705
:1002D800C2F10002410021FA02F1C2F1200200FA43
:1002E80002FC5FEA310040F1000053EA4C0308BF0A
:1002F80020EADC70704792F0000F00F0004C02BF5B
:10030800400010F4000F013AF9D040EA0C0093F0D5
:10031800000F01F0004C02BF490011F4000F013B2F
:10032800F9D041EA0C018FE70CEAD15392EA0C0F9D
:1003380018BF93EA0C0F0AD030F0004C18BF31F008
:10034800004CD8D180EA010000F00040704790F0DE
:10035800000F17BF90F0004F084691F0000F91F082
:10036800004F14D092EA0C0F01D142020FD193EA48
:100378000C0F03D14B0218BF084608D180EA0100D0
:1003880000F0004040F0FE4040F40000704740F0AC
:10039800FE4040F44000704781F0004102E000BF99
:1003A80083F0004330B54FEA41044FEA430594EA2D
:1003B800050F08BF90EA020F1FBF54EA000C55EA68
:1003C800020C7FEA645C7FEA655C00F0E2804FEA39
:1003D8005454D4EB5555B8BF6D420CDD2C4480EA1B
:1003E800020281EA030382EA000083EA010180EA4B
:1003F800020281EA0303362D88BF30BD11F0004F99
:100408004FEA01314FF4801C4CEA113102D04042CE
:1004180061EB410113F0004F4FEA03334CEA133309
:1004280002D0524263EB430394EA050F00F0A78021
:10043800A4F10104D5F1200E0DDB02FA0EFC22FA1C
:1004480005F2801841F1000103FA0EF2801843FA10
:1004580005F359410EE0A5F120050EF1200E012A01
:1004680003FA0EFC28BF4CF0020C43FA05F3C0183F
:1004780051EBE37101F0004507D54FF0000EDCF1B8
:10048800000C7EEB00006EEB0101B1F5801F1BD361
:10049800B1F5001F0CD349085FEA30004FEA3C0C65
:1004A80004F101044FEA445212F5800F80F09A805B
:1004B800BCF1004F08BF5FEA500C50F1000041EB5F
:1004C800045141EA050130BD5FEA4C0C404141EB63
:1004D8000101013C28BFB1F5801FE9D291F0000F5E
:1004E80004BF01460020B1FA81F308BF2033A3F10D
:1004F8000B03B3F120020CDA0C3208DD02F1140C04
:10050800C2F10C0201FA0CF021FA02F10CE002F13E
:100518001402D8BFC2F1200C01FA02F120FA0CFC37
:10052800DCBF41EA0C019040E41AA2BF01EB045180
:10053800294330BD6FEA04041F3C1CDA0C340EDC7E
:1005480004F11404C4F1200220FA04F001FA02F3C1
:1005580040EA030021FA04F345EA030130BDC4F17F
:100568000C04C4F1200220FA02F001FA04F340EA74
:100578000300294630BD21FA04F0294630BD94F025
:10058800000F83F4801306BF81F480110134013D0C
:100598004EE77FEA645C18BF7FEA655C29D094EA7D
:1005A800050F08BF90EA020F05D054EA000C04BFFB
:1005B8001946104630BD91EA030F1EBF00210020E6
:1005C80030BD5FEA545C05D14000494128BF41F085
:1005D800004130BD14F580043CBF01F5801130BDE9
:1005E80001F0004545F0FE4141F470014FF0000074
:1005F80030BD7FEA645C1ABF194610467FEA655C25
:100608001CBF0B46024650EA013406BF52EA0335C6
:1006180091EA030F41F4002130BD00BF90F0000FB4
:1006280004BF0021704730B54FF4806404F13204F0
:100638004FF000054FF0000150E700BF90F0000FA9
:1006480004BF0021704730B54FF4806404F13204D0
:1006580010F0004548BF40424FF000013EE700BFA0
:1006680042004FEAE2014FEA31014FEA02701FBF30
:1006780012F07F4393F07F4F81F06051704732F062
:100688007F4208BF704793F07F4F04BF41F40021B9
:10069800704730B54FF4607401F0004521F0004117
:1006A8001CE700BF50EA010208BF704730B54FF0A1
:1006B80000050AE050EA010208BF704730B511F0A2
:1006C800004502D5404261EB41014FF4806404F1DA
:1006D80032045FEA915C3FF4D8AE4FF003025FEA60
:1006E800DC0C18BF03325FEADC0C18BF033202EBE4
:1006F800DC02C2F1200300FA03FC20FA02F001FA3E
:1007080003FE40EA0E0021FA02F11444BDE600BFE0
:1007180070B54FF0FF0C4CF4E06C1CEA11541DBF8F
:100728001CEA135594EA0C0F95EA0C0F00F0DEF85A
:100738002C4481EA030621EA4C5123EA4C5350EA3F
:10074800013518BF52EA033541F4801143F4801390
:1007580038D0A0FB02CE4FF00005E1FB02E506F021
:100768000042E0FB03E54FF00006E1FB03569CF076
:10077800000F18BF4EF0010EA4F1FF04B6F5007F7C
:1007880064F5407404D25FEA4E0E6D4146EB0606EE
:1007980042EAC62141EA55514FEAC52040EA5E5077
:1007A8004FEACE2EB4F1FD0C88BFBCF5E06F1ED821
:1007B800BEF1004F08BF5FEA500E50F1000041EB58
:1007C800045170BD06F0004646EA010140EA020005
:1007D80081EA0301B4EB5C04C2BFD4EB0C0541EA27
:1007E800045170BD41F480114FF0000E013C00F33C
:1007F800AB8014F1360FDEBF002001F0004170BD60
:10080800C4F10004203C35DA0C341BDC04F1140478
:10081800C4F1200500FA05F320FA04F001FA05F204
:1008280040EA020001F0004221F0004110EBD370D1
:1008380021FA04F642EB06015EEA430E08BF20EAFD
:10084800D37070BDC4F10C04C4F1200500FA04F3A0
:1008580020FA05F001FA04F240EA020001F0004132
:1008680010EBD37041F100015EEA430E08BF20EAA5
:10087800D37070BDC4F1200500FA05F24EEA020EED
:1008880020FA04F301FA05F243EA020321FA04F01C
:1008980001F0004121FA04F220EA020000EBD370D3
:1008A8005EEA430E08BF20EAD37070BD94F0000FD3
:1008B8000FD101F00046400041EB010111F4801F07
:1008C80008BF013CF7D041EA060195F0000F18BFB8
:1008D800704703F00046520043EB030313F4801FF4
:1008E80008BF013DF7D043EA0603704794EA0C0FAE
:1008F8000CEA135518BF95EA0C0F0CD050EA4106C4
:1009080018BF52EA4306D1D181EA030101F0004140
:100918004FF0000070BD50EA410606BF1046194668
:1009280052EA430619D094EA0C0F02D150EA013674
:1009380013D195EA0C0F05D152EA03361CBF1046B5
:1009480019460AD181EA030101F0004141F0FE4154
:1009580041F470014FF0000070BD41F0FE4141F4D8
:10096800780170BD70B54FF0FF0C4CF4E06C1CEAD8
:1009780011541DBF1CEA135594EA0C0F95EA0C0F8D
:1009880000F0A7F8A4EB050481EA030E52EA033548
:100998004FEA013100F088804FEA03334FF0805569
:1009A80045EA131343EA12634FEA022245EA111596
:1009B80045EA10654FEA00260EF000419D4208BF47
:1009C800964244F1FD0404F5407402D25B084FEAF4
:1009D8003202B61A65EB03055B084FEA32024FF4A0
:1009E80080104FF4002CB6EB020E75EB030E22BFFD
:1009F800B61A754640EA0C005B084FEA3202B6EBBD
:100A0800020E75EB030E22BFB61A754640EA5C006B
:100A18005B084FEA3202B6EB020E75EB030E22BFFB
:100A2800B61A754640EA9C005B084FEA3202B6EBFC
:100A3800020E75EB030E22BFB61A754640EADC00BB
:100A480055EA060E18D04FEA051545EA16754FEA1D
:100A580006164FEAC30343EA52734FEAC2025FEA3B
:100A68001C1CC0D111F4801F0BD141EA00014FF0CA
:100A780000004FF0004CB6E711F4801F04BF01439B
:100A88000020B4F1FD0C88BFBCF5E06F3FF6AFAEB7
:100A9800B5EB030C04BFB6EB020C5FEA500C50F147
:100AA800000041EB045170BD0EF0004E4EEA1131CA
:100AB80014EB5C04C2BFD4EB0C0541EA045170BDD1
:100AC80041F480114FF0000E013C90E645EA060E15
:100AD8008DE60CEA135594EA0C0F08BF95EA0C0F43
:100AE8003FF43BAF94EA0C0F0AD150EA01347FF48B
:100AF80034AF95EA0C0F7FF425AF104619462CE762
:100B080095EA0C0F06D152EA03353FF4FDAE1046C4
:100B1800194622E750EA410618BF52EA43067FF415
:100B2800C5AE50EA41047FF40DAF52EA43057FF4A5
:100B3800EBAE12E74FF0FF3C06E000BF4FF0010CB0
:100B480002E000BF4FF0010C4DF804CD4FEA410C14
:100B58007FEA6C5C4FEA430C18BF7FEA6C5C1BD0E1
:100B680001B050EA410C0CBF52EA430C91EA030F62
:100B780002BF90EA020F0020704710F1000F91EABF
:100B8800030F58BF994208BF90422CBFD8176FEA8D
:100B9800E37040F0010070474FEA410C7FEA6C5C5B
:100BA80002D150EA013C07D14FEA430C7FEA6C5C62
:100BB800D6D152EA033CD3D05DF8040B704700BF8E
:100BC8008446104662468C461946634600E000BFDC
:100BD80001B5FFF7B7FF002848BF10F1000F01BDAE
:100BE8004DF808EDFFF7F4FF0CBF012000205DF879
:100BF80008FB00BF4DF808EDFFF7EAFF34BF0120FE
:100C080000205DF808FB00BF4DF808EDFFF7E0FF96
:100C180094BF012000205DF808FB00BF4DF808EDE7
:100C2800FFF7CEFF94BF012000205DF808FB00BF4E
:100C38004DF808EDFFF7C4FF34BF012000205DF830
:100C480008FB00BF4FEA410C7FEA6C5C02D150EA16
:100C5800013C0AD14FEA430C7FEA6C5C02D152EAAC
:100C6800033C02D14FF0000070474FF0010070477D
:100C78004FEA410212F5001215D211D56FF47873BC
:100C8800B3EB625212D94FEAC12343F0004343EA5F
:100C9800505311F0004F23FA02F018BF404270473A
:100CA8004FF00000704750EA013005D111F00040C4
:100CB80008BF6FF0004070474FF00000704700BF5A
:100CC8004A0011D212F5001211D20DD56FF47873C3
:100CD800B3EB62520ED44FEAC12343F0004343EA18
:100CE800505323FA02F070474FF00000704750EA63
:100CF800013002D14FF0FF3070474FF000007047CD
:100D08004FEA4102B2F1E04324BFB3F5001CDCF125
:100D1800FE5C0DD901F0004C4FEAC0024CEA50705D
:100D2800B2F1004F40EB830008BF20F0010070478C
:100D380011F0804F21D113F13872BCBF01F000408F
:100D4800704741F480114FEA5252C2F11802C2F1C1
:100D5800200C10FA0CF320FA02F018BF40F0010042
:100D68004FEAC1234FEAD32303FA0CFC40EA0C00F4
:100D780023FA02F34FEA4303CCE77FEA625307D131
:100D880050EA01331EBF4FF0FE4040F44000704768
:100D980001F0004040F0FE4040F40000704700BF02
:100DA80080F0004002E000BF81F0004142001FBF18
:100DB8005FEA410392EA030F7FEA226C7FEA236C21
:100DC8006AD04FEA1262D2EB1363C1BFD218414016
:100DD80048404140B8BF5B42192B88BF704710F0AC
:100DE800004F40F4000020F07F4018BF404211F04F
:100DF800004F41F4000121F07F4118BF494292EAB7
:100E0800030F3FD0A2F1010241FA03FC10EB0C00E2
:100E1800C3F1200301FA03F100F0004302D549426F
:100E280060EB4000B0F5000F13D3B0F1807F06D31C
:100E380040084FEA310102F10102FE2A51D2B1F114
:100E4800004F40EBC25008BF20F0010040EA030009
:100E58007047490040EB0000013A28BFB0F5000F89
:100E6800EDD2B0FA80FCACF1080CB2EB0C0200FA3F
:100E78000CF0AABF00EBC25052421843BCBFD0408E
:100E88001843704792F0000F81F4000106BF80F408
:100E980000000132013BB5E74FEA41037FEA226CCB
:100EA80018BF7FEA236C21D092EA030F04D092F096
:100EB800000F08BF0846704790EA010F1CBF0020CA
:100EC800704712F07F4F04D1400028BF40F0004027
:100ED800704712F100723CBF00F50000704700F047
:100EE800004343F0FE4040F4000070477FEA22626E
:100EF80016BF08467FEA23630146420206BF5FEA3F
:100F0800412390EA010F40F4800070474FF000033E
:100F180004E000BF10F0004348BF40425FEA000C05
:100F280008BF704743F0964301464FF000001CE0AD
:100F380050EA010208BF70474FF000030AE000BF03
:100F480050EA010208BF704711F0004302D5404241
:100F580061EB41015FEA010C02BF844601460020B3
:100F680043F0B64308BFA3F18053A3F50003BCFACE
:100F78008CF2083AA3EBC25310DB01FA02FC63447B
:100F880000FA02FCC2F12002BCF1004F20FA02F282
:100F980043EB020008BF20F00100704702F1200275
:100FA80001FA02FCC2F1200250EA4C0021FA02F2D6
:100FB80043EB020008BF20EADC7070474FEA4002AA
:100FC800B2F1FE4F0FD34FF09E03B3EB12620DD96F
:100FD8004FEA002343F0004310F0004F23FA02F0D9
:100FE80018BF404270474FF00000704712F1610F80
:100FF80001D1420205D110F0004008BF6FF0004057
:1010080070474FF00000704780B582B000AF78603D
:101018000B467B807B681B7D002B17D0012B1FD1D3
:101028007B6818687B685B689BB20022194606F0EB
:101038000FF87B6898687B68D9687B88C3F59573D7
:1010480001339BB21A4601F0E2FB09E07B6818699C
:101058007B68597D7B88DBB2002204F0FBF800BF77
:1010680000BF0837BD4680BD80B582B000AF78604C
:101078000B467B807B681B7D002B17D0012B1FD173
:101088007B6818687B685B689BB20122194605F08B
:10109800DFFF7B6898687B68D9687B88C3F59573A0
:1010A80001339BB21A4601F0B2FB09E07B6818696C
:1010B8007B68597D7B88DBB2012204F0CBF800BF46
:1010C80000BF0837BD4680BD80B485B000AFF8606A
:1010D800B9607A60FA687B689A4201DB7B6806E04F
:1010E800FA68BB689A4201DABB6800E0FB681846F8
:1010F8001437BD4680BC704780B584B000AFF86037
:101108000B467A607B8105F091FB02461C4B1B68FD
:10111800D31A7A689A4294BF01230023DBB2002BCA
:1011280029D0FB68B3F90030B7F90A209A4209DDE3
:10113800FB68B3F900309BB201339BB21AB2FB686B
:101148001A8013E0FB68B3F90030B7F90A209A4215
:1011580009DAFB68B3F900309BB2013B9BB21AB2C3
:10116800FB681A8002E0FB687A891A8005F05EFB4A
:101178000346034A136000BF1037BD4680BD00BF59
:101188000402002080B483B000AF0346FB80B7F9A7
:101198000630174A82FB03121A44D112DA178A1A48
:1011A8004FF4616101FB02F29B1AFB80B7F906302C
:1011B800B3F5E16F07DBFB88A3F561639BB2FB80A6
:1011C800B7F906300EE0B7F9063013F5E16F07DA24
:1011D800FB8803F561639BB2FB80B7F9063001E039
:1011E800B7F9063018460C37BD4680BC704700BFBB
:1011F800C5B3A29190B587B000AF03460A46FB80FD
:101208001346BB8000237B81FC8803F0EFFF034675
:101218001846FFF7B7FF03469BB2E31A9BB21AB210
:10122800404B1A803F4BB3F90030002BB8BF5B42EC
:101238009BB2B3F57A7F07D34FF07A537B613A4B71
:101248003B613A4BFB6016E0364BB3F90030002B9C
:10125800B8BF5B429BB2B3F5C87F06D3344B7B6102
:10126800344B3B61344BFB6005E0344B7B61344BC2
:101278003B612D4BFB602B4BB3F900301846FFF751
:1012880049FE034679691846FEF7D2FF03461C4615
:10129800244BB3F900301A462A4BB3F900301344F3
:1012A8001846FFF737FE034639691846FEF7C0FFB0
:1012B800034619462046FFF779FD03461C46194B9D
:1012C800B3F900301A461F4BB3F90030D31A184649
:1012D800FFF720FE0346F9681846FEF7A9FF034604
:1012E80019462046FFF762FD03461846FFF766FEDB
:1012F80003467B81B7F90A00B7F904305B42B7F9B6
:1013080004201946FFF7E0FE03467B81054BB3F93D
:1013180000200C4B1A80B7F90A3018461C37BD4616
:1013280090BD00BF080200200AD7233C295C8F3DEE
:101338009A99193E8FC2753D0AD7233DCDCCCC3D35
:101348008FC2F53C0A02002080B582B000AF034688
:101358000A46FB711346BB80B7F90430002B0DDB3E
:10136800FA791346DB009B1A9B000F4A1344B7F91E
:10137800042011461846FFF747FE11E0FA79134694
:10138800DB009B1A9B00084A1A44B7F90430002B6B
:10139800B8BF5B429BB21BB219461046FFF764FE0A
:1013A80000BF0837BD4680BD84060020000000004D
:1013B8002DE9B04F92B000AF0446084611461A46D0
:1013C8002346FB800346BB800B467B8013463B804D
:1013D800B7F90030BA6E19460948FFF78DFEB7F91C
:1013E8000420B7F9063011461846FFF703FF0346F5
:1013F8001A46044B1A80002387F8473041E000BFA3
:101408000C0200200E02002097F84720CC49134612
:10141800DB009B1A9B000B441633B3F900301A46C5
:10142800B7F90230D41A03F0E1FE03462344184604
:10143800FFF704F9C0A3D3E90023FFF769F90246CF
:101448000B46104619464FF00002BE4BFFF78AFACA
:1014580002460B461046194608F02AF902460B4682
:1014680097F8474010461946FFF74AFC0246A30082
:1014780048333B4443F81C2C97F84730013387F82E
:10148800473097F84730032BBED9AD4BB3F9163028
:101498001A46AB4BB3F96A30D31A002BB8BF5B427C
:1014A8001846FFF7CBF8A4A3D3E90023FFF730F9D8
:1014B80002460B46104619464FF00002A14BFFF7B3
:1014C80051FA02460B461046194608F0F1F8024652
:1014D8000B46C7E906239A4BB3F932301A46984BA4
:1014E800B3F94E30D31A002BB8BF5B421846FFF74A
:1014F800A5F891A3D3E90023FFF70AF902460B46A2
:10150800104619464FF000028E4BFFF72BFA0246A1
:101518000B461046194608F0CBF802460B46C7E9B9
:101528000823FB6AFA6A11461846FEF781FE03464D
:101538001C46BB6BBA6B11461846FEF779FE03468C
:1015480019462046FFF732FC03461846FFF788F88D
:1015580004460D46FB6A19461846FFF727FC034662
:101568001A46BB6B19461046FEF762FE034618463C
:10157800FFF776F8D7E90623FFF7CAF802460B46C5
:1015880020462946FEF70CFF02460B46C7E9022310
:101598003B6B3A6B11461846FEF74AFE03461C465B
:1015A8007B6B7A6B11461846FEF742FE03461946D6
:1015B8002046FFF7FBFB03461846FFF751F80446A1
:1015C8000D463B6B19461846FFF7F0FB03461A46D3
:1015D8007B6B19461046FEF72BFE03461846FFF7AD
:1015E8003FF8D7E90823FFF793F802460B46204651
:1015F8002946FEF7D5FE02460B46C7E90423524B9F
:10160800B3F900301846FFF719F804460D464F4B5A
:10161800B3F900301846FFF711F8804689460220D2
:1016280000F026FB02460B4640464946FFF770F895
:1016380002460B4692469B46FB6A1846FFF710F88F
:1016480080468946BB6B1846FFF70AF8D7E9062398
:10165800FFF75EF802460B4640464946FEF7A0FEF5
:1016680002460B4650465946FFF752F802460B46CB
:1016780010461946D7E90223FFF774F902460B46CC
:1016880020462946FEF78EFE02460B4610461946AE
:10169800FFF7EEFA03461BB2BB872B4BB3F90030BA
:1016A8001846FEF7CBFF04460D46284BB3F9003029
:1016B8001846FEF7C3FF80468946022000F0D8FA94
:1016C80002460B4640464946FFF722F802460B46BB
:1016D80092469B46BB6B1846FEF7C2FF804689467A
:1016E800FB6A1846FEF7BCFFD7E90623FFF710F898
:1016F80002460B4640464946FEF752FE02460B4656
:1017080050465946FFF704F802460B46104619465C
:10171800D7E90223FFF726F902460B462046294659
:10172800FEF740FE02460B4610461946FFF7A0FAA0
:101738000EE000BFAFF30080399D52A246DF913F13
:1017480084060020000024400E0200200C02002025
:1017580003461BB2A7F842305E4BB3F90030184677
:10176800FEF76CFF04460D465B4BB3F90030184694
:10177800FEF764FF80468946022000F079FA0246A7
:101788000B4640464946FEF7C3FF02460B469246C3
:101798009B463B6B1846FEF763FF804689467B6B8A
:1017A8001846FEF75DFFD7E90823FEF7B1FF0246AA
:1017B8000B4640464946FEF7F3FD02460B465046A7
:1017C8005946FEF7A5FF02460B4610461946D7E9CB
:1017D8000423FFF7C7F802460B4620462946FEF7C2
:1017E800DFFD02460B4610461946FFF741FA03464D
:1017F8001BB2FB87374BB3F900301846FEF71EFFC4
:1018080004460D46344BB3F900301846FEF716FF70
:1018180080468946022000F02BFA02460B464046D5
:101828004946FEF775FF02460B4692469B467B6B80
:101838001846FEF715FF804689463B6B1846FEF7AB
:101848000FFFD7E90823FEF763FF02460B46404621
:101858004946FEF7A5FD02460B4650465946FEF797
:1018680057FF02460B4610461946D7E90423FFF7EF
:1018780079F802460B4620462946FEF791FD0246B6
:101888000B4610461946FFF7F3F903461BB2A7F8B3
:101898004030B7F93C3019460020FFF755FDB7F93D
:1018A8003E3019460120FFF74FFDB7F94030194681
:1018B8000220FFF749FDB7F9423019460320FFF728
:1018C80043FD054BB3F9003018464837BD46BDE81F
:1018D800B08F00BF0E0200200C02002080B582B03D
:1018E80000AF0346FB80B7F9063019460C48FFF7EE
:1018F8008BFBB7F9063019460A48FFF785FBB7F99D
:10190800063019460848FFF77FFBB7F90630194635
:101918000648FFF779FB00BF0837BD4680BD00BF0A
:1019280084060020A0060020BC060020D80600205F
:1019380080B582B000AF0346FB80B7F90630194680
:101948000C48FFF791FBB7F9063019460A48FFF72C
:101958008BFBB7F9063019460848FFF785FBB7F93E
:10196800063019460648FFF77FFB00BF0837BD461B
:1019780080BD00BF84060020A0060020BC06002011
:10198800D806002080B500AF00210848FFF73CFBCF
:1019980000210748FFF738FB00210648FFF734FB12
:1019A80000210548FFF730FB00BF80BD84060020FA
:1019B800A0060020BC060020D80600200000000079
:1019C80080B584B002AFA24BB3F90030002BB8BF8A
:1019D8005B429BB2632B1AD89E4BB3F90030002BA5
:1019E800B8BF5B429BB2632B11D89B4BB3F9003055
:1019F800002BB8BF5B429BB2632B08D8974BB3F957
:101A08000030002BB8BF5B429BB2632B74D9904B5C
:101A1800B3F90030002BB8BF5B429BB2632B08D8E8
:101A28008C4BB3F90030002BB8BF5B429BB2632BE1
:101A380021D9874BB3F90030864AB2F90020114604
:101A4800184600F029F980A3D3E90023FEF760FEC9
:101A580002460B46104619464FF00002804BFEF72F
:101A680057FE02460B4610461946FFF701F9034692
:101A78001AB27C4B1A80784BB3F90030002BB8BFF0
:101A88005B429BB2632B08D8744BB3F90030002B30
:101A9800B8BF5B429BB2632B21D9704BB3F90030BE
:101AA8006D4AB2F900201146184600F0F5F866A311
:101AB800D3E90023FEF72CFE02460B4610461946D2
:101AC8004FF00002664BFEF723FE02460B46104617
:101AD8001946FFF7CDF803461AB2634B1A80624BDA
:101AE800B3F900005F4BB3F900200823009350239B
:101AF8003221FFF75DFCA0E05C4B1B8803F001037B
:101B0800002B11D0584BB3F900301846FFF73AFBB9
:101B180003461846544BB3F900200823009350237A
:101B28003221FFF745FC88E0504B1B8803F0020385
:101B3800002B16D04C4BB3F900301846FFF722FBA8
:101B480003461846484BB3F900309BB203F5E163EE
:101B58009BB21AB20823009350233221FFF728FCC6
:101B68006BE0424B1B8803F00803002B16D03E4B5A
:101B7800B3F900301846FFF705FB034618463A4B01
:101B8800B3F900309BB203F561739BB21AB2082314
:101B9800009350233221FFF70BFC4EE0334B1B8898
:101BA80003F00403002B16D02F4BB3F9003018466E
:101BB800FFF7E8FA034618462B4BB3F900309BB2FF
:101BC800A3F561739BB21AB2082300935023322104
:101BD800FFF7EEFB31E0254B1B8803F02003002BB9
:101BE80003D03220FFF7A4FE27E0204B1B8803F028
:101BF8001003002B03D03220FFF770FE1DE01A4BB4
:101C0800B3F90000174BB3F9002006230093002313
:101C18003221FFF7CDFB0346FB80B7F90630142BC2
:101C28000BDC03F0E3FA03461A460F4B1A80B7F9A8
:101C38000630002B01D1FFF7A5FE00BF0837BD46CF
:101C480080BD00BFAFF30080F8C1631ADCA54C402B
:101C58004E030020500300205403002052030020AC
:101C68000000244012020020100200204C03002033
:101C780080B582B000AF78607868FEF7DFFC024676
:101C88000B461046194607F0EFFC02460B46104675
:101C980019460837BD4680BDB0B582B000AF0346CF
:101CA8000A46FB801346BB80B7F906301846FEF794
:101CB800C5FC04460D46B7F904301846FEF7BEFCCD
:101CC80002460B462046294607F0CCFC02460B4646
:101CD800104619460837BD46B0BD000080B487B02D
:101CE80000AF78607B68234A93420CD1224B9B69F2
:101CF800214A43F0040393611F4B9B6903F00403DB
:101D08007B617B6931E07B681C4A93420CD11A4B9A
:101D18009B69194A43F008039361174B9B6903F0C9
:101D280008033B613B6920E07B68154A93420CD16C
:101D3800114B9B69104A43F0100393610E4B9B694A
:101D480003F01003FB60FB680FE07B680D4A9342C9
:101D58000BD1094B9B69084A43F020039361064B5A
:101D68009B6903F02003BB60BB6800BF1C37BD46FE
:101D780080BC70470008014000100240000C014080
:101D8800001001400014014080B588B000AFF86031
:101D9800B9607A60F868FFF7A1FF07F11003002225
:101DA8001A605A609A60DA60BB683B6101237B6104
:101DB8000023BB617B68FB6107F110031946F868D3
:101DC80004F0B2FFBB689BB200221946F86805F020
:101DD8003FF900BF2037BD4680BD80B483B000AF57
:101DE800786039603B6818460C37BD4680BC704740
:101DF80080B483B000AF78600B46FB70FB78184660
:101E08000C37BD4680BC704780B483B000AF7860A3
:101E18000B467B807B8818460C37BD4680BC7047D4
:101E280080B483B000AF78607B6800221A607B685A
:101E380018460C37BD4680BC704780B485B000AFEB
:101E4800F860B9607A60BB687A68B3FBF2F27968C7
:101E580001FB02F29B1A18461437BD4680BC704736
:101E680080B483B000AF786039607B683A681A60E4
:101E78007B6800225A607B6818460C37BD4680BCD8
:101E8800704780B483B000AF78607B685B681846A1
:101E98000C37BD4680BC704780B483B000AF786013
:101EA80039603B681A687B681B689A4201D23B68B4
:101EB80000E07B6818460C37BD4680BC704780B58B
:101EC80082B000AF78607B6800221A607B680022CD
:101ED8005A607B6800229A607B680022DA607B681F
:101EE800002283F8582003F075FF7B6818460837EE
:101EF800BD4680BD80B485B000AFF860B9607A6037
:101F08003B60FB68BA681A60FB687A685A60FB68CD
:101F18003A689A60FB68BA69DA60FB683A7F83F8C6
:101F28005820FB6818461437BD4680BC704780B4FB
:101F380083B000AF786039607B681A683B681B68BB
:101F48009A4207D17B685A683B685B689A4201D11C
:101F5800012300E0002318460C37BD4680BC7047BB
:101F680090B585B000AF786039603B681B681C4647
:101F78003B685B689AB207F1080311461846FFF7F9
:101F880043FF03465C403B6893F8582007F10C0375
:101F980011461846FFF72CFF0346634018461437CE
:101FA800BD4690BD80B582B000AF7860786800F01B
:101FB800AEFD7B6818460837BD4680BD80B582B047
:101FC80000AF78607868FFF7EDFF786800F0A9FD4A
:101FD8007B6818460837BD4680BD80B582B000AF23
:101FE8007860786800F0B3FD7B6818460837BD460E
:101FF80080BD80B582B000AF7860786800F09BFD46
:102008007B6818460837BD4680BD80B582B000AFF2
:1020180078607868FFF7E1FF7B6818460837BD46A7
:1020280080BD80B582B000AF78607868FFF7C6FFE2
:102038007868FFF7DEFF7B6803F118027B681A6097
:102048007B6801225A607B6808331846FFF7E8FE70
:102058007B680022DA607B6810334FF07E511846A7
:10206800FFF7FEFE7B6800229A617B6818460837F6
:10207800BD4680BD80B582B000AF78607B681846E9
:10208800FFF7CFFF7B6818460837BD4680BD80B490
:1020980083B000AF78607B681B6803F001031846C3
:1020A8000C37BD4680BC704780B483B000AF786001
:1020B8007B689B6A9BB218460C37BD4680BC70474C
:1020C80080B483B000AF78607B68DB6A9BB2184647
:1020D8000C37BD4680BC704780B48BB000AF7860C9
:1020E8007B68454A93420CD1444B9B69434A43F46D
:1020F80000639361414B9B6903F400637B627B6AD5
:1021080075E07B68B3F1804F0CD13C4BDB693B4AEF
:1021180043F00103D361394BDB6903F001033B62F0
:102128003B6A64E07B68364A93420CD1334BDB69E7
:10213800324A43F00203D361304BDB6903F00203F8
:10214800FB61FB6953E07B682E4A93420CD12B4B11
:10215800DB692A4A43F00403D361284BDB6903F0A7
:102168000403BB61BB6942E07B68274A93420CD1F8
:10217800224BDB69214A43F00803D3611F4BDB691B
:1021880003F008037B617B6931E07B681F4A934257
:102198000CD11A4BDB69194A43F01003D361174B72
:1021A800DB6903F010033B613B6920E07B68184A58
:1021B80093420CD1114BDB69104A43F02003D361E1
:1021C8000E4BDB6903F02003FB60FB680FE07B68C4
:1021D800104A93420BD1094B9B69084A43F40053B8
:1021E8009361064B9B6903F40053BB60BB6800BF57
:1021F8002C37BD4680BC7047002C014000100240BF
:102208000004004000080040000C0040001000409E
:10221800001400400034014080B487B000AF7860FB
:102228007B68234A93420CD1224B9B69214A43F095
:10223800040393611F4B9B6903F004037B617B6973
:1022480031E07B681C4A93420CD11A4B9B69194AAE
:1022580043F008039361174B9B6903F008033B6144
:102268003B6920E07B68154A93420CD1114B9B696E
:10227800104A43F0100393610E4B9B6903F010035F
:10228800FB60FB680FE07B680D4A93420BD1094B5A
:102298009B69084A43F020039361064B9B6903F04E
:1022A8002003BB60BB6800BF1C37BD4680BC7047BD
:1022B8000008014000100240000C014000100140DD
:1022C8000014014080B59AB000AFF8607A603B60B6
:1022D8000B467B813868FFF7FFFEF868FFF79CFF25
:1022E80007F15C0300221A605A6007F140030022DC
:1022F8001A605A609A60DA601A615A619A6107F145
:10230800200320220021184609F007FB7B683A6861
:102318001A60B7F874207B685A607B6800229A605C
:10232800B7F878207B68DA607B6800221A617B68DE
:1023380000229A61786805F002FB0346002B14BF5F
:1023480001230023DBB2002B01D003F043FD00235F
:10235800FB6500233B6607F15C031946786806F0C5
:102368005DF90346002B14BF01230023DBB2002BC9
:1023780001D003F02FFD60233B64B7F87C307B6409
:102388000023BB6400233B653B68414A934203D06A
:102398003B68404A934205D10023FB6400237B65D8
:1023A8000023BB6507F140033A6F1946786805F0CA
:1023B800F9FD0346002B14BF01230023DBB2002BD9
:1023C80001D003F007FD3B68314A934203D03B68D4
:1023D800304A93421ED100233B6200237B620023D4
:1023E800BB620023FB6200233B634FF400537B6313
:1023F8000023FB6307F120031946786806F07AF991
:102408000346002B14BF01230023DBB2002B01D0AD
:1024180003F0E0FC07F1100300221A605A609A608A
:10242800DA607B893B6102237B610023BB61032364
:10243800FB6107F110031946F86804F075FC3B6866
:10244800154A934211D1154B5B687B667B6E23F46A
:1024580040637B667B6E43F0E0637B667B6E43F490
:1024680040637B660D4A7B6E5360396F786805F070
:10247800BFFA0346002B14BF01230023DBB2002B55
:1024880001D003F0A7FC00BF6837BD4680BD00BF80
:10249800002C0140003401400004004000000140CD
:1024A80080B5B4B002AFF8607A603B600B467B81C0
:1024B8007A8907F1100097F8D03001933B680093B0
:1024C8007B68F968FFF716FD7A8907F16C0097F8C1
:1024D800D03001933B6800937B68F968FFF70AFDE9
:1024E80007F16C0207F110031946034800F04DFB91
:1024F80000BFC837BD4680BD1402002080B582B039
:1025080000AF7860786800F069FB7B681846083788
:10251800BD4680BD80B582B000AF78607B68184644
:1025280000F04CFB7B6818460837BD4680BD80B577
:1025380082B000AF78607B681846FFF7EBFF7B68D6
:1025480018460837BD4680BD80B5A0B002AFF86018
:10255800B96011461A460B46FB8013467B71F86832
:10256800FFF7E5FFFA8807F11C007B790193002348
:1025780000930023B968FFF7BDFC07F1140307F1C6
:102588001C021449184600F06EFB7B693B610FE0A2
:1025980007F11003184600F097FB03465C33194611
:1025A800F86800F0A0FB07F11003184600F07FFB65
:1025B80007F114031A1D07F110031146184600F01D
:1025C80063FB0346002BE3D100BFF8687837BD46AC
:1025D80080BD00BF1402002080B5A0B002AFF86033
:1025E800B96011461A460B46FB8013467B71FA8880
:1025F80007F11C007B790193002300930023B9683D
:10260800FFF778FC07F1140307F11C021349184679
:1026180000F029FB7B693B6100BF07F114031A1D19
:1026280007F110031146184600F02EFB0346002B55
:102638000DD007F11003184600F046FB0346FA6870
:1026480010465C335C22194609F049FA02E0F86842
:10265800FFF735FCF8687837BD4680BD14020020C6
:1026680080B586B000AF7860396007F110037A68EA
:102678001949184600F0F7FA3B69FB6017E007F1C3
:102688000C03184600F020FB03465C3379681846B3
:10269800FFF74DFC0346002B04D0F9680E4800F004
:1026A80048FB10E007F10C03184600F000FB07F1A7
:1026B80010031A1D07F10C031146184600F0E4FA3E
:1026C8000346002BDBD13A683968034800F040FB29
:1026D80000BF1837BD4680BD1402002090B5A7B0D2
:1026E80004AFF860B96011461A460B46FB801346E2
:1026F800BB80BB689AB207F174000023F968FFF742
:1027080023FF07F17403C7F88430D7F8840000F07A
:1027180038FB03463B67D7F8840000F042FB0346CA
:10272800FB665DE007F17003184600F073FBC7F81D
:102738008000D7F880309B681846FFF7A8FC03464E
:10274800002B15D0D7F880309B681846FFF7B8FCE7
:1027580003461A46BB8893420CD1D7F880309B6851
:102768001846FFF7A1FC03461A46FB88934201D19D
:10277800012300E00023002B2DD0BB6899B2D7F8C5
:10278800803003F11000D7F880309C68D7F880308B
:10279800DB68B7F898200392BA880292FA88019207
:1027A800009323460246F868FFF78CFDD7F880208F
:1027B80007F1100311465C22184609F090F901232D
:1027C80087F8683007F110031946D7F88000FFF73B
:1027D80047FF002412E007F17003184600F00AFBD7
:1027E80007F16C0207F170031146184600F0EAFA87
:1027F8000346002B96D103F0EDFA012407F1740388
:10280800184600F015FA012C8C37BD4690BD80B5EE
:102818009CB000AFF860B9601346FB80BB689AB201
:1028280007F114000123F968FFF7D6FEFB69002BB6
:1028380001D103F0CFFA3B6A002B03D17B6AFA88F7
:102848005A6310E03B6A042B03D17B6AFA889A63C7
:1028580009E03B6A082B03D17B6AFA88DA6302E055
:102868007B6AFA881A6400BF7037BD4680BD0000D5
:1028780080B582B002AF0023009300234FF080425E
:1028880001219148FFF70CFE0023009300238F4A93
:1028980001218D48FFF704FE0023009304234FF025
:1028A800804202218848FFF7FBFD002300930423A0
:1028B800864A02218448FFF7F3FD0023009308238A
:1028C8004FF0804204218048FFF7EAFD002300937F
:1028D80008237E4A04217C48FFF7E2FD0023009389
:1028E8000C234FF0804208217748FFF7D9FD0023D9
:1028F80000930C23754A08217348FFF7D1FD002384
:1029080000930023724A40216F48FFF7C9FD002356
:10291800009304236E4A80216B48FFF7C1FD002312
:10292800009300236B4A4FF480716748FFF7B8FDA6
:10293800002300930423674A4FF400716248FFF7AD
:10294800AFFD002300930823624A4FF480615E487C
:10295800FFF7A6FD002300930C235E4A4FF40061A5
:102968005948FFF79DFD0023009300234FF0804254
:102978004FF400415448FFF793FD002300930823C8
:10298800534A01215448FFF78BFD002300930C2381
:102998004F4A02215048FFF783FD00230093042388
:1029A8004FF0804208214C48FFF77AFD002300933E
:1029B8000023474A10214848FFF772FD002300937F
:1029C8000423434A20214448FFF76AFD002300936B
:1029D8000023424A40214048FFF762FD002300934C
:1029E80004233E4A80213C48FFF75AFD0023009308
:1029F80008233A4A4FF480713748FFF751FD002306
:102A080000930C23354A4FF400713348FFF748FD13
:102A18000023009308234FF080424FF480612E4832
:102A2800FFF73EFD002300930C234FF080424FF444
:102A380000612948FFF734FD002300930023244A4E
:102A480040212748FFF72CFD002300930023254A47
:102A580040212348FFF724FD0023009304231C4A48
:102A680080211F48FFF71CFD0023009304231D4A03
:102A780080211B48FFF714FD002300930823144A04
:102A88004FF480711648FFF70BFD002300930823CD
:102A9800144A4FF480711248FFF702FD0023009397
:102AA8000C230B4A4FF400710D48FFF7F9FC002383
:102AB80000930C230B4A4FF400710948FFF7F0FC10
:102AC80000BFBD4680BD00BF00080140000C0040AB
:102AD80000040040002C0140000C014000080040A8
:102AE800001001400034014080B483B000AF78602A
:102AF80039607B681A683B681B689A4201D23B6858
:102B080000E07B6818460C37BD4680BC704780B42F
:102B180083B000AF78607B6818460C37BD4680BC30
:102B2800704780B483B000AF78607B6818460C3774
:102B3800BD4680BC704780B582B000AF78607868C9
:102B480000F07DF97B6818460837BD4680BD80B522
:102B580082B000AF7860786800F07DF97B6818462D
:102B68000837BD4680BD80B582B000AF7860786810
:102B780000F07BF9786800F098F97868FFF745FA73
:102B88007B6818460837BD4680BDB0B584B000AF35
:102B9800F860B9607A60FC68B86800F096F9054694
:102BA800786800F092F903461A462946204600F054
:102BB80096F9034618461037BD46B0BD80B582B0B9
:102BC80000AF7860786800F0A2F97B68184600F0DA
:102BD800AAF97B6818460837BD4680BD80B582B023
:102BE80000AF7860786800F0B1F97B68184608375C
:102BF800BD4680BD80B582B000AF78607B6819683B
:102C08007B689A687B681B68D31A9B10074A02FB8B
:102C180003F31A46786800F0A3F97B681846FFF7B3
:102C28006DFC7B6818460837BD4680BDA737BDE9EF
:102C3800B0B582B000AF78607B681C687B685D685F
:102C48007B68184600F09FF903461A462946204635
:102C580000F0A3F97B681846FFF7CCFF7B6818469D
:102C68000837BD46B0BD80B584B000AFF860B96024
:102C78007A60B968FB687A68184600F09CF900BF6A
:102C8800F8681037BD4680BD80B483B000AF786067
:102C980039607B681A683B681B689A4214BF012335
:102CA8000023DBB218460C37BD4680BC704780B5A0
:102CB80082B000AF78607B68184600F0C1F97B6885
:102CC80018460837BD4680BD80B582B000AF786031
:102CD8007B681B680433184600F0C2F9034618469F
:102CE8000837BD4680BD80B582B000AF78603960D6
:102CF8007B685A687B689B689A420DD078687B68C5
:102D08005B683A68194600F0B8F97B685B6803F1BC
:102D18005C027B685A6008E0786800F042F8034675
:102D28003A681946786800F0D1F900BF0837BD46FF
:102D380080BD80B582B000AF786039607B68396843
:102D4800184600F087FA034618460837BD4680BD86
:102D5800B0B584B000AFF860B9607A60FC68B86854
:102D680000F08DFA0546786800F089FA03461A469D
:102D78002946204600F08DFA034618461037BD460E
:102D8800B0BD80B584B000AF78607A6807F10C03F5
:102D98001146184600F095FAFB6818461037BD46EC
:102DA80080BD80B584B000AF78607B681A1D07F1DC
:102DB8000C031146184600F084FAFB6818461037D1
:102DC800BD4680BD90B583B000AF78603960786843
:102DD80000F086FA03461C68386800F081FA03465A
:102DE8001B689C4214BF01230023DBB218460C3732
:102DF800BD4690BD80B483B000AF78607B681B6827
:102E080003F15C027B681A607B6818460C37BD4684
:102E180080BC704780B483B000AF78607B681B6863
:102E280018460C37BD4680BC704780B483B000AFED
:102E380078607B6818460C37BD4680BC704780B503
:102E480082B000AF7860786800F054FA7B68184662
:102E58000837BD4680BD80B483B000AF78607B681A
:102E680018460C37BD4680BC704780B582B000AFAD
:102E78007860786800F048FA03461946786800F0E8
:102E88004EFA7B681A687B685B689B0010461A4696
:102E9800002108F042FD7B680022DA607B6800228E
:102EA8009A6000BF0837BD4680BD80B582B000AFCC
:102EB80078607B6819687B685B681A46786800F0F8
:102EC80046FA00BF0837BD4680BD80B483B000AF66
:102ED80078607B6818460C37BD4680BC7047B0B533
:102EE80084B000AFF860B9607A60B868FFF7EDFFAA
:102EF80004467868FFF7E9FF034622462946F86842
:102F080000F03CFA034618461037BD46B0BD80B500
:102F180082B000AF7860786800F04FFA7B68184696
:102F28000837BD4680BD80B483B000AF78607B6849
:102F380000221A607B6800225A607B6800229A602F
:102F48007B6818460C37BD4680BC704780B483B098
:102F580000AF78607B6818460C37BD4680BC704768
:102F680080B584B000AFF860B9607A60BB68002BA8
:102F780005D0FB687A68B968184600F028FA00BFDF
:102F88001037BD4680BD80B483B000AF78607B68E1
:102F980018460C37BD4680BC704780B584B000AF7A
:102FA800F860B9607A60B968F86800F01FFA00BF85
:102FB8001037BD4680BD80B586B000AFF860B960F7
:102FC8007A607968B86800F01EFA03467B617B690D
:102FD800002B08D107F1140207F114031946F86809
:102FE80000F06CFA28E007F114030021184600F0FD
:102FF8007EFA03463B6104E007F114031846FFF725
:1030080056FE7B69002B0CD03B69191D7B69043384
:103018001A46B86800F07CFA0346002B01D0012359
:1030280000E00023002BE7D107F1140207F1100399
:103038001946F86800F042FAF8681837BD4680BDAE
:1030480080B582B000AF78607B681B68184600F0D6
:103058008CFA02467B681A6000BF0837BD4680BDFF
:1030680080B582B000AF78607B68184600F088FAB7
:10307800034618460837BD4680BD80B584B000AF0A
:10308800F860B9607A60786800F0F9F803461A4683
:10309800B968F86800F080FA00BF1037BD4680BDF7
:1030A80080B582B000AF184600F005F80346184610
:1030B8000837BD4680BD80B483B000AF38710123A6
:1030C80018460C37BD4680BC70470000B0B58CB0C0
:1030D80000AFF860B9607A605C4A0121F86800F0D6
:1030E80075FAB862FB681B687B62FB685B683B62C9
:1030F800F868FFF746FE03467B6107F1140207F103
:1031080008031146184600F0A9FA0346FB61FB685C
:10311800B96A184600F0BCFAB861BB69FB62FC6882
:10312800FB695C2202FB03F3BA69D518786800F0E2
:10313800A6F803461A4629462046FFF79EFF0023B5
:10314800FB62FFF7ADFF0346002B27D007F108030A
:10315800184600F0C5F803461C68FB681846FFF7D8
:1031680012FF0346BA692146786A00F0A5FAF862A8
:10317800FB6A5C33FB6207F10803184600F0B0F8FD
:1031880003461C68FB681846FFF7FDFE0346FA6A0B
:10319800396A204600F090FAF86226E007F1080341
:1031A800184600F09DF803461C68FB681846FFF7B0
:1031B800EAFE0346BA692146786A00F091FAF86295
:1031C800FB6A5C33FB6207F10803184600F088F8D5
:1031D80003461C68FB681846FFF7D5FE0346FA6AE3
:1031E800396A204600F07CFAF862FFF759FF034677
:1031F80083F00103DBB2002B09D0FB681846FFF708
:10320800C2FE03461A46396A786AFFF7C6FEF868AE
:10321800FB689A687B6AD31A9B100D4A02FB03F37A
:103228001A46796AFFF79CFEFB68BA691A60FB6860
:10323800FA6A5A60BB6A5C2202FB03F3BA691A4451
:10324800FB689A6000BF3037BD46B0BD18D600088D
:10325800A737BDE980B584B000AF786039603A46D9
:1032680007F10C031146184600F060FAF96878680F
:1032780000F06DFA034618461037BD4680BD80B48D
:1032880083B000AF78607B6818460C37BD4680BCB9
:103298007047B0B584B000AFF860B9607A60B868BC
:1032A800FFF7EDFF04467868FFF7E9FF034622467B
:1032B8002946F86800F06AFA034618461037BD46F2
:1032C800B0BD80B483B000AF786039603B681A68DD
:1032D8007B681A607B6818460C37BD4680BC70470F
:1032E80080B483B000AF78607B6818460C37BD4661
:1032F80080BC704780B483B000AF78607B681846A4
:103308000C37BD4680BC704780B483B000AF78608E
:103318007B689B6818460C37BD4680BC704780B5F3
:1033280084B000AF7860396009E03B68FB603868BA
:1033380000F01BF93860F968786800F046FA3B68D5
:10334800002BF2D100BF00BF1037BD4680BD80B54D
:1033580084B000AFF860B9607A60B968F86800F0C6
:103368004FFA0346002B05D17A68B968F86800F06F
:103378005EFA00E000BF1037BD4680BDF0B587B0EB
:1033880002AFF86039727A603B60F86800F072FA50
:1033980004467868FFF799FD05463868FFF795FDFC
:1033A800034600932B4632462146F86800F071FA2E
:1033B800034618461437BD46F0BD80B483B000AF4D
:1033C80078607B6818460C37BD4680BC704780B56E
:1033D80084B000AFF860B9607A607A68B968F86854
:1033E80000F095FA00BF1037BD4680BD80B582B0A9
:1033F80000AF786039603968786800F09AFA00BFE1
:103408000837BD4680BD90B589B000AF7860396097
:10341800786800F098FA044600F0A0FA03469C4247
:1034280094BF01230023DBB2002B2BD0786800F077
:103438009CFA0346FB6010E0FB6804331A463968BF
:10344800786800F0B4FA0346002B01D0FB6831E03D
:1034580007F10C031846FFF72AFC786800F098FA81
:1034680003463B6107F1100207F10C0311461846A9
:10347800FFF70AFC0346002BDED1786800F088FAD3
:10348800034617E03968786800F0B1FAF861F9691D
:10349800786800F0BEFAB861FB693A68B96978687B
:1034A80000F0C8FA024607F114031146184600F066
:1034B800DAFA7B6918462437BD4690BD80B584B0DA
:1034C80000AFF860B9607A60B86800F0DBFA0246CD
:1034D800FB6812681A60786800F0D4FA0246FB6844
:1034E80012685A60FB6818461037BD4680BD80B523
:1034F80084B000AF786039607B681B68FB607B68CC
:103508001846FFF79DFDFB6818461037BD4680BD7D
:1035180080B586B000AFF860B9607A60BB6803F127
:10352800B8027B68B8331946104600F0B5FA03466E
:10353800002B15D0BB68184600F0C1FA024607F107
:1035480014031146184600F0C6FA03467A6819466D
:10355800F86800F02CFA0346002B01D0012300E0A4
:10356800002318461837BD4680BD80B483B000AF2D
:1035780078607B681B6818460C37BD4680BC70476E
:1035880080B582B000AF7860786800F0B1FA034681
:1035980018460837BD4680BD90B585B000AFF860C5
:1035A800B9607A60BB6819465C20FEF716FC0446D1
:1035B8007868FFF764FE0346204619465C231A46DE
:1035C80008F08DFA00BF1437BD4690BD90B587B09E
:1035D80000AFF860B9607A60F86800F093FA0446C2
:1035E800F86800F0A1FA0346E21ABB689A4234BFB1
:1035F80001230023DBB2002B02D0786805F08DFF91
:10360800F86800F091FA0446F86800F08DFA03466D
:103618003B6107F1080207F1100311461846FFF74E
:1036280063FA03461B6823447B61F86800F07CFA60
:1036380002467B69934206D3F86800F063FA0246B3
:103648007B69934204D9F86800F05CFA034600E00D
:103658007B6918461C37BD4690BD000090B583B005
:1036680000AF786039607868FFF73AFE03461C6857
:103678003868FFF735FE03461B68E31A9B10034AB8
:1036880002FB03F318460C37BD4690BDA737BDE9CA
:1036980080B582B000AF786039603B68002B06D0F7
:1036A8007B683968184600F053FA034600E00023A7
:1036B80018460837BD4680BD90B587B002AFF860A0
:1036C800B9607A603B608DF800403B687A68B968F9
:1036D800F86800F04CFA034618461437BD4690BD0A
:1036E80090B585B000AFF860B9607A603B60F86863
:1036F80000F04FFA0446B86800F04BFA01463B6800
:103708007A68204600F054FA034618461437BD4636
:1037180090BD80B582B000AF78603960396878684C
:1037280000F057FA00BF0837BD4680BD80B582B0AB
:1037380000AF786039607A683B681B6819461046A4
:1037480000F051FA7B6818460837BD4680BD80B541
:1037580086B000AF786039603B687B617B69043371
:103768001946786800F04DFA38617A6939697868DD
:1037780000F058FAF8607B69FA683969786800F0EF
:103788006DFA034618461837BD4680BDF0B587B0B8
:1037980002AFF86039727A603B60F86800F06AF846
:1037A80004467868FFF76BFD05463868FFF767FD44
:1037B800034600932B4632462146F86800F0ADFADE
:1037C800034618461437BD46F0BD90B583B000AF28
:1037D80078603960786800F0DEFA04463B680433A4
:1037E8001846FFF73DFC03461946204600F0DFFA6D
:1037F8003968786800F0E8FA00BF0C37BD4690BD1C
:1038080080B483B000AF786039607B6818333A6859
:103818009A420CBF01230023DBB2002B14BF012303
:103828000023DBB218460C37BD4680BC704780B514
:1038380086B000AFF860B9607A60B86800F0DAFA6C
:103848007861F86800F0A7FA024607F110031146FC
:10385800184600F0DBFA07F110037A687969184610
:1038680000F0EDFA07F11003184600F0DCFA1837FB
:10387800BD4680BD80B584B000AF786007F10C0309
:103888000021184600F0EAFAFB6818461037BD46D2
:1038980080BD90B58DB000AFF860B9603A713B60FB
:1038A8003868FFF712FB0446386CFFF70EFB034637
:1038B80007F120002246F96800F0DFFA7B6A04333A
:1038C800184600F00FFB024607F128031146184678
:1038D80000F014FBF86207F11800FB6ABA68F9688F
:1038E80000F019FBB969FA697B6AF86800F0ABFB6C
:1038F80003467B6100237B627C6907F1200318463D
:1039080000F0DBFA234618463437BD4690BD80B533
:1039180084B000AFF860B9607A607B685C2202FB13
:1039280003F31946B86805F0DFFD00BF1037BD4640
:1039380080BD80B483B000AF7860396000BF0C37B9
:10394800BD4680BC704780B483B000AF78607B68A8
:10395800DB6818460C37BD4680BC704780B500AFA1
:1039680000F027FC0346184680BD80B584B000AF40
:1039780078607868FFF7C8FC024607F10C03114627
:10398800184600F070F8FB6818461037BD4680BD31
:1039980080B584B000AF786007F10C0300211846A9
:1039A80000F061F8FB6818461037BD4680BD90B539
:1039B80087B000AFF860B9607A60F86800F000FC82
:1039C80004467B68184600F07AF8024607F11403AB
:1039D8001146184600F07FF803461A46B968204693
:1039E80000F0FAFB034618461C37BD4690BD80B56B
:1039F80082B000AF78603960786800F0FCFB03465D
:103A080039681846FEF7ACFA034618460837BD462B
:103A180080BD80B582B000AF786039607B685B6834
:103A28001A463968786800F0F2FB034618460837EA
:103A3800BD4680BD80B586B000AFF860B9607A60D9
:103A48003B603B687A68B968F86800F0F2FB786117
:103A58007B69002B02D07B691B6800E000231846B5
:103A68001837BD4680BD80B582B000AF7860396038
:103A78007B683968184600F0B6F87B68184608373E
:103A8800BD4680BD80B483B000AF78607B681846BF
:103A98000C37BD4680BC704780B483B000AF7860F7
:103AA80039607B681A683B681B689A420CBF01231F
:103AB8000023DBB218460C37BD4680BC704780B582
:103AC80082B000AF7860786800F0F8FB03461846CB
:103AD8000837BD4680BD80B582B000AF78603960D8
:103AE800386800F0F8FB034618460837BD4680BD25
:103AF80080B483B000AF78607B6818460C37BD4649
:103B080080BC704780B582B000AF78607B6818468B
:103B180000F008FC0346184600F0E8FB0346184688
:103B28000837BD4680BD000080B483B000AF786020
:103B38007B685A687B681B68D31A9B10034A02FB90
:103B480003F318460C37BD4680BC7047A737BDE95C
:103B580080B582B000AF7860396000223968786833
:103B680000F0EAFB034618460837BD4680BD80B51D
:103B780084B000AFF860B9607A603B603B687A68EF
:103B8800B968F86800F006FC034618461037BD46C9
:103B980080BD80B584B000AF786007F10C03796808
:103BA800184600F014FCFB6818461037BD4680BD67
:103BB80080B584B000AFF860B9607A603B607A681D
:103BC800B968F86800F015FC034618461037BD467A
:103BD80080BD80B483B000AF7860396000BF0C3717
:103BE800BD4680BC704780B483B000AF7860396050
:103BF8007B683A681A607B6818460C37BD4680BCFB
:103C0800704780B582B000AF786039607B685B68C8
:103C18001A463968786800F000FC034618460837E9
:103C2800BD4680BD80B487B000AFF860B9607A60E7
:103C3800FB681A68BB689B0013441B687B6102E041
:103C48007B691B687B617B691B687A689A42F7D13C
:103C58007B6918461C37BD4680BC704790B587B055
:103C680000AFF860B9607A603B60FB681A68BB68AF
:103C78009B0013441B687A689A4219D13868FFF789
:103C880074FC04463B681B68002B0AD03868FFF7B1
:103C98006CFC034604331946F868FFF7B2FF034685
:103CA80000E000232246B968F86800F0CAFB18E073
:103CB8003B681B68002B14D03868FFF756FC034696
:103CC80004331946F868FFF79CFF78617A69BB6886
:103CD8009A4206D0FB681A687B699B0013447A688D
:103CE8001A603B681A687B681A603868FFF73DFC01
:103CF800024607F1100311461846FFF7B4FE39686B
:103D0800F868FFF762FDFB68DB685A1EFB68DA603B
:103D18003B6918461C37BD4690BD90B58DB000AFC5
:103D2800F860B9603A713B603868FFF7A8FA044652
:103D3800386CFFF7A4FA034607F120002246F96819
:103D480000F0B6FB7B6A0433184600F0CBF8024655
:103D580007F128031146184600F0D0F8F86207F179
:103D68001800FB6ABA68F96800F0D5F8B969FA6909
:103D78007B6AF86800F067F903467B6100237B6281
:103D88007C6907F12003184600F097F82346184687
:103D98003437BD4690BD80B582B000AF7860786892
:103DA80000F0A6FB034618460837BD4680BD80B51F
:103DB80082B000AF786039603968786800F0A2FB9B
:103DC80000BF0837BD4680BD80B584B000AF7860BD
:103DD8003960386800F0A0FBF8607868FFF7DBFF0F
:103DE80003460122F968184600F0A2FB00BF10370D
:103DF800BD4680BD80B582B000AF7860786800F0BD
:103E0800A6FB034618460837BD4680BD80B582B07C
:103E180000AF78603960786800F0A5FB7B681846C9
:103E28000837BD4680BD80B582B000AF786078683D
:103E380000F0A3FB7B6818460837BD4680BD80B5F7
:103E480084B000AFF860B9607A607A68B968F868D9
:103E580000F09DFB00BF1037BD4680BD80B582B025
:103E680000AF786039607B6839681846FFF7BBFE99
:103E78007B6818460837BD4680BDB0B584B000AF32
:103E8800F860B9607A603B60FB68BA681A60BC6821
:103E98007868FFF71AF805463868FFF716F80346FA
:103EA8001A462946204600F08FFB0246FB685A60F6
:103EB800FB6818461037BD46B0BD80B582B000AF6C
:103EC80078607B685B68002B07D07B681A687B6822
:103ED8005B6819461046FFF778FC7B681846083778
:103EE800BD4680BD80B582B000AF78607868FFF7C6
:103EF800B7F8034618460837BD4680BD80B582B07E
:103F080000AF78603960386800F096FB03461846C1
:103F18000837BD4680BD90B58DB000AFF860B96078
:103F28007A603B60B868FFF70EFD0446FFF716FDA0
:103F380003469C4294BF01230023DBB2002B71D0BF
:103F4800B868FFF797FC0346FB6107F11C023B1DAD
:103F580011461846FEF798FE0346002B32D07B68C0
:103F6800BB611FE0BB6904331A463968B868FFF7BC
:103F78001EFD0346002B10D0BB6904331946B868F0
:103F880000F071FB03463B6207F1200207F11803BA
:103F98001946F86800F074FB51E007F11803184659
:103FA80000F054FBB868FFF765FC03467B6207F135
:103FB800240207F1180311461846FEF765FE03466A
:103FC800002BCFD1B86800F074FB03467B611FE07B
:103FD8007B6904331A463968B868FFF7E8FC03467A
:103FE800002B10D07B6904331946B86800F03BFBFE
:103FF8000346BB6207F1280207F114031946F86863
:1040080000F03EFB1BE007F11403184600F01EFB0E
:104018003A1D07F1140311461846FEF735FE03460C
:10402800002BD5D13968B868FFF7E1FC0346FB627D
:1040380007F12C023B1D1946F86800F021FBF868CF
:104048003437BD4690BD90B591B002AFF860B96005
:104058007A603B60FB6810331846FDF712FF034691
:10406800BB6107F118037B63FB6803F11001FB6870
:104078005A68FB68DB6807F110000124009405F01A
:104088008FFA3B7C002B05D07B697A6B1946F86860
:1040980000F022FB3B68BC337A681946F86800F0E8
:1040A8002AFB3B6804331846FFF71CFF024607F15A
:1040B8001C0311461846FFF721FF38637968F86832
:1040C800FFF7A7FCF862BB68002B14BF012300238D
:1040D800DBB2002B0CD0BB6804337A68396BF86804
:1040E80000F017FB034683F00103DBB2002B07D077
:1040F8007B683A6BF96AF86800F09BF8034600E0C1
:10410800BB68BB62BB6A002B3ED0BB6A1A683B68BF
:104118001A60BB6A3A681A60BA6ABB689A420CBFEE
:1041280001230023DBB2002B33D03B681B68002B34
:1041380011D03868FFF719FA034604337A68396BE7
:10414800F86800F0E6FA034683F00103DBB2002BBF
:1041580001D0012300E00023002B1AD03868FFF7B4
:1041680004FA034604331946F868FFF74AFD7862F3
:104178007A6AFB6A9A420CD0FB681A687B6A9B00D1
:1041880013443A681A6004E03A68F96AF86800F07B
:10419800DFFAFB68DB685A1CFB68DA6007F120036A
:1041A80039681846FFF75FFC3B6A18463C37BD463E
:1041B80090BD80B400AF00231846BD4680BC704750
:1041C80080B582B000AF7860786800F008FB0346DD
:1041D80018460837BD4680BD80B584B000AFF8608A
:1041E800B9607A607968B868FDF7A1FE0346184699
:1041F8001037BD4680BD80B582B000AF7860786862
:1042080000F0F7FA034618460837BD4680BD80B56A
:1042180086B000AFF860B9607A6007F114037A6875
:10422800B9681846FDF709FE034618461837BD4613
:1042380080BD80B586B000AFF860B9607A603B6039
:10424800FB681A68BB689B0013441B687B617B6929
:10425800002B01D100232DE07B691B683B613B6982
:1042680004333A687968F86800F053FA0346002B7B
:1042780001D07B691EE03B691B68002B0CD03869B4
:10428800FFF773F9034604331946F868FFF7B9FCDA
:104298000246BB68934201D0012300E00023002BB3
:1042A80006D13B697B613869FFF75FF93861D6E76A
:1042B80000BF002318461837BD4680BD80B582B0C0
:1042C80000AF78607B68184600F09DFA03461846F0
:1042D8000837BD4680BD80B483B000AF78607B6886
:1042E80018460C37BD4680BC7047000080B584B0C6
:1042F80000AF78600A4BFB60786800F090FA0346DC
:10430800BB6007F1080207F10C0311461846FDF7D8
:10431800C3FD03461B6818461037BD4680BD00BF65
:10432800852C640180B483B000AF78607B68184640
:104338000C37BD4680BC704780B584B000AFF860CC
:10434800B9607A60F86800F077FA0246BB68934271
:104358008CBF01230023DBB2002B14BF01230023F1
:10436800DBB2002B07D0BB68094A934201D905F09C
:10437800D1F805F0CCF8BB685C2202FB03F31846C1
:1043880005F0B4F8034618461037BD4680BD00BF97
:104398000B59C802B0B584B000AFF860B9607A6054
:1043A8003B60F86800F054FA0446B86800F050FA28
:1043B8000546786800F04CFA02463B6829462046D4
:1043C80000F050FA034618461037BD46B0BD80B518
:1043D80082B000AF786039603B46184600F068FA52
:1043E80003461A687B681A607B6818460837BD461A
:1043F80080BD80B586B000AFF860B9607A600023F0
:10440800FB750023BB757A68B968F86800F05AFA3A
:10441800034618461837BD4680BD80B586B000AF44
:10442800F860B9607A60BB68D3F8B81007F1140374
:104438007A681846FDF701FD034618461837BD4649
:1044480080BD80B485B000AFF860B9607A603B6029
:104458007B68002B03D03A68BB689A4223D07B68FC
:10446800002B0BD0FB681A68BB689B001A44FB68DA
:1044780019683B689B000B4412681A60FB6803F1DB
:104488000802FB681968BB689B000B441B689A42CA
:1044980002D1FB687A689A60FB681A68BB689B005F
:1044A800134400221A6000BF1437BD4680BC704711
:1044B800B0B584B000AFF860B9607A603B60FB6863
:1044C800BA681A60BC687868FEF7D9FE054638688D
:1044D800FEF7D5FE03461A462946204600F002FAA2
:1044E8000246FB685A60FB6818461037BD46B0BDE7
:1044F80080B483B000AF78607B6818460C37BD463F
:1045080080BC704780B483B000AF7860396000BF6A
:104518000C37BD4680BC704780B582B000AF78606C
:10452800786800F017FA034618460837BD4680BD7C
:1045380080B584B000AFF860B9607A607A68B9680D
:10454800F86800F013FA00BF1037BD4680BD80B58B
:1045580082B000AF7860786800F01BFA034618460E
:104568000837BD4680BD80B483B000AF78607B68F3
:1045780018460C37BD4680BC704780B483B000AF86
:1045880078607B6818460C37BD4680BC704780B59C
:1045980084B000AFF860B9607A607B689B00194608
:1045A800B86804F0A1FF00BF1037BD4680BD80B5D4
:1045B80082B000AF78607B681846FDF731FC7B68F5
:1045C80018460837BD4680BDF0B587B000AFF86023
:1045D800B9607A60F868FFF7DEFB034601211846E8
:1045E80000F0E1F97861786900F0ECF938613B692D
:1045F8001946C020FDF7F1FB03461846FFF7D7FF21
:10460800F868FFF7C8FB04463B6904331846FEF711
:1046180027FD0546B868FEF758FC06467868FEF799
:1046280054FC034632462946204600F0D5F93B693A
:1046380018461C37BD46F0BD80B483B000AF786023
:104648007B6818460C37BD4680BC704780B582B081
:1046580000AF78607B681846FEF7F2FC7B68184666
:104668000837BD4680BD80B483B000AF786039603C
:104678003B68D3F8B83018460C37BD4680BC704745
:1046880080B584B000AFF860B9607A60B86800F0AF
:10469800BBF90246FB6812681A607868FEF7C5FB2A
:1046A80003461A68FB685A60FB6818461037BD460F
:1046B80080BD80B584B000AF78607868FEF724FECE
:1046C800024607F10C0311461846FFF7C7FBFB68C3
:1046D80018461037BD4680BD80B584B000AFF8607D
:1046E800B9607A601A46B968F86800F097F900BFAF
:1046F8001037BD4680BD80B485B000AFF860B960A2
:104708007A60BB687A681A6000BF1437BD4680BCFF
:10471800704780B584B000AFF860B9607A603B60DC
:104728003B68B8331946786800F036FA0346002B20
:1047380009D03A68B968F868FFF739F90346002BD9
:1047480001D0012300E0002318461037BD4680BD84
:1047580090B585B000AFF860B9607A60FB681A68F8
:10476800BB689B0013441B68002B11D0FB681A68B8
:10477800BB689B0013441B681A687B681A60FB6857
:104788001A68BB689B0013441B687A681A6022E0A9
:10479800FB689A687B681A60FB687A689A607B682D
:1047A8001B68002B0FD0FB681C687868FEF7DDFEDD
:1047B800034604331946F868FFF723FA03469B00BB
:1047C80023447A681A60FB681A68BB689B00134424
:1047D800FA6808321A6000BF1437BD4690BD80B42D
:1047E80083B000AF78607B6818460C37BD4680BC44
:1047F800704780B483B000AF78607B6818460C3788
:10480800BD4680BC704780B582B000AF78607868DC
:1048180000F0D4F9034618460837BD4680BD80B578
:1048280082B000AF7860786800F0D2F90346184685
:104838000837BD4680BD000080B483B000AF786003
:10484800024B18460C37BD4680BC7047852C640166
:1048580080B483B000AF78607B6818460C37BD46DB
:1048680080BC704790B587B000AFF860B9607A60D7
:104878003B607B687B6112E0786900F0B5F904461B
:10488800F86800F0B1F903463A681946204600F086
:10489800B5F9FB685C33FB607B695C337B61FA6864
:1048A800BB689A42E8D17B6918461C37BD4690BD63
:1048B80080B483B000AF78607B6818460C37BD467B
:1048C80080BC704780B584B000AFF860B9607A608A
:1048D8007A68B968F86800F0ACF9034618461037EA
:1048E800BD4680BDF0B587B000AFF860B9607A60AA
:1048F800F868FFF750FA03460121184600F053F80C
:104908007861786900F05EF838613B691946C02023
:10491800FDF763FA03461846FFF749FEF868FFF704
:104928003AFA04463B6904331846FEF799FB0546F4
:10493800B868FEF7A4FC06467868FEF7A0FC0346B4
:1049480032462946204600F0A3F93B6918461C3731
:10495800BD46F0BD80B582B000AF7860786800F0E1
:10496800AFF9034618460837BD4680BD80B584B008
:1049780000AFF860B9607A607A6813465B00134448
:104988009B011946B86804F0AFFD00BF1037BD465B
:1049980080BD80B483B000AF78607B6818460C3760
:1049A800BD4680BC704780B582B000AF7860396082
:1049B80000223968786800F08DF9034618460837F0
:1049C800BD4680BD80B483B000AF78607B68184670
:1049D8000C37BD4680BC704790B585B000AFF86015
:1049E800B9607A603B607868FEF76FFA0446386809
:1049F800FEF76BFA03462246B968F86800F098F9A2
:104A080000BF1437BD4690BD80B483B000AF786056
:104A18007B6818460C37BD4680BC704780B58EB0A1
:104A280000AFF860B9603A71B968F86800F09EF9AB
:104A38003862F868FEF768FC7863FB6800229A60C1
:104A480000233B630023FB620023BB62002387F83B
:104A5800273074E0786BFEF788FDB8617B6B043310
:104A6800BA681946F868FFF7D8FC7861BB6A002B6A
:104A78000ED0FA6A7B699A420AD1BB6A1A687B6BC4
:104A88001A60BB6A7A6B1A60012387F8273050E0F6
:104A980097F82730002B1BD0BB6A1B68002B14D05B
:104AA800B86AFEF762FD03460433BA681946F86827
:104AB800FFF7B3FC38613A69FB6A9A4205D03B6953
:104AC8009B003A6A1344BA6A1A60002387F82730B1
:104AD8007B699B003A6A13441B68002B1AD1FB6858
:104AE8009A687B6B1A60FB687A6B9A607B699B009B
:104AF8003A6A1344FA6808321A607B6B1B68002B09
:104B080005D03B6B9B003A6A13447A6B1A607B6949
:104B18003B630EE07B699B003A6A13441B681A6882
:104B28007B6B1A607B699B003A6A13441B687A6B3B
:104B38001A607B6BBB627B69FB62BB697B637B6BC7
:104B4800002B87D197F82730002B18D0BB6A1B6839
:104B5800002B14D0B86AFEF708FD03460433BA6880
:104B68001946F868FFF759FCF861FA69FB6A9A4236
:104B780005D0FB699B003A6A1344BA6A1A60F86860
:104B8800FEF793F9FB68BA685A60FB683A6A1A60DC
:104B980000BF3837BD4680BD80B483B000AF7860B1
:104BA80039603B681B687A689A420CBF012300236E
:104BB800DBB218460C37BD4680BC704780B483B062
:104BC80000AF78607B6818460C37BD4680BC7047DC
:104BD80080B582B000AF78607868FFF72DFE034695
:104BE80018460837BD4680BD80B483B000AF7860F2
:104BF8007B6818460C37BD4680BC704780B584B0CA
:104C080000AFF860B9607A60B86800F0CCF8034685
:104C18001A46F968786800F0D0F8B868FFF7E4FF3A
:104C2800034619467868FEF774FD00BF1037BD4685
:104C380080BD90B587B000AFF860B9607A607B68D6
:104C48007B6115E07869FFF7CFFF044607F10C0395
:104C5800184600F0E6F803461946204600F0ECF83E
:104C680007F10C03184600F0CCF87B695C337B61D4
:104C780007F1080207F10C031146184600F0B0F8D6
:104C88000346002BDED17B6918461C37BD4690BD14
:104C980090B585B000AFF860B9607A603B6078681D
:104CA800FEF7EDFA04463868FEF7E9FA03462246AD
:104CB800B968F86800F0D9F800BF1437BD4690BD50
:104CC80080B483B000AF78607B6818460C37BD4667
:104CD80080BC704780B584B000AFF860B9607A6076
:104CE800F86800F0E1F80246BB6893428CBF0123E4
:104CF8000023DBB2002B14BF01230023DBB2002BFF
:104D080007D0BB68094A934201D904F003FC04F0B8
:104D1800FEFBBA6813465B0013449B01184604F077
:104D2800E5FB034618461037BD4680BD555555016D
:104D3800B0B584B000AFF860B9607A603B60BB681A
:104D48001946B820FDF749F804467868FEF7BDF81B
:104D580005463868FEF7B9F803461A46294620463C
:104D680000F0AEF800BF1037BD46B0BD80B582B0C8
:104D780000AF786039603B68012B0CBF012300232A
:104D8800DBB2002B05D07B6800229A617B68183360
:104D980005E03968786800F0B4F8034600BF1846A3
:104DA8000837BD4680BD80B483B000AF78607B68AB
:104DB80018460C37BD4680BC704780B584B000AF3C
:104DC800F860B9607A607868FEF77FF803461A469B
:104DD800B968F86800F0C2F800BF1037BD4680BD5A
:104DE80080B582B000AF786039603968786800F0C3
:104DF800CFF8034683F00103DBB218460837BD46F7
:104E080080BD80B483B000AF78607B681B6803F115
:104E18005C027B681A607B6818460C37BD4680BC0C
:104E2800704780B483B000AF78607B681B68184611
:104E38000C37BD4680BC704790B583B000AF786032
:104E480039607B6819465C20FCF7C7FF0446386860
:104E5800FEF73BF80346204619465C231A4606F03F
:104E68003EFE00BF0C37BD4690BDB0B584B000AF64
:104E7800F860B9607A603B60BB681946B820FCF7F7
:104E8800ACFF04467868FEF7FAF905463868FEF77D
:104E9800F6F903461A462946204600F08FF800BF67
:104EA8001037BD46B0BD000080B483B000AF786055
:104EB800024B18460C37BD4680BC7047AAAAAA0008
:104EC80080B584B000AFF860B9607A60B868FDF763
:104ED800FCFF0246FB68184611465C231A4606F09A
:104EE800FEFD7868FDF7F1FF0246FB685C3311466A
:104EF8005C22184606F0F3FDFB6818461037BD46DD
:104F080080BD90B587B000AF786039607868FEF7EB
:104F180042FF024607F10C0311461846FEF776FFDA
:104F280007F10C033968184600F063F8786178696E
:104F380000F06EF838613B689B003A6910461A46E3
:104F4800002106F0EAFC3C6907F10C031846FEF75D
:104F58006AFF234618461C37BD4690BD90B585B0FC
:104F680000AFF860B9607A60BB6819465C20FCF74E
:104F780034FF04467868FDF7A8FF03462046194623
:104F88005C231A4606F0ABFD00BF1437BD4690BD42
:104F980090B583B000AF78603960786800F042F867
:104FA8000446386800F03EF803469C420CBF0123D3
:104FB8000023DBB218460C37BD4690BD80B584B0DF
:104FC80000AFF860B9607A60FA68BB6810461946A5
:104FD8005C231A4606F083FDFB687A685C33114649
:104FE8005C22184606F07BFDFB6818461037BD4664
:104FF80080BD80B582B000AF786039600022396822
:10500800786800F01AF8034618460837BD4680BD90
:1050180080B483B000AF78607B6818460C37BD4613
:1050280080BC704780B483B000AF78607B681B6831
:1050380018460C37BD4680BC704780B584B000AFB9
:10504800F860B9607A60F86800F020F80246BB683A
:1050580093428CBF01230023DBB2002B14BF012332
:105068000023DBB2002B07D0BB68B3F1804F01D31C
:1050780004F050FA04F04BFABB689B00184604F0A1
:1050880035FA034618461037BD4680BD80B483B054
:1050980000AF78606FF0604318460C37BD4680BC9F
:1050A800704780B582B000AF78607B681846FDF71E
:1050B8005AFD7B6818460837BD4680BD80B582B06A
:1050C80000AF786039607B68012B07D13B684FF6E9
:1050D800FF72934202D10948FCF7CCFF7B68002B92
:1050E80007D13B684FF6FF72934202D10348FFF79E
:1050F800D8FF00BF0837BD4680BD00BF140200209E
:1051080080B500AF4FF6FF710120FFF7D7FF80BDD4
:1051180080B500AF4FF6FF710020FFF7CFFF80BDCD
:1051280080B483B000AF78607B681B68064A9342FE
:1051380004D1064B1B680133044A136000BF0C37C7
:10514800BD4680BC704700BF001000403002002000
:1051580080B485B000AFF860B9607A607B80FB6886
:10516800BA681A60FB687A685A60FB687A881A819C
:10517800FB683A7E9A72FB6818461437BD4680BCB5
:105188007047000080B582B000AF154B1B78002B2C
:1051980010D16423FB71124B01221A7001F046FBF7
:1051A8000346104A1360FB1D012219460E4803F0FE
:1051B800DFFB11E001F03AFB02460A4B1B68D31AE9
:1051C80040F2DB5293428CBF01230023DBB2002B59
:1051D80002D0034B00221A7000BF0837BD4680BDBD
:1051E8004A030020580300201C05002080B582B027
:1051F80000AF144B1B78002B0BD17A23FB71114B9A
:1052080001221A70FB1D012219460F4803F0B0FB5A
:1052180011E001F00BFB02460C4B1B68D31A40F659
:10522800B73293428CBF01230023DBB2002B02D09C
:10523800044B00221A70064BB3F9003018460837A1
:10524800BD4680BD5C030020640500206403002087
:105258006203002080B584B000AF7860084611462C
:105268001A460346FB700B46BB7013467B70BB782F
:10527800DB01DAB2FB781344FB7007F10C03002161
:105288000A461A800A469A70FF23BB73FB783B7361
:105298007B787B7307F10C010A230322786803F0FB
:1052A800DCFA00BF1037BD4680BD000080B582B073
:1052B80000AF78607B681A68384B1B689A4245D102
:1052C800374B1B78032B41D801A252F823F000BFBB
:1052D80035530008E9520008015300081D5300081F
:1052E800304B00221A702E4B00221A700C222E49C5
:1052F8002A4803F03DFB29E0294B03221A702B486A
:10530800FAF78EFF03469BB21A462849234803F052
:105318002FFB1BE0234B01221A70214B00221A702D
:10532800012223491D4803F023FB0FE01D4B1B7886
:10533800002B05D001221F49184803F04EFB04E05A
:105348000C221D49154803F048FB00BF7B681A680A
:105358001A4B1B689A4204D102221949786803F053
:105368003CFB7B681A68174B1B689A4212D1164B94
:105378001B78012B07D101221449124803F02DFB99
:10538800114B02221A70104B1B78042B02D10E4BC2
:1053980000221A7000BF0837BD4680BD3C060020B9
:1053A8004C02002068030020340200205002002034
:1053B8000000002001000020400200201C05002001
:1053C8004C030020640500205C03002060030020DB
:1053D80080B582B000AF78607B681A68394B1B686B
:1053E8009A4202D1384B01221A707B681A68374BEF
:1053F8001B689A423ED1364B1B78052B3AD801A23E
:1054080052F823F075540008255400083754000852
:10541800495400085B5400086D5400082C4B0222C4
:105428001A7002222B49786803F0D7FA22E0284B39
:1054380003221A7002222849786803F0CEFA19E08C
:10544800234B04221A7002222449786803F0C5FA13
:1054580010E01F4B05221A7002222149786803F0D8
:10546800BCFA07E01A4B00221A7003E0164B01221F
:105478001A7000BF7B681A681A4B1B689A421DD1C4
:10548800194B1B78022B07D101221849154803F044
:10549800A4FA154B03221A70134B1B78032B0DD15A
:1054A800134B1B781B021AB2114B5B781BB21343C8
:1054B8001AB2104B1A800C4B00221A7000BF083722
:1054C800BD4680BD3C060020010000201C050020D0
:1054D8004A0300204E0300205003002052030020FE
:1054E80054030020640500205C03002061030020B1
:1054F800600300206203002080B584B002AF7860AA
:1055080039607B68012B16D13B684FF6FF729342D6
:1055180011D1002300930023094A0A490A48FFF7DA
:1055280017FE0023009300234FF000024FF0000104
:105538000648FFF70DFE00BF0837BD4680BD00BF17
:105548000000A0400000204134020020400200205A
:1055580080B500AF4FF6FF710120FFF7CDFF80BD8A
:1055680080B586B002AFF860B9607A603B60FB68CE
:10557800BA681A60FB687A685A60FB683A689A6089
:10558800FB68BA69DA60FB6801221A75FB680022B9
:105598005A75234B1B78002B04D0FDF769F9204B73
:1055A80000221A70FB68BA8BDA82FB6801221A752E
:1055B80003227968B868FCF7E7FB0023009340F200
:1055C8002B133722B9693868FDF788F87B689BB2D6
:1055D80001221946B86801F03BFDFB68B3F91630A3
:1055E800002B09DDFB68B3F916309BB2A3F5617394
:1055F8009BB21AB2FB681A83FB68B3F91630002B0A
:1056080009DAFB68B3F916309BB203F561739BB2F4
:105618001AB2FB681A83FB6818461037BD4680BD6E
:105628000200002080B485B000AFF860B96013466E
:10563800FB71FB6800221A60FB6800225A60FB6855
:1056480000229A60FB680022DA60FB68BA681A6177
:10565800FB6801221A75FB68FA795A75FB68002203
:105668001A75FB6818461437BD4680BC70470000A1
:1056780080B500AF01F082F800F02AF800F05AFB7C
:1056880000F02AFB00F09EFA00F0CAFA00F0D2F807
:1056980000F08CF900F0F2FA00F0E6F900F024FAD4
:1056A80000F066F800F024F900F05EFA3C210648A4
:1056B80002F0FAFA3C21054802F0F6FAFFF762FD1B
:1056C800FCF77EF900BFF9E744040020B40300208A
:1056D80080B590B000AF07F11803282200211846C2
:1056E80006F01BF93B1D00221A605A609A60DA60C6
:1056F8001A610123BB614FF48033FB6100233B62D5
:105708000123BB6202237B634FF48033BB634FF4F6
:10571800E013FB6307F11803184601F0B1FC0346D8
:10572800002B14BF01230023DBB2002B01D000F0B3
:1057380051FB0F237B600223BB600023FB604FF407
:1057480080633B6100237B613B1D0221184601F009
:1057580019FF0346002B14BF01230023DBB2002BE3
:1057680001D000F037FB00BF4037BD4680BD0000C8
:1057780080B58CB000AF07F10C0324220021184635
:1057880006F0CBF83B1D00221A605A60274B284AC6
:105798001A60264B00225A60244B00229A60234B41
:1057A8004FF6FF72DA60214B00221A611F4B00226C
:1057B8005A611E4B00229A610323FB6000233B6160
:1057C80001237B610023BB610023FB6100233B6253
:1057D80001237B620023BB620023FB6207F10C03F9
:1057E8001946124802F0BEF90346002B14BF0123E4
:1057F8000023DBB2002B01D000F0ECFA00237B6021
:105808000023BB603B1D1946084802F007FF03460A
:10581800002B14BF01230023DBB2002B01D000F0C2
:10582800D9FA00BF3037BD4680BD00BF6C030020E9
:10583800002C014080B58CB000AF07F10C03242286
:105848000021184606F069F83B1D00221A605A60CC
:10585800264B4FF080421A60244B00225A60234B9B
:1058680000229A60214B4FF6FF72DA601F4B00222C
:105878001A611E4B00229A610323FB6000233B61DF
:1058880001237B610023BB610023FB6100233B6292
:1058980001237B620023BB620023FB6207F10C0338
:1058A8001946124802F05EF90346002B14BF012383
:1058B8000023DBB2002B01D000F08CFA00237B60C0
:1058C8000023BB603B1D1946084802F0A7FE0346AB
:1058D800002B14BF01230023DBB2002B01D000F002
:1058E80079FA00BF3037BD4680BD00BFB403002041
:1058F80080B58CB000AF07F10C03242200211846B4
:1059080006F00BF83B1D00221A605A60254B264A08
:105918001A60244B00225A60224B00229A60214BC5
:105928004FF6FF72DA601F4B00221A611D4B0022EE
:105938009A610323FB6000233B6101237B61002301
:10594800BB610023FB6100233B6201237B620023D0
:10595800BB620023FB6207F10C031946114802F0F1
:1059680001F90346002B14BF01230023DBB2002BEF
:1059780001D000F02FFA00237B600023BB603B1DA1
:105988001946084802F04AFE0346002B14BF0123BB
:105998000023DBB2002B01D000F01CFA00BF303727
:1059A800BD4680BDFC0300200008004080B58CB0D7
:1059B80000AF07F10C0324220021184605F0ADFFC3
:1059C8003B1D00221A605A60254B264A1A60244B58
:1059D80000225A60224B00229A60214B4FF6FF7238
:1059E800DA601F4B00221A611D4B00229A610323C3
:1059F800FB6000233B6101237B610023BB61002323
:105A0800FB6100233B6201237B620023BB6200230E
:105A1800FB6207F10C031946114802F0A3F803468C
:105A2800002B14BF01230023DBB2002B01D000F0B0
:105A3800D1F900237B600023BB603B1D1946084851
:105A480002F0ECFD0346002B14BF01230023DBB258
:105A5800002B01D000F0BEF900BF3037BD4680BD35
:105A680044040020000C004080B582B000AF3B46E3
:105A780000221A605A601A4B1A4A1A60184B41F6EB
:105A88001F425A60164B00229A60154B0922DA60B1
:105A9800134B00229A61124801F002FF0346002BC3
:105AA80014BF01230023DBB2002B01D000F092F9D0
:105AB80000233B6000237B603B461946084802F000
:105AC800ADFD0346002B14BF01230023DBB2002BDE
